
Semaforo_IDE.elf:     file format elf32-littlearm

Sections:
Idx Name          Size      VMA       LMA       File off  Algn
  0 .isr_vector   00000188  08000000  08000000  00010000  2**0
                  CONTENTS, ALLOC, LOAD, READONLY, DATA
  1 .text         00003c98  08000188  08000188  00010188  2**2
                  CONTENTS, ALLOC, LOAD, READONLY, CODE
  2 .rodata       00000020  08003e20  08003e20  00013e20  2**2
                  CONTENTS, ALLOC, LOAD, READONLY, DATA
  3 .ARM.extab    00000000  08003e40  08003e40  0002000c  2**0
                  CONTENTS
  4 .ARM          00000008  08003e40  08003e40  00013e40  2**2
                  CONTENTS, ALLOC, LOAD, READONLY, DATA
  5 .preinit_array 00000000  08003e48  08003e48  0002000c  2**0
                  CONTENTS, ALLOC, LOAD, DATA
  6 .init_array   00000004  08003e48  08003e48  00013e48  2**2
                  CONTENTS, ALLOC, LOAD, DATA
  7 .fini_array   00000004  08003e4c  08003e4c  00013e4c  2**2
                  CONTENTS, ALLOC, LOAD, DATA
  8 .data         0000000c  20000000  08003e50  00020000  2**2
                  CONTENTS, ALLOC, LOAD, DATA
  9 .bss          000007a8  2000000c  08003e5c  0002000c  2**2
                  ALLOC
 10 ._user_heap_stack 00000604  200007b4  08003e5c  000207b4  2**0
                  ALLOC
 11 .ARM.attributes 00000030  00000000  00000000  0002000c  2**0
                  CONTENTS, READONLY
 12 .comment      0000007b  00000000  00000000  0002003c  2**0
                  CONTENTS, READONLY
 13 .debug_frame  000000ac  00000000  00000000  000200b8  2**2
                  CONTENTS, READONLY, DEBUGGING

Disassembly of section .text:

08000188 <__do_global_dtors_aux>:
 8000188:	b510      	push	{r4, lr}
 800018a:	4c05      	ldr	r4, [pc, #20]	; (80001a0 <__do_global_dtors_aux+0x18>)
 800018c:	7823      	ldrb	r3, [r4, #0]
 800018e:	b933      	cbnz	r3, 800019e <__do_global_dtors_aux+0x16>
 8000190:	4b04      	ldr	r3, [pc, #16]	; (80001a4 <__do_global_dtors_aux+0x1c>)
 8000192:	b113      	cbz	r3, 800019a <__do_global_dtors_aux+0x12>
 8000194:	4804      	ldr	r0, [pc, #16]	; (80001a8 <__do_global_dtors_aux+0x20>)
 8000196:	f3af 8000 	nop.w
 800019a:	2301      	movs	r3, #1
 800019c:	7023      	strb	r3, [r4, #0]
 800019e:	bd10      	pop	{r4, pc}
 80001a0:	2000000c 	.word	0x2000000c
 80001a4:	00000000 	.word	0x00000000
 80001a8:	08003e08 	.word	0x08003e08

080001ac <frame_dummy>:
 80001ac:	b508      	push	{r3, lr}
 80001ae:	4b03      	ldr	r3, [pc, #12]	; (80001bc <frame_dummy+0x10>)
 80001b0:	b11b      	cbz	r3, 80001ba <frame_dummy+0xe>
 80001b2:	4903      	ldr	r1, [pc, #12]	; (80001c0 <frame_dummy+0x14>)
 80001b4:	4803      	ldr	r0, [pc, #12]	; (80001c4 <frame_dummy+0x18>)
 80001b6:	f3af 8000 	nop.w
 80001ba:	bd08      	pop	{r3, pc}
 80001bc:	00000000 	.word	0x00000000
 80001c0:	20000010 	.word	0x20000010
 80001c4:	08003e08 	.word	0x08003e08

080001c8 <__aeabi_uldivmod>:
 80001c8:	b953      	cbnz	r3, 80001e0 <__aeabi_uldivmod+0x18>
 80001ca:	b94a      	cbnz	r2, 80001e0 <__aeabi_uldivmod+0x18>
 80001cc:	2900      	cmp	r1, #0
 80001ce:	bf08      	it	eq
 80001d0:	2800      	cmpeq	r0, #0
 80001d2:	bf1c      	itt	ne
 80001d4:	f04f 31ff 	movne.w	r1, #4294967295
 80001d8:	f04f 30ff 	movne.w	r0, #4294967295
 80001dc:	f000 b972 	b.w	80004c4 <__aeabi_idiv0>
 80001e0:	f1ad 0c08 	sub.w	ip, sp, #8
 80001e4:	e96d ce04 	strd	ip, lr, [sp, #-16]!
 80001e8:	f000 f806 	bl	80001f8 <__udivmoddi4>
 80001ec:	f8dd e004 	ldr.w	lr, [sp, #4]
 80001f0:	e9dd 2302 	ldrd	r2, r3, [sp, #8]
 80001f4:	b004      	add	sp, #16
 80001f6:	4770      	bx	lr

080001f8 <__udivmoddi4>:
 80001f8:	e92d 47f0 	stmdb	sp!, {r4, r5, r6, r7, r8, r9, sl, lr}
 80001fc:	9e08      	ldr	r6, [sp, #32]
 80001fe:	4604      	mov	r4, r0
 8000200:	4688      	mov	r8, r1
 8000202:	2b00      	cmp	r3, #0
 8000204:	d14b      	bne.n	800029e <__udivmoddi4+0xa6>
 8000206:	428a      	cmp	r2, r1
 8000208:	4615      	mov	r5, r2
 800020a:	d967      	bls.n	80002dc <__udivmoddi4+0xe4>
 800020c:	fab2 f282 	clz	r2, r2
 8000210:	b14a      	cbz	r2, 8000226 <__udivmoddi4+0x2e>
 8000212:	f1c2 0720 	rsb	r7, r2, #32
 8000216:	fa01 f302 	lsl.w	r3, r1, r2
 800021a:	fa20 f707 	lsr.w	r7, r0, r7
 800021e:	4095      	lsls	r5, r2
 8000220:	ea47 0803 	orr.w	r8, r7, r3
 8000224:	4094      	lsls	r4, r2
 8000226:	ea4f 4e15 	mov.w	lr, r5, lsr #16
 800022a:	0c23      	lsrs	r3, r4, #16
 800022c:	fbb8 f7fe 	udiv	r7, r8, lr
 8000230:	fa1f fc85 	uxth.w	ip, r5
 8000234:	fb0e 8817 	mls	r8, lr, r7, r8
 8000238:	ea43 4308 	orr.w	r3, r3, r8, lsl #16
 800023c:	fb07 f10c 	mul.w	r1, r7, ip
 8000240:	4299      	cmp	r1, r3
 8000242:	d909      	bls.n	8000258 <__udivmoddi4+0x60>
 8000244:	18eb      	adds	r3, r5, r3
 8000246:	f107 30ff 	add.w	r0, r7, #4294967295
 800024a:	f080 811b 	bcs.w	8000484 <__udivmoddi4+0x28c>
 800024e:	4299      	cmp	r1, r3
 8000250:	f240 8118 	bls.w	8000484 <__udivmoddi4+0x28c>
 8000254:	3f02      	subs	r7, #2
 8000256:	442b      	add	r3, r5
 8000258:	1a5b      	subs	r3, r3, r1
 800025a:	b2a4      	uxth	r4, r4
 800025c:	fbb3 f0fe 	udiv	r0, r3, lr
 8000260:	fb0e 3310 	mls	r3, lr, r0, r3
 8000264:	ea44 4403 	orr.w	r4, r4, r3, lsl #16
 8000268:	fb00 fc0c 	mul.w	ip, r0, ip
 800026c:	45a4      	cmp	ip, r4
 800026e:	d909      	bls.n	8000284 <__udivmoddi4+0x8c>
 8000270:	192c      	adds	r4, r5, r4
 8000272:	f100 33ff 	add.w	r3, r0, #4294967295
 8000276:	f080 8107 	bcs.w	8000488 <__udivmoddi4+0x290>
 800027a:	45a4      	cmp	ip, r4
 800027c:	f240 8104 	bls.w	8000488 <__udivmoddi4+0x290>
 8000280:	3802      	subs	r0, #2
 8000282:	442c      	add	r4, r5
 8000284:	ea40 4007 	orr.w	r0, r0, r7, lsl #16
 8000288:	eba4 040c 	sub.w	r4, r4, ip
 800028c:	2700      	movs	r7, #0
 800028e:	b11e      	cbz	r6, 8000298 <__udivmoddi4+0xa0>
 8000290:	40d4      	lsrs	r4, r2
 8000292:	2300      	movs	r3, #0
 8000294:	e9c6 4300 	strd	r4, r3, [r6]
 8000298:	4639      	mov	r1, r7
 800029a:	e8bd 87f0 	ldmia.w	sp!, {r4, r5, r6, r7, r8, r9, sl, pc}
 800029e:	428b      	cmp	r3, r1
 80002a0:	d909      	bls.n	80002b6 <__udivmoddi4+0xbe>
 80002a2:	2e00      	cmp	r6, #0
 80002a4:	f000 80eb 	beq.w	800047e <__udivmoddi4+0x286>
 80002a8:	2700      	movs	r7, #0
 80002aa:	e9c6 0100 	strd	r0, r1, [r6]
 80002ae:	4638      	mov	r0, r7
 80002b0:	4639      	mov	r1, r7
 80002b2:	e8bd 87f0 	ldmia.w	sp!, {r4, r5, r6, r7, r8, r9, sl, pc}
 80002b6:	fab3 f783 	clz	r7, r3
 80002ba:	2f00      	cmp	r7, #0
 80002bc:	d147      	bne.n	800034e <__udivmoddi4+0x156>
 80002be:	428b      	cmp	r3, r1
 80002c0:	d302      	bcc.n	80002c8 <__udivmoddi4+0xd0>
 80002c2:	4282      	cmp	r2, r0
 80002c4:	f200 80fa 	bhi.w	80004bc <__udivmoddi4+0x2c4>
 80002c8:	1a84      	subs	r4, r0, r2
 80002ca:	eb61 0303 	sbc.w	r3, r1, r3
 80002ce:	2001      	movs	r0, #1
 80002d0:	4698      	mov	r8, r3
 80002d2:	2e00      	cmp	r6, #0
 80002d4:	d0e0      	beq.n	8000298 <__udivmoddi4+0xa0>
 80002d6:	e9c6 4800 	strd	r4, r8, [r6]
 80002da:	e7dd      	b.n	8000298 <__udivmoddi4+0xa0>
 80002dc:	b902      	cbnz	r2, 80002e0 <__udivmoddi4+0xe8>
 80002de:	deff      	udf	#255	; 0xff
 80002e0:	fab2 f282 	clz	r2, r2
 80002e4:	2a00      	cmp	r2, #0
 80002e6:	f040 808f 	bne.w	8000408 <__udivmoddi4+0x210>
 80002ea:	1b49      	subs	r1, r1, r5
 80002ec:	ea4f 4e15 	mov.w	lr, r5, lsr #16
 80002f0:	fa1f f885 	uxth.w	r8, r5
 80002f4:	2701      	movs	r7, #1
 80002f6:	fbb1 fcfe 	udiv	ip, r1, lr
 80002fa:	0c23      	lsrs	r3, r4, #16
 80002fc:	fb0e 111c 	mls	r1, lr, ip, r1
 8000300:	ea43 4301 	orr.w	r3, r3, r1, lsl #16
 8000304:	fb08 f10c 	mul.w	r1, r8, ip
 8000308:	4299      	cmp	r1, r3
 800030a:	d907      	bls.n	800031c <__udivmoddi4+0x124>
 800030c:	18eb      	adds	r3, r5, r3
 800030e:	f10c 30ff 	add.w	r0, ip, #4294967295
 8000312:	d202      	bcs.n	800031a <__udivmoddi4+0x122>
 8000314:	4299      	cmp	r1, r3
 8000316:	f200 80cd 	bhi.w	80004b4 <__udivmoddi4+0x2bc>
 800031a:	4684      	mov	ip, r0
 800031c:	1a59      	subs	r1, r3, r1
 800031e:	b2a3      	uxth	r3, r4
 8000320:	fbb1 f0fe 	udiv	r0, r1, lr
 8000324:	fb0e 1410 	mls	r4, lr, r0, r1
 8000328:	ea43 4404 	orr.w	r4, r3, r4, lsl #16
 800032c:	fb08 f800 	mul.w	r8, r8, r0
 8000330:	45a0      	cmp	r8, r4
 8000332:	d907      	bls.n	8000344 <__udivmoddi4+0x14c>
 8000334:	192c      	adds	r4, r5, r4
 8000336:	f100 33ff 	add.w	r3, r0, #4294967295
 800033a:	d202      	bcs.n	8000342 <__udivmoddi4+0x14a>
 800033c:	45a0      	cmp	r8, r4
 800033e:	f200 80b6 	bhi.w	80004ae <__udivmoddi4+0x2b6>
 8000342:	4618      	mov	r0, r3
 8000344:	eba4 0408 	sub.w	r4, r4, r8
 8000348:	ea40 400c 	orr.w	r0, r0, ip, lsl #16
 800034c:	e79f      	b.n	800028e <__udivmoddi4+0x96>
 800034e:	f1c7 0c20 	rsb	ip, r7, #32
 8000352:	40bb      	lsls	r3, r7
 8000354:	fa22 fe0c 	lsr.w	lr, r2, ip
 8000358:	ea4e 0e03 	orr.w	lr, lr, r3
 800035c:	fa01 f407 	lsl.w	r4, r1, r7
 8000360:	fa20 f50c 	lsr.w	r5, r0, ip
 8000364:	fa21 f30c 	lsr.w	r3, r1, ip
 8000368:	ea4f 481e 	mov.w	r8, lr, lsr #16
 800036c:	4325      	orrs	r5, r4
 800036e:	fbb3 f9f8 	udiv	r9, r3, r8
 8000372:	0c2c      	lsrs	r4, r5, #16
 8000374:	fb08 3319 	mls	r3, r8, r9, r3
 8000378:	fa1f fa8e 	uxth.w	sl, lr
 800037c:	ea44 4303 	orr.w	r3, r4, r3, lsl #16
 8000380:	fb09 f40a 	mul.w	r4, r9, sl
 8000384:	429c      	cmp	r4, r3
 8000386:	fa02 f207 	lsl.w	r2, r2, r7
 800038a:	fa00 f107 	lsl.w	r1, r0, r7
 800038e:	d90b      	bls.n	80003a8 <__udivmoddi4+0x1b0>
 8000390:	eb1e 0303 	adds.w	r3, lr, r3
 8000394:	f109 30ff 	add.w	r0, r9, #4294967295
 8000398:	f080 8087 	bcs.w	80004aa <__udivmoddi4+0x2b2>
 800039c:	429c      	cmp	r4, r3
 800039e:	f240 8084 	bls.w	80004aa <__udivmoddi4+0x2b2>
 80003a2:	f1a9 0902 	sub.w	r9, r9, #2
 80003a6:	4473      	add	r3, lr
 80003a8:	1b1b      	subs	r3, r3, r4
 80003aa:	b2ad      	uxth	r5, r5
 80003ac:	fbb3 f0f8 	udiv	r0, r3, r8
 80003b0:	fb08 3310 	mls	r3, r8, r0, r3
 80003b4:	ea45 4403 	orr.w	r4, r5, r3, lsl #16
 80003b8:	fb00 fa0a 	mul.w	sl, r0, sl
 80003bc:	45a2      	cmp	sl, r4
 80003be:	d908      	bls.n	80003d2 <__udivmoddi4+0x1da>
 80003c0:	eb1e 0404 	adds.w	r4, lr, r4
 80003c4:	f100 33ff 	add.w	r3, r0, #4294967295
 80003c8:	d26b      	bcs.n	80004a2 <__udivmoddi4+0x2aa>
 80003ca:	45a2      	cmp	sl, r4
 80003cc:	d969      	bls.n	80004a2 <__udivmoddi4+0x2aa>
 80003ce:	3802      	subs	r0, #2
 80003d0:	4474      	add	r4, lr
 80003d2:	ea40 4009 	orr.w	r0, r0, r9, lsl #16
 80003d6:	fba0 8902 	umull	r8, r9, r0, r2
 80003da:	eba4 040a 	sub.w	r4, r4, sl
 80003de:	454c      	cmp	r4, r9
 80003e0:	46c2      	mov	sl, r8
 80003e2:	464b      	mov	r3, r9
 80003e4:	d354      	bcc.n	8000490 <__udivmoddi4+0x298>
 80003e6:	d051      	beq.n	800048c <__udivmoddi4+0x294>
 80003e8:	2e00      	cmp	r6, #0
 80003ea:	d069      	beq.n	80004c0 <__udivmoddi4+0x2c8>
 80003ec:	ebb1 050a 	subs.w	r5, r1, sl
 80003f0:	eb64 0403 	sbc.w	r4, r4, r3
 80003f4:	fa04 fc0c 	lsl.w	ip, r4, ip
 80003f8:	40fd      	lsrs	r5, r7
 80003fa:	40fc      	lsrs	r4, r7
 80003fc:	ea4c 0505 	orr.w	r5, ip, r5
 8000400:	e9c6 5400 	strd	r5, r4, [r6]
 8000404:	2700      	movs	r7, #0
 8000406:	e747      	b.n	8000298 <__udivmoddi4+0xa0>
 8000408:	f1c2 0320 	rsb	r3, r2, #32
 800040c:	fa20 f703 	lsr.w	r7, r0, r3
 8000410:	4095      	lsls	r5, r2
 8000412:	fa01 f002 	lsl.w	r0, r1, r2
 8000416:	fa21 f303 	lsr.w	r3, r1, r3
 800041a:	ea4f 4e15 	mov.w	lr, r5, lsr #16
 800041e:	4338      	orrs	r0, r7
 8000420:	0c01      	lsrs	r1, r0, #16
 8000422:	fbb3 f7fe 	udiv	r7, r3, lr
 8000426:	fa1f f885 	uxth.w	r8, r5
 800042a:	fb0e 3317 	mls	r3, lr, r7, r3
 800042e:	ea41 4103 	orr.w	r1, r1, r3, lsl #16
 8000432:	fb07 f308 	mul.w	r3, r7, r8
 8000436:	428b      	cmp	r3, r1
 8000438:	fa04 f402 	lsl.w	r4, r4, r2
 800043c:	d907      	bls.n	800044e <__udivmoddi4+0x256>
 800043e:	1869      	adds	r1, r5, r1
 8000440:	f107 3cff 	add.w	ip, r7, #4294967295
 8000444:	d22f      	bcs.n	80004a6 <__udivmoddi4+0x2ae>
 8000446:	428b      	cmp	r3, r1
 8000448:	d92d      	bls.n	80004a6 <__udivmoddi4+0x2ae>
 800044a:	3f02      	subs	r7, #2
 800044c:	4429      	add	r1, r5
 800044e:	1acb      	subs	r3, r1, r3
 8000450:	b281      	uxth	r1, r0
 8000452:	fbb3 f0fe 	udiv	r0, r3, lr
 8000456:	fb0e 3310 	mls	r3, lr, r0, r3
 800045a:	ea41 4103 	orr.w	r1, r1, r3, lsl #16
 800045e:	fb00 f308 	mul.w	r3, r0, r8
 8000462:	428b      	cmp	r3, r1
 8000464:	d907      	bls.n	8000476 <__udivmoddi4+0x27e>
 8000466:	1869      	adds	r1, r5, r1
 8000468:	f100 3cff 	add.w	ip, r0, #4294967295
 800046c:	d217      	bcs.n	800049e <__udivmoddi4+0x2a6>
 800046e:	428b      	cmp	r3, r1
 8000470:	d915      	bls.n	800049e <__udivmoddi4+0x2a6>
 8000472:	3802      	subs	r0, #2
 8000474:	4429      	add	r1, r5
 8000476:	1ac9      	subs	r1, r1, r3
 8000478:	ea40 4707 	orr.w	r7, r0, r7, lsl #16
 800047c:	e73b      	b.n	80002f6 <__udivmoddi4+0xfe>
 800047e:	4637      	mov	r7, r6
 8000480:	4630      	mov	r0, r6
 8000482:	e709      	b.n	8000298 <__udivmoddi4+0xa0>
 8000484:	4607      	mov	r7, r0
 8000486:	e6e7      	b.n	8000258 <__udivmoddi4+0x60>
 8000488:	4618      	mov	r0, r3
 800048a:	e6fb      	b.n	8000284 <__udivmoddi4+0x8c>
 800048c:	4541      	cmp	r1, r8
 800048e:	d2ab      	bcs.n	80003e8 <__udivmoddi4+0x1f0>
 8000490:	ebb8 0a02 	subs.w	sl, r8, r2
 8000494:	eb69 020e 	sbc.w	r2, r9, lr
 8000498:	3801      	subs	r0, #1
 800049a:	4613      	mov	r3, r2
 800049c:	e7a4      	b.n	80003e8 <__udivmoddi4+0x1f0>
 800049e:	4660      	mov	r0, ip
 80004a0:	e7e9      	b.n	8000476 <__udivmoddi4+0x27e>
 80004a2:	4618      	mov	r0, r3
 80004a4:	e795      	b.n	80003d2 <__udivmoddi4+0x1da>
 80004a6:	4667      	mov	r7, ip
 80004a8:	e7d1      	b.n	800044e <__udivmoddi4+0x256>
 80004aa:	4681      	mov	r9, r0
 80004ac:	e77c      	b.n	80003a8 <__udivmoddi4+0x1b0>
 80004ae:	3802      	subs	r0, #2
 80004b0:	442c      	add	r4, r5
 80004b2:	e747      	b.n	8000344 <__udivmoddi4+0x14c>
 80004b4:	f1ac 0c02 	sub.w	ip, ip, #2
 80004b8:	442b      	add	r3, r5
 80004ba:	e72f      	b.n	800031c <__udivmoddi4+0x124>
 80004bc:	4638      	mov	r0, r7
 80004be:	e708      	b.n	80002d2 <__udivmoddi4+0xda>
 80004c0:	4637      	mov	r7, r6
 80004c2:	e6e9      	b.n	8000298 <__udivmoddi4+0xa0>

080004c4 <__aeabi_idiv0>:
 80004c4:	4770      	bx	lr
 80004c6:	bf00      	nop

080004c8 <HAL_InitTick>:
 80004c8:	b538      	push	{r3, r4, r5, lr}
 80004ca:	4a0e      	ldr	r2, [pc, #56]	; (8000504 <HAL_InitTick+0x3c>)
 80004cc:	4b0e      	ldr	r3, [pc, #56]	; (8000508 <HAL_InitTick+0x40>)
 80004ce:	7812      	ldrb	r2, [r2, #0]
 80004d0:	681b      	ldr	r3, [r3, #0]
 80004d2:	4605      	mov	r5, r0
 80004d4:	f44f 707a 	mov.w	r0, #1000	; 0x3e8
 80004d8:	fbb0 f0f2 	udiv	r0, r0, r2
 80004dc:	fbb3 f0f0 	udiv	r0, r3, r0
 80004e0:	f000 f89c 	bl	800061c <HAL_SYSTICK_Config>
 80004e4:	b908      	cbnz	r0, 80004ea <HAL_InitTick+0x22>
 80004e6:	2d0f      	cmp	r5, #15
 80004e8:	d901      	bls.n	80004ee <HAL_InitTick+0x26>
 80004ea:	2001      	movs	r0, #1
 80004ec:	bd38      	pop	{r3, r4, r5, pc}
 80004ee:	4604      	mov	r4, r0
 80004f0:	4602      	mov	r2, r0
 80004f2:	4629      	mov	r1, r5
 80004f4:	f04f 30ff 	mov.w	r0, #4294967295
 80004f8:	f000 f85a 	bl	80005b0 <HAL_NVIC_SetPriority>
 80004fc:	4b03      	ldr	r3, [pc, #12]	; (800050c <HAL_InitTick+0x44>)
 80004fe:	4620      	mov	r0, r4
 8000500:	601d      	str	r5, [r3, #0]
 8000502:	bd38      	pop	{r3, r4, r5, pc}
 8000504:	20000000 	.word	0x20000000
 8000508:	20000008 	.word	0x20000008
 800050c:	20000004 	.word	0x20000004

08000510 <HAL_Init>:
 8000510:	b508      	push	{r3, lr}
 8000512:	4b0b      	ldr	r3, [pc, #44]	; (8000540 <HAL_Init+0x30>)
 8000514:	681a      	ldr	r2, [r3, #0]
 8000516:	f442 7200 	orr.w	r2, r2, #512	; 0x200
 800051a:	601a      	str	r2, [r3, #0]
 800051c:	681a      	ldr	r2, [r3, #0]
 800051e:	f442 6280 	orr.w	r2, r2, #1024	; 0x400
 8000522:	601a      	str	r2, [r3, #0]
 8000524:	681a      	ldr	r2, [r3, #0]
 8000526:	f442 7280 	orr.w	r2, r2, #256	; 0x100
 800052a:	601a      	str	r2, [r3, #0]
 800052c:	2003      	movs	r0, #3
 800052e:	f000 f82d 	bl	800058c <HAL_NVIC_SetPriorityGrouping>
 8000532:	2000      	movs	r0, #0
 8000534:	f7ff ffc8 	bl	80004c8 <HAL_InitTick>
 8000538:	f003 fa6e 	bl	8003a18 <HAL_MspInit>
 800053c:	2000      	movs	r0, #0
 800053e:	bd08      	pop	{r3, pc}
 8000540:	40023c00 	.word	0x40023c00

08000544 <HAL_IncTick>:
 8000544:	4a03      	ldr	r2, [pc, #12]	; (8000554 <HAL_IncTick+0x10>)
 8000546:	4b04      	ldr	r3, [pc, #16]	; (8000558 <HAL_IncTick+0x14>)
 8000548:	6811      	ldr	r1, [r2, #0]
 800054a:	781b      	ldrb	r3, [r3, #0]
 800054c:	440b      	add	r3, r1
 800054e:	6013      	str	r3, [r2, #0]
 8000550:	4770      	bx	lr
 8000552:	bf00      	nop
 8000554:	2000002c 	.word	0x2000002c
 8000558:	20000000 	.word	0x20000000

0800055c <HAL_GetTick>:
 800055c:	4b01      	ldr	r3, [pc, #4]	; (8000564 <HAL_GetTick+0x8>)
 800055e:	6818      	ldr	r0, [r3, #0]
 8000560:	4770      	bx	lr
 8000562:	bf00      	nop
 8000564:	2000002c 	.word	0x2000002c

08000568 <HAL_Delay>:
 8000568:	b538      	push	{r3, r4, r5, lr}
 800056a:	4604      	mov	r4, r0
 800056c:	f7ff fff6 	bl	800055c <HAL_GetTick>
 8000570:	1c63      	adds	r3, r4, #1
 8000572:	4605      	mov	r5, r0
 8000574:	d002      	beq.n	800057c <HAL_Delay+0x14>
 8000576:	4b04      	ldr	r3, [pc, #16]	; (8000588 <HAL_Delay+0x20>)
 8000578:	781b      	ldrb	r3, [r3, #0]
 800057a:	441c      	add	r4, r3
 800057c:	f7ff ffee 	bl	800055c <HAL_GetTick>
 8000580:	1b40      	subs	r0, r0, r5
 8000582:	42a0      	cmp	r0, r4
 8000584:	d3fa      	bcc.n	800057c <HAL_Delay+0x14>
 8000586:	bd38      	pop	{r3, r4, r5, pc}
 8000588:	20000000 	.word	0x20000000

0800058c <HAL_NVIC_SetPriorityGrouping>:
 800058c:	4a07      	ldr	r2, [pc, #28]	; (80005ac <HAL_NVIC_SetPriorityGrouping+0x20>)
 800058e:	68d3      	ldr	r3, [r2, #12]
 8000590:	f64f 01ff 	movw	r1, #63743	; 0xf8ff
 8000594:	400b      	ands	r3, r1
 8000596:	0200      	lsls	r0, r0, #8
 8000598:	f043 63bf 	orr.w	r3, r3, #100139008	; 0x5f80000
 800059c:	f400 60e0 	and.w	r0, r0, #1792	; 0x700
 80005a0:	f443 3300 	orr.w	r3, r3, #131072	; 0x20000
 80005a4:	4303      	orrs	r3, r0
 80005a6:	60d3      	str	r3, [r2, #12]
 80005a8:	4770      	bx	lr
 80005aa:	bf00      	nop
 80005ac:	e000ed00 	.word	0xe000ed00

080005b0 <HAL_NVIC_SetPriority>:
 80005b0:	4b18      	ldr	r3, [pc, #96]	; (8000614 <HAL_NVIC_SetPriority+0x64>)
 80005b2:	68db      	ldr	r3, [r3, #12]
 80005b4:	f3c3 2302 	ubfx	r3, r3, #8, #3
 80005b8:	b430      	push	{r4, r5}
 80005ba:	f1c3 0507 	rsb	r5, r3, #7
 80005be:	2d04      	cmp	r5, #4
 80005c0:	f103 0404 	add.w	r4, r3, #4
 80005c4:	bf28      	it	cs
 80005c6:	2504      	movcs	r5, #4
 80005c8:	2c06      	cmp	r4, #6
 80005ca:	d919      	bls.n	8000600 <HAL_NVIC_SetPriority+0x50>
 80005cc:	3b03      	subs	r3, #3
 80005ce:	f04f 34ff 	mov.w	r4, #4294967295
 80005d2:	409c      	lsls	r4, r3
 80005d4:	ea22 0404 	bic.w	r4, r2, r4
 80005d8:	f04f 32ff 	mov.w	r2, #4294967295
 80005dc:	40aa      	lsls	r2, r5
 80005de:	ea21 0102 	bic.w	r1, r1, r2
 80005e2:	fa01 f203 	lsl.w	r2, r1, r3
 80005e6:	4322      	orrs	r2, r4
 80005e8:	0112      	lsls	r2, r2, #4
 80005ea:	2800      	cmp	r0, #0
 80005ec:	b2d2      	uxtb	r2, r2
 80005ee:	db0a      	blt.n	8000606 <HAL_NVIC_SetPriority+0x56>
 80005f0:	f100 4060 	add.w	r0, r0, #3758096384	; 0xe0000000
 80005f4:	f500 4061 	add.w	r0, r0, #57600	; 0xe100
 80005f8:	f880 2300 	strb.w	r2, [r0, #768]	; 0x300
 80005fc:	bc30      	pop	{r4, r5}
 80005fe:	4770      	bx	lr
 8000600:	2400      	movs	r4, #0
 8000602:	4623      	mov	r3, r4
 8000604:	e7e8      	b.n	80005d8 <HAL_NVIC_SetPriority+0x28>
 8000606:	4b04      	ldr	r3, [pc, #16]	; (8000618 <HAL_NVIC_SetPriority+0x68>)
 8000608:	f000 000f 	and.w	r0, r0, #15
 800060c:	4403      	add	r3, r0
 800060e:	761a      	strb	r2, [r3, #24]
 8000610:	bc30      	pop	{r4, r5}
 8000612:	4770      	bx	lr
 8000614:	e000ed00 	.word	0xe000ed00
 8000618:	e000ecfc 	.word	0xe000ecfc

0800061c <HAL_SYSTICK_Config>:
 800061c:	3801      	subs	r0, #1
 800061e:	f1b0 7f80 	cmp.w	r0, #16777216	; 0x1000000
 8000622:	d20e      	bcs.n	8000642 <HAL_SYSTICK_Config+0x26>
 8000624:	4b08      	ldr	r3, [pc, #32]	; (8000648 <HAL_SYSTICK_Config+0x2c>)
 8000626:	b410      	push	{r4}
 8000628:	4c08      	ldr	r4, [pc, #32]	; (800064c <HAL_SYSTICK_Config+0x30>)
 800062a:	6058      	str	r0, [r3, #4]
 800062c:	20f0      	movs	r0, #240	; 0xf0
 800062e:	f884 0023 	strb.w	r0, [r4, #35]	; 0x23
 8000632:	2200      	movs	r2, #0
 8000634:	2107      	movs	r1, #7
 8000636:	4610      	mov	r0, r2
 8000638:	609a      	str	r2, [r3, #8]
 800063a:	6019      	str	r1, [r3, #0]
 800063c:	f85d 4b04 	ldr.w	r4, [sp], #4
 8000640:	4770      	bx	lr
 8000642:	2001      	movs	r0, #1
 8000644:	4770      	bx	lr
 8000646:	bf00      	nop
 8000648:	e000e010 	.word	0xe000e010
 800064c:	e000ed00 	.word	0xe000ed00

08000650 <HAL_GPIO_Init>:
 8000650:	e92d 4ff0 	stmdb	sp!, {r4, r5, r6, r7, r8, r9, sl, fp, lr}
 8000654:	f8df c230 	ldr.w	ip, [pc, #560]	; 8000888 <HAL_GPIO_Init+0x238>
 8000658:	f8df 8230 	ldr.w	r8, [pc, #560]	; 800088c <HAL_GPIO_Init+0x23c>
 800065c:	f8d1 e000 	ldr.w	lr, [r1]
 8000660:	b083      	sub	sp, #12
 8000662:	2500      	movs	r5, #0
 8000664:	e003      	b.n	800066e <HAL_GPIO_Init+0x1e>
 8000666:	3501      	adds	r5, #1
 8000668:	2d10      	cmp	r5, #16
 800066a:	f000 809a 	beq.w	80007a2 <HAL_GPIO_Init+0x152>
 800066e:	2301      	movs	r3, #1
 8000670:	40ab      	lsls	r3, r5
 8000672:	ea0e 0403 	and.w	r4, lr, r3
 8000676:	42a3      	cmp	r3, r4
 8000678:	d1f5      	bne.n	8000666 <HAL_GPIO_Init+0x16>
 800067a:	684e      	ldr	r6, [r1, #4]
 800067c:	f026 0a10 	bic.w	sl, r6, #16
 8000680:	f1ba 0f02 	cmp.w	sl, #2
 8000684:	f000 8090 	beq.w	80007a8 <HAL_GPIO_Init+0x158>
 8000688:	ea4f 0945 	mov.w	r9, r5, lsl #1
 800068c:	2203      	movs	r2, #3
 800068e:	f8d0 b000 	ldr.w	fp, [r0]
 8000692:	fa02 f209 	lsl.w	r2, r2, r9
 8000696:	43d2      	mvns	r2, r2
 8000698:	f006 0703 	and.w	r7, r6, #3
 800069c:	ea02 0b0b 	and.w	fp, r2, fp
 80006a0:	fa07 f709 	lsl.w	r7, r7, r9
 80006a4:	f10a 3aff 	add.w	sl, sl, #4294967295
 80006a8:	ea47 070b 	orr.w	r7, r7, fp
 80006ac:	f1ba 0f01 	cmp.w	sl, #1
 80006b0:	6007      	str	r7, [r0, #0]
 80006b2:	f240 809f 	bls.w	80007f4 <HAL_GPIO_Init+0x1a4>
 80006b6:	68c7      	ldr	r7, [r0, #12]
 80006b8:	688b      	ldr	r3, [r1, #8]
 80006ba:	403a      	ands	r2, r7
 80006bc:	fa03 f309 	lsl.w	r3, r3, r9
 80006c0:	4313      	orrs	r3, r2
 80006c2:	60c3      	str	r3, [r0, #12]
 80006c4:	00f3      	lsls	r3, r6, #3
 80006c6:	d5ce      	bpl.n	8000666 <HAL_GPIO_Init+0x16>
 80006c8:	2300      	movs	r3, #0
 80006ca:	9301      	str	r3, [sp, #4]
 80006cc:	f8d8 3044 	ldr.w	r3, [r8, #68]	; 0x44
 80006d0:	f443 4380 	orr.w	r3, r3, #16384	; 0x4000
 80006d4:	f8c8 3044 	str.w	r3, [r8, #68]	; 0x44
 80006d8:	f8d8 3044 	ldr.w	r3, [r8, #68]	; 0x44
 80006dc:	f025 0203 	bic.w	r2, r5, #3
 80006e0:	f102 4280 	add.w	r2, r2, #1073741824	; 0x40000000
 80006e4:	f403 4380 	and.w	r3, r3, #16384	; 0x4000
 80006e8:	f502 329c 	add.w	r2, r2, #79872	; 0x13800
 80006ec:	9301      	str	r3, [sp, #4]
 80006ee:	f005 0703 	and.w	r7, r5, #3
 80006f2:	9b01      	ldr	r3, [sp, #4]
 80006f4:	f8d2 9008 	ldr.w	r9, [r2, #8]
 80006f8:	00bf      	lsls	r7, r7, #2
 80006fa:	230f      	movs	r3, #15
 80006fc:	40bb      	lsls	r3, r7
 80006fe:	ea29 0a03 	bic.w	sl, r9, r3
 8000702:	4b5b      	ldr	r3, [pc, #364]	; (8000870 <HAL_GPIO_Init+0x220>)
 8000704:	4298      	cmp	r0, r3
 8000706:	d024      	beq.n	8000752 <HAL_GPIO_Init+0x102>
 8000708:	f503 6380 	add.w	r3, r3, #1024	; 0x400
 800070c:	4298      	cmp	r0, r3
 800070e:	f000 8084 	beq.w	800081a <HAL_GPIO_Init+0x1ca>
 8000712:	4b58      	ldr	r3, [pc, #352]	; (8000874 <HAL_GPIO_Init+0x224>)
 8000714:	4298      	cmp	r0, r3
 8000716:	f000 8087 	beq.w	8000828 <HAL_GPIO_Init+0x1d8>
 800071a:	4b57      	ldr	r3, [pc, #348]	; (8000878 <HAL_GPIO_Init+0x228>)
 800071c:	4298      	cmp	r0, r3
 800071e:	f000 808a 	beq.w	8000836 <HAL_GPIO_Init+0x1e6>
 8000722:	4b56      	ldr	r3, [pc, #344]	; (800087c <HAL_GPIO_Init+0x22c>)
 8000724:	4298      	cmp	r0, r3
 8000726:	f000 808d 	beq.w	8000844 <HAL_GPIO_Init+0x1f4>
 800072a:	4b55      	ldr	r3, [pc, #340]	; (8000880 <HAL_GPIO_Init+0x230>)
 800072c:	4298      	cmp	r0, r3
 800072e:	f000 8090 	beq.w	8000852 <HAL_GPIO_Init+0x202>
 8000732:	4b54      	ldr	r3, [pc, #336]	; (8000884 <HAL_GPIO_Init+0x234>)
 8000734:	4298      	cmp	r0, r3
 8000736:	f000 8093 	beq.w	8000860 <HAL_GPIO_Init+0x210>
 800073a:	f8df 9154 	ldr.w	r9, [pc, #340]	; 8000890 <HAL_GPIO_Init+0x240>
 800073e:	4548      	cmp	r0, r9
 8000740:	bf0c      	ite	eq
 8000742:	f04f 0907 	moveq.w	r9, #7
 8000746:	f04f 0908 	movne.w	r9, #8
 800074a:	fa09 f707 	lsl.w	r7, r9, r7
 800074e:	ea4a 0a07 	orr.w	sl, sl, r7
 8000752:	f8c2 a008 	str.w	sl, [r2, #8]
 8000756:	f8dc 3000 	ldr.w	r3, [ip]
 800075a:	43e2      	mvns	r2, r4
 800075c:	03f7      	lsls	r7, r6, #15
 800075e:	bf54      	ite	pl
 8000760:	4013      	andpl	r3, r2
 8000762:	4323      	orrmi	r3, r4
 8000764:	f8cc 3000 	str.w	r3, [ip]
 8000768:	f8dc 3004 	ldr.w	r3, [ip, #4]
 800076c:	03b7      	lsls	r7, r6, #14
 800076e:	bf54      	ite	pl
 8000770:	4013      	andpl	r3, r2
 8000772:	4323      	orrmi	r3, r4
 8000774:	f8cc 3004 	str.w	r3, [ip, #4]
 8000778:	f8dc 3008 	ldr.w	r3, [ip, #8]
 800077c:	02f7      	lsls	r7, r6, #11
 800077e:	bf54      	ite	pl
 8000780:	4013      	andpl	r3, r2
 8000782:	4323      	orrmi	r3, r4
 8000784:	f8cc 3008 	str.w	r3, [ip, #8]
 8000788:	f8dc 300c 	ldr.w	r3, [ip, #12]
 800078c:	02b6      	lsls	r6, r6, #10
 800078e:	f105 0501 	add.w	r5, r5, #1
 8000792:	bf54      	ite	pl
 8000794:	4013      	andpl	r3, r2
 8000796:	4323      	orrmi	r3, r4
 8000798:	2d10      	cmp	r5, #16
 800079a:	f8cc 300c 	str.w	r3, [ip, #12]
 800079e:	f47f af66 	bne.w	800066e <HAL_GPIO_Init+0x1e>
 80007a2:	b003      	add	sp, #12
 80007a4:	e8bd 8ff0 	ldmia.w	sp!, {r4, r5, r6, r7, r8, r9, sl, fp, pc}
 80007a8:	ea4f 09d5 	mov.w	r9, r5, lsr #3
 80007ac:	eb00 0989 	add.w	r9, r0, r9, lsl #2
 80007b0:	f005 0707 	and.w	r7, r5, #7
 80007b4:	f8d9 2020 	ldr.w	r2, [r9, #32]
 80007b8:	00bf      	lsls	r7, r7, #2
 80007ba:	f04f 0b0f 	mov.w	fp, #15
 80007be:	fa0b fb07 	lsl.w	fp, fp, r7
 80007c2:	ea22 0a0b 	bic.w	sl, r2, fp
 80007c6:	690a      	ldr	r2, [r1, #16]
 80007c8:	40ba      	lsls	r2, r7
 80007ca:	ea42 020a 	orr.w	r2, r2, sl
 80007ce:	f8c9 2020 	str.w	r2, [r9, #32]
 80007d2:	ea4f 0945 	mov.w	r9, r5, lsl #1
 80007d6:	2203      	movs	r2, #3
 80007d8:	f8d0 a000 	ldr.w	sl, [r0]
 80007dc:	fa02 f209 	lsl.w	r2, r2, r9
 80007e0:	43d2      	mvns	r2, r2
 80007e2:	f006 0703 	and.w	r7, r6, #3
 80007e6:	ea02 0a0a 	and.w	sl, r2, sl
 80007ea:	fa07 f709 	lsl.w	r7, r7, r9
 80007ee:	ea47 070a 	orr.w	r7, r7, sl
 80007f2:	6007      	str	r7, [r0, #0]
 80007f4:	6887      	ldr	r7, [r0, #8]
 80007f6:	ea07 0a02 	and.w	sl, r7, r2
 80007fa:	68cf      	ldr	r7, [r1, #12]
 80007fc:	fa07 f709 	lsl.w	r7, r7, r9
 8000800:	ea47 070a 	orr.w	r7, r7, sl
 8000804:	6087      	str	r7, [r0, #8]
 8000806:	f8d0 a004 	ldr.w	sl, [r0, #4]
 800080a:	f3c6 1700 	ubfx	r7, r6, #4, #1
 800080e:	ea2a 0303 	bic.w	r3, sl, r3
 8000812:	40af      	lsls	r7, r5
 8000814:	431f      	orrs	r7, r3
 8000816:	6047      	str	r7, [r0, #4]
 8000818:	e74d      	b.n	80006b6 <HAL_GPIO_Init+0x66>
 800081a:	f04f 0901 	mov.w	r9, #1
 800081e:	fa09 f707 	lsl.w	r7, r9, r7
 8000822:	ea4a 0a07 	orr.w	sl, sl, r7
 8000826:	e794      	b.n	8000752 <HAL_GPIO_Init+0x102>
 8000828:	f04f 0902 	mov.w	r9, #2
 800082c:	fa09 f707 	lsl.w	r7, r9, r7
 8000830:	ea4a 0a07 	orr.w	sl, sl, r7
 8000834:	e78d      	b.n	8000752 <HAL_GPIO_Init+0x102>
 8000836:	f04f 0903 	mov.w	r9, #3
 800083a:	fa09 f707 	lsl.w	r7, r9, r7
 800083e:	ea4a 0a07 	orr.w	sl, sl, r7
 8000842:	e786      	b.n	8000752 <HAL_GPIO_Init+0x102>
 8000844:	f04f 0904 	mov.w	r9, #4
 8000848:	fa09 f707 	lsl.w	r7, r9, r7
 800084c:	ea4a 0a07 	orr.w	sl, sl, r7
 8000850:	e77f      	b.n	8000752 <HAL_GPIO_Init+0x102>
 8000852:	f04f 0905 	mov.w	r9, #5
 8000856:	fa09 f707 	lsl.w	r7, r9, r7
 800085a:	ea4a 0a07 	orr.w	sl, sl, r7
 800085e:	e778      	b.n	8000752 <HAL_GPIO_Init+0x102>
 8000860:	f04f 0906 	mov.w	r9, #6
 8000864:	fa09 f707 	lsl.w	r7, r9, r7
 8000868:	ea4a 0a07 	orr.w	sl, sl, r7
 800086c:	e771      	b.n	8000752 <HAL_GPIO_Init+0x102>
 800086e:	bf00      	nop
 8000870:	40020000 	.word	0x40020000
 8000874:	40020800 	.word	0x40020800
 8000878:	40020c00 	.word	0x40020c00
 800087c:	40021000 	.word	0x40021000
 8000880:	40021400 	.word	0x40021400
 8000884:	40021800 	.word	0x40021800
 8000888:	40013c00 	.word	0x40013c00
 800088c:	40023800 	.word	0x40023800
 8000890:	40021c00 	.word	0x40021c00

08000894 <HAL_GPIO_WritePin>:
 8000894:	b902      	cbnz	r2, 8000898 <HAL_GPIO_WritePin+0x4>
 8000896:	0409      	lsls	r1, r1, #16
 8000898:	6181      	str	r1, [r0, #24]
 800089a:	4770      	bx	lr

0800089c <HAL_HCD_HC_Init>:
 800089c:	e92d 47f0 	stmdb	sp!, {r4, r5, r6, r7, r8, r9, sl, lr}
 80008a0:	f890 42b8 	ldrb.w	r4, [r0, #696]	; 0x2b8
 80008a4:	b084      	sub	sp, #16
 80008a6:	2c01      	cmp	r4, #1
 80008a8:	f89d 7030 	ldrb.w	r7, [sp, #48]	; 0x30
 80008ac:	f89d c034 	ldrb.w	ip, [sp, #52]	; 0x34
 80008b0:	f8bd e038 	ldrh.w	lr, [sp, #56]	; 0x38
 80008b4:	d028      	beq.n	8000908 <HAL_HCD_HC_Init+0x6c>
 80008b6:	4605      	mov	r5, r0
 80008b8:	eb01 0481 	add.w	r4, r1, r1, lsl #2
 80008bc:	eb00 04c4 	add.w	r4, r0, r4, lsl #3
 80008c0:	f04f 0801 	mov.w	r8, #1
 80008c4:	f885 82b8 	strb.w	r8, [r5, #696]	; 0x2b8
 80008c8:	f002 007f 	and.w	r0, r2, #127	; 0x7f
 80008cc:	09d6      	lsrs	r6, r2, #7
 80008ce:	f04f 0800 	mov.w	r8, #0
 80008d2:	f884 3038 	strb.w	r3, [r4, #56]	; 0x38
 80008d6:	f884 1039 	strb.w	r1, [r4, #57]	; 0x39
 80008da:	f884 c03f 	strb.w	ip, [r4, #63]	; 0x3f
 80008de:	f884 703c 	strb.w	r7, [r4, #60]	; 0x3c
 80008e2:	f884 003a 	strb.w	r0, [r4, #58]	; 0x3a
 80008e6:	f884 603b 	strb.w	r6, [r4, #59]	; 0x3b
 80008ea:	f884 803d 	strb.w	r8, [r4, #61]	; 0x3d
 80008ee:	6828      	ldr	r0, [r5, #0]
 80008f0:	f8a4 e040 	strh.w	lr, [r4, #64]	; 0x40
 80008f4:	e9cd ce01 	strd	ip, lr, [sp, #4]
 80008f8:	9700      	str	r7, [sp, #0]
 80008fa:	f001 fbb9 	bl	8002070 <USB_HC_Init>
 80008fe:	f885 82b8 	strb.w	r8, [r5, #696]	; 0x2b8
 8000902:	b004      	add	sp, #16
 8000904:	e8bd 87f0 	ldmia.w	sp!, {r4, r5, r6, r7, r8, r9, sl, pc}
 8000908:	2002      	movs	r0, #2
 800090a:	b004      	add	sp, #16
 800090c:	e8bd 87f0 	ldmia.w	sp!, {r4, r5, r6, r7, r8, r9, sl, pc}

08000910 <HAL_HCD_HC_SubmitRequest>:
 8000910:	b4f0      	push	{r4, r5, r6, r7}
 8000912:	008c      	lsls	r4, r1, #2
 8000914:	f89d 7010 	ldrb.w	r7, [sp, #16]
 8000918:	9e05      	ldr	r6, [sp, #20]
 800091a:	1865      	adds	r5, r4, r1
 800091c:	eb00 05c5 	add.w	r5, r0, r5, lsl #3
 8000920:	2f00      	cmp	r7, #0
 8000922:	bf14      	ite	ne
 8000924:	f04f 0c02 	movne.w	ip, #2
 8000928:	f04f 0c03 	moveq.w	ip, #3
 800092c:	f885 203b 	strb.w	r2, [r5, #59]	; 0x3b
 8000930:	f885 303f 	strb.w	r3, [r5, #63]	; 0x3f
 8000934:	f885 c042 	strb.w	ip, [r5, #66]	; 0x42
 8000938:	f8bd 5018 	ldrh.w	r5, [sp, #24]
 800093c:	2b03      	cmp	r3, #3
 800093e:	d812      	bhi.n	8000966 <HAL_HCD_HC_SubmitRequest+0x56>
 8000940:	e8df f003 	tbb	[pc, r3]
 8000944:	27273202 	.word	0x27273202
 8000948:	2f01      	cmp	r7, #1
 800094a:	d10c      	bne.n	8000966 <HAL_HCD_HC_SubmitRequest+0x56>
 800094c:	b95a      	cbnz	r2, 8000966 <HAL_HCD_HC_SubmitRequest+0x56>
 800094e:	1863      	adds	r3, r4, r1
 8000950:	eb00 03c3 	add.w	r3, r0, r3, lsl #3
 8000954:	bbbd      	cbnz	r5, 80009c6 <HAL_HCD_HC_SubmitRequest+0xb6>
 8000956:	f883 7051 	strb.w	r7, [r3, #81]	; 0x51
 800095a:	1863      	adds	r3, r4, r1
 800095c:	eb00 03c3 	add.w	r3, r0, r3, lsl #3
 8000960:	2202      	movs	r2, #2
 8000962:	f883 2042 	strb.w	r2, [r3, #66]	; 0x42
 8000966:	1863      	adds	r3, r4, r1
 8000968:	eb00 03c3 	add.w	r3, r0, r3, lsl #3
 800096c:	2228      	movs	r2, #40	; 0x28
 800096e:	f883 1039 	strb.w	r1, [r3, #57]	; 0x39
 8000972:	2400      	movs	r4, #0
 8000974:	fb02 0101 	mla	r1, r2, r1, r0
 8000978:	e9c3 6511 	strd	r6, r5, [r3, #68]	; 0x44
 800097c:	7c02      	ldrb	r2, [r0, #16]
 800097e:	6800      	ldr	r0, [r0, #0]
 8000980:	f883 405c 	strb.w	r4, [r3, #92]	; 0x5c
 8000984:	64dc      	str	r4, [r3, #76]	; 0x4c
 8000986:	f883 405d 	strb.w	r4, [r3, #93]	; 0x5d
 800098a:	3138      	adds	r1, #56	; 0x38
 800098c:	bcf0      	pop	{r4, r5, r6, r7}
 800098e:	f001 bc0f 	b.w	80021b0 <USB_HC_StartXfer>
 8000992:	1863      	adds	r3, r4, r1
 8000994:	eb00 03c3 	add.w	r3, r0, r3, lsl #3
 8000998:	b96a      	cbnz	r2, 80009b6 <HAL_HCD_HC_SubmitRequest+0xa6>
 800099a:	f893 7051 	ldrb.w	r7, [r3, #81]	; 0x51
 800099e:	b13f      	cbz	r7, 80009b0 <HAL_HCD_HC_SubmitRequest+0xa0>
 80009a0:	2202      	movs	r2, #2
 80009a2:	f883 2042 	strb.w	r2, [r3, #66]	; 0x42
 80009a6:	e7de      	b.n	8000966 <HAL_HCD_HC_SubmitRequest+0x56>
 80009a8:	1863      	adds	r3, r4, r1
 80009aa:	eb00 03c3 	add.w	r3, r0, r3, lsl #3
 80009ae:	2200      	movs	r2, #0
 80009b0:	f883 2042 	strb.w	r2, [r3, #66]	; 0x42
 80009b4:	e7d7      	b.n	8000966 <HAL_HCD_HC_SubmitRequest+0x56>
 80009b6:	f893 2050 	ldrb.w	r2, [r3, #80]	; 0x50
 80009ba:	2a00      	cmp	r2, #0
 80009bc:	d0f8      	beq.n	80009b0 <HAL_HCD_HC_SubmitRequest+0xa0>
 80009be:	2202      	movs	r2, #2
 80009c0:	f883 2042 	strb.w	r2, [r3, #66]	; 0x42
 80009c4:	e7cf      	b.n	8000966 <HAL_HCD_HC_SubmitRequest+0x56>
 80009c6:	f893 7051 	ldrb.w	r7, [r3, #81]	; 0x51
 80009ca:	2f00      	cmp	r7, #0
 80009cc:	d0f0      	beq.n	80009b0 <HAL_HCD_HC_SubmitRequest+0xa0>
 80009ce:	e7c4      	b.n	800095a <HAL_HCD_HC_SubmitRequest+0x4a>

080009d0 <HAL_HCD_IRQHandler>:
 80009d0:	e92d 4ff0 	stmdb	sp!, {r4, r5, r6, r7, r8, r9, sl, fp, lr}
 80009d4:	6805      	ldr	r5, [r0, #0]
 80009d6:	b085      	sub	sp, #20
 80009d8:	4604      	mov	r4, r0
 80009da:	4628      	mov	r0, r5
 80009dc:	f001 fad6 	bl	8001f8c <USB_GetMode>
 80009e0:	2801      	cmp	r0, #1
 80009e2:	d002      	beq.n	80009ea <HAL_HCD_IRQHandler+0x1a>
 80009e4:	b005      	add	sp, #20
 80009e6:	e8bd 8ff0 	ldmia.w	sp!, {r4, r5, r6, r7, r8, r9, sl, fp, pc}
 80009ea:	6820      	ldr	r0, [r4, #0]
 80009ec:	f001 faca 	bl	8001f84 <USB_ReadInterrupts>
 80009f0:	2800      	cmp	r0, #0
 80009f2:	d0f7      	beq.n	80009e4 <HAL_HCD_IRQHandler+0x14>
 80009f4:	6820      	ldr	r0, [r4, #0]
 80009f6:	f001 fac5 	bl	8001f84 <USB_ReadInterrupts>
 80009fa:	f410 1f00 	tst.w	r0, #2097152	; 0x200000
 80009fe:	6820      	ldr	r0, [r4, #0]
 8000a00:	bf1c      	itt	ne
 8000a02:	f44f 1300 	movne.w	r3, #2097152	; 0x200000
 8000a06:	6143      	strne	r3, [r0, #20]
 8000a08:	f001 fabc 	bl	8001f84 <USB_ReadInterrupts>
 8000a0c:	f410 1f80 	tst.w	r0, #1048576	; 0x100000
 8000a10:	6820      	ldr	r0, [r4, #0]
 8000a12:	bf1c      	itt	ne
 8000a14:	f44f 1380 	movne.w	r3, #1048576	; 0x100000
 8000a18:	6143      	strne	r3, [r0, #20]
 8000a1a:	f001 fab3 	bl	8001f84 <USB_ReadInterrupts>
 8000a1e:	f010 6f80 	tst.w	r0, #67108864	; 0x4000000
 8000a22:	6820      	ldr	r0, [r4, #0]
 8000a24:	bf1c      	itt	ne
 8000a26:	f04f 6380 	movne.w	r3, #67108864	; 0x4000000
 8000a2a:	6143      	strne	r3, [r0, #20]
 8000a2c:	f001 faaa 	bl	8001f84 <USB_ReadInterrupts>
 8000a30:	f010 0f02 	tst.w	r0, #2
 8000a34:	6820      	ldr	r0, [r4, #0]
 8000a36:	bf1c      	itt	ne
 8000a38:	2302      	movne	r3, #2
 8000a3a:	6143      	strne	r3, [r0, #20]
 8000a3c:	f001 faa2 	bl	8001f84 <USB_ReadInterrupts>
 8000a40:	0083      	lsls	r3, r0, #2
 8000a42:	f100 8113 	bmi.w	8000c6c <HAL_HCD_IRQHandler+0x29c>
 8000a46:	6820      	ldr	r0, [r4, #0]
 8000a48:	f001 fa9c 	bl	8001f84 <USB_ReadInterrupts>
 8000a4c:	01c7      	lsls	r7, r0, #7
 8000a4e:	6826      	ldr	r6, [r4, #0]
 8000a50:	f100 80ce 	bmi.w	8000bf0 <HAL_HCD_IRQHandler+0x220>
 8000a54:	4630      	mov	r0, r6
 8000a56:	f001 fa95 	bl	8001f84 <USB_ReadInterrupts>
 8000a5a:	0701      	lsls	r1, r0, #28
 8000a5c:	f100 811c 	bmi.w	8000c98 <HAL_HCD_IRQHandler+0x2c8>
 8000a60:	6820      	ldr	r0, [r4, #0]
 8000a62:	f001 fa8f 	bl	8001f84 <USB_ReadInterrupts>
 8000a66:	f010 7f00 	tst.w	r0, #33554432	; 0x2000000
 8000a6a:	6820      	ldr	r0, [r4, #0]
 8000a6c:	d13e      	bne.n	8000aec <HAL_HCD_IRQHandler+0x11c>
 8000a6e:	f001 fa89 	bl	8001f84 <USB_ReadInterrupts>
 8000a72:	06c3      	lsls	r3, r0, #27
 8000a74:	d5b6      	bpl.n	80009e4 <HAL_HCD_IRQHandler+0x14>
 8000a76:	6825      	ldr	r5, [r4, #0]
 8000a78:	69ab      	ldr	r3, [r5, #24]
 8000a7a:	f023 0310 	bic.w	r3, r3, #16
 8000a7e:	61ab      	str	r3, [r5, #24]
 8000a80:	6a2e      	ldr	r6, [r5, #32]
 8000a82:	f3c6 4243 	ubfx	r2, r6, #17, #4
 8000a86:	2a02      	cmp	r2, #2
 8000a88:	d12b      	bne.n	8000ae2 <HAL_HCD_IRQHandler+0x112>
 8000a8a:	f3c6 180a 	ubfx	r8, r6, #4, #11
 8000a8e:	f1b8 0f00 	cmp.w	r8, #0
 8000a92:	d026      	beq.n	8000ae2 <HAL_HCD_IRQHandler+0x112>
 8000a94:	f006 060f 	and.w	r6, r6, #15
 8000a98:	eb06 0786 	add.w	r7, r6, r6, lsl #2
 8000a9c:	eb04 07c7 	add.w	r7, r4, r7, lsl #3
 8000aa0:	6c79      	ldr	r1, [r7, #68]	; 0x44
 8000aa2:	b1f1      	cbz	r1, 8000ae2 <HAL_HCD_IRQHandler+0x112>
 8000aa4:	4642      	mov	r2, r8
 8000aa6:	4628      	mov	r0, r5
 8000aa8:	f001 fa58 	bl	8001f5c <USB_ReadPacket>
 8000aac:	f505 65a0 	add.w	r5, r5, #1280	; 0x500
 8000ab0:	0173      	lsls	r3, r6, #5
 8000ab2:	18e9      	adds	r1, r5, r3
 8000ab4:	6c78      	ldr	r0, [r7, #68]	; 0x44
 8000ab6:	690e      	ldr	r6, [r1, #16]
 8000ab8:	4abe      	ldr	r2, [pc, #760]	; (8000db4 <HAL_HCD_IRQHandler+0x3e4>)
 8000aba:	6cf9      	ldr	r1, [r7, #76]	; 0x4c
 8000abc:	4440      	add	r0, r8
 8000abe:	4441      	add	r1, r8
 8000ac0:	4032      	ands	r2, r6
 8000ac2:	6478      	str	r0, [r7, #68]	; 0x44
 8000ac4:	64f9      	str	r1, [r7, #76]	; 0x4c
 8000ac6:	b15a      	cbz	r2, 8000ae0 <HAL_HCD_IRQHandler+0x110>
 8000ac8:	58ea      	ldr	r2, [r5, r3]
 8000aca:	f022 4280 	bic.w	r2, r2, #1073741824	; 0x40000000
 8000ace:	f042 4200 	orr.w	r2, r2, #2147483648	; 0x80000000
 8000ad2:	50ea      	str	r2, [r5, r3]
 8000ad4:	f897 3050 	ldrb.w	r3, [r7, #80]	; 0x50
 8000ad8:	f083 0301 	eor.w	r3, r3, #1
 8000adc:	f887 3050 	strb.w	r3, [r7, #80]	; 0x50
 8000ae0:	6825      	ldr	r5, [r4, #0]
 8000ae2:	69ab      	ldr	r3, [r5, #24]
 8000ae4:	f043 0310 	orr.w	r3, r3, #16
 8000ae8:	61ab      	str	r3, [r5, #24]
 8000aea:	e77b      	b.n	80009e4 <HAL_HCD_IRQHandler+0x14>
 8000aec:	f001 fc38 	bl	8002360 <USB_HC_ReadInterrupt>
 8000af0:	68a1      	ldr	r1, [r4, #8]
 8000af2:	4680      	mov	r8, r0
 8000af4:	6820      	ldr	r0, [r4, #0]
 8000af6:	2900      	cmp	r1, #0
 8000af8:	f000 80ca 	beq.w	8000c90 <HAL_HCD_IRQHandler+0x2c0>
 8000afc:	f505 65a0 	add.w	r5, r5, #1280	; 0x500
 8000b00:	2600      	movs	r6, #0
 8000b02:	f04f 0902 	mov.w	r9, #2
 8000b06:	e03a      	b.n	8000b7e <HAL_HCD_IRQHandler+0x1ae>
 8000b08:	075b      	lsls	r3, r3, #29
 8000b0a:	f140 80cc 	bpl.w	8000ca6 <HAL_HCD_IRQHandler+0x2d6>
 8000b0e:	2304      	movs	r3, #4
 8000b10:	60bb      	str	r3, [r7, #8]
 8000b12:	68fb      	ldr	r3, [r7, #12]
 8000b14:	f043 0302 	orr.w	r3, r3, #2
 8000b18:	60fb      	str	r3, [r7, #12]
 8000b1a:	68bb      	ldr	r3, [r7, #8]
 8000b1c:	059b      	lsls	r3, r3, #22
 8000b1e:	f100 8100 	bmi.w	8000d22 <HAL_HCD_IRQHandler+0x352>
 8000b22:	68bb      	ldr	r3, [r7, #8]
 8000b24:	07d8      	lsls	r0, r3, #31
 8000b26:	f140 80cc 	bpl.w	8000cc2 <HAL_HCD_IRQHandler+0x2f2>
 8000b2a:	6923      	ldr	r3, [r4, #16]
 8000b2c:	2b00      	cmp	r3, #0
 8000b2e:	f040 8199 	bne.w	8000e64 <HAL_HCD_IRQHandler+0x494>
 8000b32:	ea4f 038a 	mov.w	r3, sl, lsl #2
 8000b36:	eb03 010a 	add.w	r1, r3, sl
 8000b3a:	eb04 01c1 	add.w	r1, r4, r1, lsl #3
 8000b3e:	2000      	movs	r0, #0
 8000b40:	f04f 0c01 	mov.w	ip, #1
 8000b44:	6588      	str	r0, [r1, #88]	; 0x58
 8000b46:	f881 c05d 	strb.w	ip, [r1, #93]	; 0x5d
 8000b4a:	f8c7 c008 	str.w	ip, [r7, #8]
 8000b4e:	f891 003f 	ldrb.w	r0, [r1, #63]	; 0x3f
 8000b52:	f010 0ffd 	tst.w	r0, #253	; 0xfd
 8000b56:	f000 814c 	beq.w	8000df2 <HAL_HCD_IRQHandler+0x422>
 8000b5a:	2803      	cmp	r0, #3
 8000b5c:	f000 8233 	beq.w	8000fc6 <HAL_HCD_IRQHandler+0x5f6>
 8000b60:	4453      	add	r3, sl
 8000b62:	eb04 03c3 	add.w	r3, r4, r3, lsl #3
 8000b66:	f893 2050 	ldrb.w	r2, [r3, #80]	; 0x50
 8000b6a:	f082 0201 	eor.w	r2, r2, #1
 8000b6e:	f883 2050 	strb.w	r2, [r3, #80]	; 0x50
 8000b72:	68a1      	ldr	r1, [r4, #8]
 8000b74:	6820      	ldr	r0, [r4, #0]
 8000b76:	3601      	adds	r6, #1
 8000b78:	428e      	cmp	r6, r1
 8000b7a:	f080 8089 	bcs.w	8000c90 <HAL_HCD_IRQHandler+0x2c0>
 8000b7e:	f006 030f 	and.w	r3, r6, #15
 8000b82:	fa28 f303 	lsr.w	r3, r8, r3
 8000b86:	07da      	lsls	r2, r3, #31
 8000b88:	d5f5      	bpl.n	8000b76 <HAL_HCD_IRQHandler+0x1a6>
 8000b8a:	0173      	lsls	r3, r6, #5
 8000b8c:	fa5f fa86 	uxtb.w	sl, r6
 8000b90:	595b      	ldr	r3, [r3, r5]
 8000b92:	ea4f 1b4a 	mov.w	fp, sl, lsl #5
 8000b96:	f500 62a0 	add.w	r2, r0, #1280	; 0x500
 8000b9a:	eb02 070b 	add.w	r7, r2, fp
 8000b9e:	f413 4f00 	tst.w	r3, #32768	; 0x8000
 8000ba2:	68bb      	ldr	r3, [r7, #8]
 8000ba4:	d1b0      	bne.n	8000b08 <HAL_HCD_IRQHandler+0x138>
 8000ba6:	f013 0304 	ands.w	r3, r3, #4
 8000baa:	f040 8083 	bne.w	8000cb4 <HAL_HCD_IRQHandler+0x2e4>
 8000bae:	f8d7 c008 	ldr.w	ip, [r7, #8]
 8000bb2:	f01c 0c20 	ands.w	ip, ip, #32
 8000bb6:	f000 80c2 	beq.w	8000d3e <HAL_HCD_IRQHandler+0x36e>
 8000bba:	eb0a 028a 	add.w	r2, sl, sl, lsl #2
 8000bbe:	f04f 0c20 	mov.w	ip, #32
 8000bc2:	eb04 02c2 	add.w	r2, r4, r2, lsl #3
 8000bc6:	f8c7 c008 	str.w	ip, [r7, #8]
 8000bca:	f892 c03d 	ldrb.w	ip, [r2, #61]	; 0x3d
 8000bce:	f1bc 0f01 	cmp.w	ip, #1
 8000bd2:	d1d0      	bne.n	8000b76 <HAL_HCD_IRQHandler+0x1a6>
 8000bd4:	f882 303d 	strb.w	r3, [r2, #61]	; 0x3d
 8000bd8:	68fb      	ldr	r3, [r7, #12]
 8000bda:	f882 905c 	strb.w	r9, [r2, #92]	; 0x5c
 8000bde:	f043 0302 	orr.w	r3, r3, #2
 8000be2:	4651      	mov	r1, sl
 8000be4:	60fb      	str	r3, [r7, #12]
 8000be6:	f001 fbc1 	bl	800236c <USB_HC_Halt>
 8000bea:	68a1      	ldr	r1, [r4, #8]
 8000bec:	6820      	ldr	r0, [r4, #0]
 8000bee:	e7c2      	b.n	8000b76 <HAL_HCD_IRQHandler+0x1a6>
 8000bf0:	f8d6 3440 	ldr.w	r3, [r6, #1088]	; 0x440
 8000bf4:	9302      	str	r3, [sp, #8]
 8000bf6:	f8d6 3440 	ldr.w	r3, [r6, #1088]	; 0x440
 8000bfa:	9303      	str	r3, [sp, #12]
 8000bfc:	9b03      	ldr	r3, [sp, #12]
 8000bfe:	f023 032e 	bic.w	r3, r3, #46	; 0x2e
 8000c02:	9303      	str	r3, [sp, #12]
 8000c04:	9b02      	ldr	r3, [sp, #8]
 8000c06:	0798      	lsls	r0, r3, #30
 8000c08:	4637      	mov	r7, r6
 8000c0a:	d507      	bpl.n	8000c1c <HAL_HCD_IRQHandler+0x24c>
 8000c0c:	9b02      	ldr	r3, [sp, #8]
 8000c0e:	07d9      	lsls	r1, r3, #31
 8000c10:	f100 8136 	bmi.w	8000e80 <HAL_HCD_IRQHandler+0x4b0>
 8000c14:	9b03      	ldr	r3, [sp, #12]
 8000c16:	f043 0302 	orr.w	r3, r3, #2
 8000c1a:	9303      	str	r3, [sp, #12]
 8000c1c:	9b02      	ldr	r3, [sp, #8]
 8000c1e:	071a      	lsls	r2, r3, #28
 8000c20:	d518      	bpl.n	8000c54 <HAL_HCD_IRQHandler+0x284>
 8000c22:	9b03      	ldr	r3, [sp, #12]
 8000c24:	f043 0308 	orr.w	r3, r3, #8
 8000c28:	9303      	str	r3, [sp, #12]
 8000c2a:	9b02      	ldr	r3, [sp, #8]
 8000c2c:	075b      	lsls	r3, r3, #29
 8000c2e:	f140 812f 	bpl.w	8000e90 <HAL_HCD_IRQHandler+0x4c0>
 8000c32:	69a1      	ldr	r1, [r4, #24]
 8000c34:	2902      	cmp	r1, #2
 8000c36:	f000 8155 	beq.w	8000ee4 <HAL_HCD_IRQHandler+0x514>
 8000c3a:	68e3      	ldr	r3, [r4, #12]
 8000c3c:	2b01      	cmp	r3, #1
 8000c3e:	bf04      	itt	eq
 8000c40:	f64e 2360 	movweq	r3, #60000	; 0xea60
 8000c44:	f8c6 3404 	streq.w	r3, [r6, #1028]	; 0x404
 8000c48:	4620      	mov	r0, r4
 8000c4a:	f003 f80f 	bl	8003c6c <HAL_HCD_PortEnabled_Callback>
 8000c4e:	4620      	mov	r0, r4
 8000c50:	f003 f802 	bl	8003c58 <HAL_HCD_Connect_Callback>
 8000c54:	6826      	ldr	r6, [r4, #0]
 8000c56:	9b02      	ldr	r3, [sp, #8]
 8000c58:	0698      	lsls	r0, r3, #26
 8000c5a:	d503      	bpl.n	8000c64 <HAL_HCD_IRQHandler+0x294>
 8000c5c:	9b03      	ldr	r3, [sp, #12]
 8000c5e:	f043 0320 	orr.w	r3, r3, #32
 8000c62:	9303      	str	r3, [sp, #12]
 8000c64:	9b03      	ldr	r3, [sp, #12]
 8000c66:	f8c7 3440 	str.w	r3, [r7, #1088]	; 0x440
 8000c6a:	e6f3      	b.n	8000a54 <HAL_HCD_IRQHandler+0x84>
 8000c6c:	f8d5 3440 	ldr.w	r3, [r5, #1088]	; 0x440
 8000c70:	f023 032e 	bic.w	r3, r3, #46	; 0x2e
 8000c74:	f8c5 3440 	str.w	r3, [r5, #1088]	; 0x440
 8000c78:	4620      	mov	r0, r4
 8000c7a:	f002 fff1 	bl	8003c60 <HAL_HCD_Disconnect_Callback>
 8000c7e:	2101      	movs	r1, #1
 8000c80:	6820      	ldr	r0, [r4, #0]
 8000c82:	f001 f987 	bl	8001f94 <USB_InitFSLSPClkSel>
 8000c86:	6820      	ldr	r0, [r4, #0]
 8000c88:	f04f 5300 	mov.w	r3, #536870912	; 0x20000000
 8000c8c:	6143      	str	r3, [r0, #20]
 8000c8e:	e6db      	b.n	8000a48 <HAL_HCD_IRQHandler+0x78>
 8000c90:	f04f 7300 	mov.w	r3, #33554432	; 0x2000000
 8000c94:	6143      	str	r3, [r0, #20]
 8000c96:	e6ea      	b.n	8000a6e <HAL_HCD_IRQHandler+0x9e>
 8000c98:	4620      	mov	r0, r4
 8000c9a:	f002 ffd9 	bl	8003c50 <HAL_HCD_SOF_Callback>
 8000c9e:	6820      	ldr	r0, [r4, #0]
 8000ca0:	2308      	movs	r3, #8
 8000ca2:	6143      	str	r3, [r0, #20]
 8000ca4:	e6dd      	b.n	8000a62 <HAL_HCD_IRQHandler+0x92>
 8000ca6:	68bb      	ldr	r3, [r7, #8]
 8000ca8:	0699      	lsls	r1, r3, #26
 8000caa:	f140 8085 	bpl.w	8000db8 <HAL_HCD_IRQHandler+0x3e8>
 8000cae:	2320      	movs	r3, #32
 8000cb0:	60bb      	str	r3, [r7, #8]
 8000cb2:	e732      	b.n	8000b1a <HAL_HCD_IRQHandler+0x14a>
 8000cb4:	2304      	movs	r3, #4
 8000cb6:	60bb      	str	r3, [r7, #8]
 8000cb8:	68fb      	ldr	r3, [r7, #12]
 8000cba:	f043 0302 	orr.w	r3, r3, #2
 8000cbe:	60fb      	str	r3, [r7, #12]
 8000cc0:	e759      	b.n	8000b76 <HAL_HCD_IRQHandler+0x1a6>
 8000cc2:	68bb      	ldr	r3, [r7, #8]
 8000cc4:	0799      	lsls	r1, r3, #30
 8000cc6:	f140 80a1 	bpl.w	8000e0c <HAL_HCD_IRQHandler+0x43c>
 8000cca:	ea4f 038a 	mov.w	r3, sl, lsl #2
 8000cce:	eb03 000a 	add.w	r0, r3, sl
 8000cd2:	eb04 00c0 	add.w	r0, r4, r0, lsl #3
 8000cd6:	f8d7 c00c 	ldr.w	ip, [r7, #12]
 8000cda:	f890 105d 	ldrb.w	r1, [r0, #93]	; 0x5d
 8000cde:	f02c 0c02 	bic.w	ip, ip, #2
 8000ce2:	2901      	cmp	r1, #1
 8000ce4:	f8c7 c00c 	str.w	ip, [r7, #12]
 8000ce8:	f000 80e1 	beq.w	8000eae <HAL_HCD_IRQHandler+0x4de>
 8000cec:	2905      	cmp	r1, #5
 8000cee:	f000 80de 	beq.w	8000eae <HAL_HCD_IRQHandler+0x4de>
 8000cf2:	2906      	cmp	r1, #6
 8000cf4:	f000 8136 	beq.w	8000f64 <HAL_HCD_IRQHandler+0x594>
 8000cf8:	2908      	cmp	r1, #8
 8000cfa:	f000 8133 	beq.w	8000f64 <HAL_HCD_IRQHandler+0x594>
 8000cfe:	2903      	cmp	r1, #3
 8000d00:	f000 81c0 	beq.w	8001084 <HAL_HCD_IRQHandler+0x6b4>
 8000d04:	2328      	movs	r3, #40	; 0x28
 8000d06:	fb03 430a 	mla	r3, r3, sl, r4
 8000d0a:	f893 105c 	ldrb.w	r1, [r3, #92]	; 0x5c
 8000d0e:	f8c7 9008 	str.w	r9, [r7, #8]
 8000d12:	460a      	mov	r2, r1
 8000d14:	4651      	mov	r1, sl
 8000d16:	4620      	mov	r0, r4
 8000d18:	f002 ffa6 	bl	8003c68 <HAL_HCD_HC_NotifyURBChange_Callback>
 8000d1c:	68a1      	ldr	r1, [r4, #8]
 8000d1e:	6820      	ldr	r0, [r4, #0]
 8000d20:	e729      	b.n	8000b76 <HAL_HCD_IRQHandler+0x1a6>
 8000d22:	68fb      	ldr	r3, [r7, #12]
 8000d24:	6820      	ldr	r0, [r4, #0]
 8000d26:	f043 0302 	orr.w	r3, r3, #2
 8000d2a:	4651      	mov	r1, sl
 8000d2c:	60fb      	str	r3, [r7, #12]
 8000d2e:	f001 fb1d 	bl	800236c <USB_HC_Halt>
 8000d32:	f44f 7300 	mov.w	r3, #512	; 0x200
 8000d36:	60bb      	str	r3, [r7, #8]
 8000d38:	68a1      	ldr	r1, [r4, #8]
 8000d3a:	6820      	ldr	r0, [r4, #0]
 8000d3c:	e71b      	b.n	8000b76 <HAL_HCD_IRQHandler+0x1a6>
 8000d3e:	68bb      	ldr	r3, [r7, #8]
 8000d40:	065b      	lsls	r3, r3, #25
 8000d42:	f100 80da 	bmi.w	8000efa <HAL_HCD_IRQHandler+0x52a>
 8000d46:	68bb      	ldr	r3, [r7, #8]
 8000d48:	f413 7300 	ands.w	r3, r3, #512	; 0x200
 8000d4c:	f040 80f0 	bne.w	8000f30 <HAL_HCD_IRQHandler+0x560>
 8000d50:	f8d7 c008 	ldr.w	ip, [r7, #8]
 8000d54:	f01c 0f01 	tst.w	ip, #1
 8000d58:	f040 8121 	bne.w	8000f9e <HAL_HCD_IRQHandler+0x5ce>
 8000d5c:	68bb      	ldr	r3, [r7, #8]
 8000d5e:	f013 0308 	ands.w	r3, r3, #8
 8000d62:	f040 8168 	bne.w	8001036 <HAL_HCD_IRQHandler+0x666>
 8000d66:	f8d7 c008 	ldr.w	ip, [r7, #8]
 8000d6a:	f01c 0f10 	tst.w	ip, #16
 8000d6e:	f000 813a 	beq.w	8000fe6 <HAL_HCD_IRQHandler+0x616>
 8000d72:	eb0a 028a 	add.w	r2, sl, sl, lsl #2
 8000d76:	eb04 02c2 	add.w	r2, r4, r2, lsl #3
 8000d7a:	2103      	movs	r1, #3
 8000d7c:	6593      	str	r3, [r2, #88]	; 0x58
 8000d7e:	f892 303d 	ldrb.w	r3, [r2, #61]	; 0x3d
 8000d82:	f882 105d 	strb.w	r1, [r2, #93]	; 0x5d
 8000d86:	b943      	cbnz	r3, 8000d9a <HAL_HCD_IRQHandler+0x3ca>
 8000d88:	2328      	movs	r3, #40	; 0x28
 8000d8a:	fb03 430a 	mla	r3, r3, sl, r4
 8000d8e:	f893 203c 	ldrb.w	r2, [r3, #60]	; 0x3c
 8000d92:	b912      	cbnz	r2, 8000d9a <HAL_HCD_IRQHandler+0x3ca>
 8000d94:	2201      	movs	r2, #1
 8000d96:	f883 203d 	strb.w	r2, [r3, #61]	; 0x3d
 8000d9a:	68fb      	ldr	r3, [r7, #12]
 8000d9c:	f043 0302 	orr.w	r3, r3, #2
 8000da0:	4651      	mov	r1, sl
 8000da2:	60fb      	str	r3, [r7, #12]
 8000da4:	f001 fae2 	bl	800236c <USB_HC_Halt>
 8000da8:	2310      	movs	r3, #16
 8000daa:	60bb      	str	r3, [r7, #8]
 8000dac:	68a1      	ldr	r1, [r4, #8]
 8000dae:	6820      	ldr	r0, [r4, #0]
 8000db0:	e6e1      	b.n	8000b76 <HAL_HCD_IRQHandler+0x1a6>
 8000db2:	bf00      	nop
 8000db4:	1ff80000 	.word	0x1ff80000
 8000db8:	68bb      	ldr	r3, [r7, #8]
 8000dba:	071b      	lsls	r3, r3, #28
 8000dbc:	d47a      	bmi.n	8000eb4 <HAL_HCD_IRQHandler+0x4e4>
 8000dbe:	68bb      	ldr	r3, [r7, #8]
 8000dc0:	0559      	lsls	r1, r3, #21
 8000dc2:	f57f aeaa 	bpl.w	8000b1a <HAL_HCD_IRQHandler+0x14a>
 8000dc6:	68fb      	ldr	r3, [r7, #12]
 8000dc8:	9201      	str	r2, [sp, #4]
 8000dca:	f043 0302 	orr.w	r3, r3, #2
 8000dce:	60fb      	str	r3, [r7, #12]
 8000dd0:	4651      	mov	r1, sl
 8000dd2:	f001 facb 	bl	800236c <USB_HC_Halt>
 8000dd6:	eb0a 038a 	add.w	r3, sl, sl, lsl #2
 8000dda:	2110      	movs	r1, #16
 8000ddc:	eb04 03c3 	add.w	r3, r4, r3, lsl #3
 8000de0:	60b9      	str	r1, [r7, #8]
 8000de2:	2008      	movs	r0, #8
 8000de4:	f44f 6180 	mov.w	r1, #1024	; 0x400
 8000de8:	f883 005d 	strb.w	r0, [r3, #93]	; 0x5d
 8000dec:	9a01      	ldr	r2, [sp, #4]
 8000dee:	60b9      	str	r1, [r7, #8]
 8000df0:	e693      	b.n	8000b1a <HAL_HCD_IRQHandler+0x14a>
 8000df2:	68fa      	ldr	r2, [r7, #12]
 8000df4:	6820      	ldr	r0, [r4, #0]
 8000df6:	9301      	str	r3, [sp, #4]
 8000df8:	f042 0202 	orr.w	r2, r2, #2
 8000dfc:	60fa      	str	r2, [r7, #12]
 8000dfe:	4651      	mov	r1, sl
 8000e00:	f001 fab4 	bl	800236c <USB_HC_Halt>
 8000e04:	2210      	movs	r2, #16
 8000e06:	60ba      	str	r2, [r7, #8]
 8000e08:	9b01      	ldr	r3, [sp, #4]
 8000e0a:	e6a9      	b.n	8000b60 <HAL_HCD_IRQHandler+0x190>
 8000e0c:	68bb      	ldr	r3, [r7, #8]
 8000e0e:	6820      	ldr	r0, [r4, #0]
 8000e10:	f013 0380 	ands.w	r3, r3, #128	; 0x80
 8000e14:	f040 808e 	bne.w	8000f34 <HAL_HCD_IRQHandler+0x564>
 8000e18:	68ba      	ldr	r2, [r7, #8]
 8000e1a:	06d2      	lsls	r2, r2, #27
 8000e1c:	f140 8086 	bpl.w	8000f2c <HAL_HCD_IRQHandler+0x55c>
 8000e20:	eb0a 018a 	add.w	r1, sl, sl, lsl #2
 8000e24:	eb04 01c1 	add.w	r1, r4, r1, lsl #3
 8000e28:	f891 203f 	ldrb.w	r2, [r1, #63]	; 0x3f
 8000e2c:	2a03      	cmp	r2, #3
 8000e2e:	f000 811c 	beq.w	800106a <HAL_HCD_IRQHandler+0x69a>
 8000e32:	f012 02fd 	ands.w	r2, r2, #253	; 0xfd
 8000e36:	d111      	bne.n	8000e5c <HAL_HCD_IRQHandler+0x48c>
 8000e38:	6923      	ldr	r3, [r4, #16]
 8000e3a:	658a      	str	r2, [r1, #88]	; 0x58
 8000e3c:	b973      	cbnz	r3, 8000e5c <HAL_HCD_IRQHandler+0x48c>
 8000e3e:	68fb      	ldr	r3, [r7, #12]
 8000e40:	2228      	movs	r2, #40	; 0x28
 8000e42:	fb02 420a 	mla	r2, r2, sl, r4
 8000e46:	f04f 0c03 	mov.w	ip, #3
 8000e4a:	f043 0302 	orr.w	r3, r3, #2
 8000e4e:	f882 c05d 	strb.w	ip, [r2, #93]	; 0x5d
 8000e52:	4651      	mov	r1, sl
 8000e54:	60fb      	str	r3, [r7, #12]
 8000e56:	f001 fa89 	bl	800236c <USB_HC_Halt>
 8000e5a:	6820      	ldr	r0, [r4, #0]
 8000e5c:	68a1      	ldr	r1, [r4, #8]
 8000e5e:	2310      	movs	r3, #16
 8000e60:	60bb      	str	r3, [r7, #8]
 8000e62:	e688      	b.n	8000b76 <HAL_HCD_IRQHandler+0x1a6>
 8000e64:	ea4f 038a 	mov.w	r3, sl, lsl #2
 8000e68:	eb03 010a 	add.w	r1, r3, sl
 8000e6c:	6938      	ldr	r0, [r7, #16]
 8000e6e:	eb04 01c1 	add.w	r1, r4, r1, lsl #3
 8000e72:	f3c0 0c12 	ubfx	ip, r0, #0, #19
 8000e76:	6c88      	ldr	r0, [r1, #72]	; 0x48
 8000e78:	eba0 000c 	sub.w	r0, r0, ip
 8000e7c:	64c8      	str	r0, [r1, #76]	; 0x4c
 8000e7e:	e65a      	b.n	8000b36 <HAL_HCD_IRQHandler+0x166>
 8000e80:	69b3      	ldr	r3, [r6, #24]
 8000e82:	f023 5300 	bic.w	r3, r3, #536870912	; 0x20000000
 8000e86:	61b3      	str	r3, [r6, #24]
 8000e88:	4620      	mov	r0, r4
 8000e8a:	f002 fee5 	bl	8003c58 <HAL_HCD_Connect_Callback>
 8000e8e:	e6c1      	b.n	8000c14 <HAL_HCD_IRQHandler+0x244>
 8000e90:	4620      	mov	r0, r4
 8000e92:	f002 feef 	bl	8003c74 <HAL_HCD_PortDisabled_Callback>
 8000e96:	f8d6 3440 	ldr.w	r3, [r6, #1088]	; 0x440
 8000e9a:	f023 032e 	bic.w	r3, r3, #46	; 0x2e
 8000e9e:	f8c6 3440 	str.w	r3, [r6, #1088]	; 0x440
 8000ea2:	6826      	ldr	r6, [r4, #0]
 8000ea4:	69b3      	ldr	r3, [r6, #24]
 8000ea6:	f043 5300 	orr.w	r3, r3, #536870912	; 0x20000000
 8000eaa:	61b3      	str	r3, [r6, #24]
 8000eac:	e6d3      	b.n	8000c56 <HAL_HCD_IRQHandler+0x286>
 8000eae:	f880 105c 	strb.w	r1, [r0, #92]	; 0x5c
 8000eb2:	e72c      	b.n	8000d0e <HAL_HCD_IRQHandler+0x33e>
 8000eb4:	68fb      	ldr	r3, [r7, #12]
 8000eb6:	9201      	str	r2, [sp, #4]
 8000eb8:	eb0a 018a 	add.w	r1, sl, sl, lsl #2
 8000ebc:	eb04 01c1 	add.w	r1, r4, r1, lsl #3
 8000ec0:	f043 0302 	orr.w	r3, r3, #2
 8000ec4:	60fb      	str	r3, [r7, #12]
 8000ec6:	f04f 0c05 	mov.w	ip, #5
 8000eca:	f04f 0e10 	mov.w	lr, #16
 8000ece:	2308      	movs	r3, #8
 8000ed0:	f881 c05d 	strb.w	ip, [r1, #93]	; 0x5d
 8000ed4:	f8c7 e008 	str.w	lr, [r7, #8]
 8000ed8:	4651      	mov	r1, sl
 8000eda:	60bb      	str	r3, [r7, #8]
 8000edc:	f001 fa46 	bl	800236c <USB_HC_Halt>
 8000ee0:	9a01      	ldr	r2, [sp, #4]
 8000ee2:	e61a      	b.n	8000b1a <HAL_HCD_IRQHandler+0x14a>
 8000ee4:	9b02      	ldr	r3, [sp, #8]
 8000ee6:	6820      	ldr	r0, [r4, #0]
 8000ee8:	f403 23c0 	and.w	r3, r3, #393216	; 0x60000
 8000eec:	f5b3 2f80 	cmp.w	r3, #262144	; 0x40000
 8000ef0:	bf18      	it	ne
 8000ef2:	2101      	movne	r1, #1
 8000ef4:	f001 f84e 	bl	8001f94 <USB_InitFSLSPClkSel>
 8000ef8:	e6a6      	b.n	8000c48 <HAL_HCD_IRQHandler+0x278>
 8000efa:	eb0a 038a 	add.w	r3, sl, sl, lsl #2
 8000efe:	eb04 03c3 	add.w	r3, r4, r3, lsl #3
 8000f02:	2201      	movs	r2, #1
 8000f04:	f883 203d 	strb.w	r2, [r3, #61]	; 0x3d
 8000f08:	68fa      	ldr	r2, [r7, #12]
 8000f0a:	f8c3 c058 	str.w	ip, [r3, #88]	; 0x58
 8000f0e:	f042 0202 	orr.w	r2, r2, #2
 8000f12:	f04f 0c04 	mov.w	ip, #4
 8000f16:	f883 c05d 	strb.w	ip, [r3, #93]	; 0x5d
 8000f1a:	4651      	mov	r1, sl
 8000f1c:	60fa      	str	r2, [r7, #12]
 8000f1e:	f001 fa25 	bl	800236c <USB_HC_Halt>
 8000f22:	2340      	movs	r3, #64	; 0x40
 8000f24:	60bb      	str	r3, [r7, #8]
 8000f26:	68a1      	ldr	r1, [r4, #8]
 8000f28:	6820      	ldr	r0, [r4, #0]
 8000f2a:	e624      	b.n	8000b76 <HAL_HCD_IRQHandler+0x1a6>
 8000f2c:	68a1      	ldr	r1, [r4, #8]
 8000f2e:	e622      	b.n	8000b76 <HAL_HCD_IRQHandler+0x1a6>
 8000f30:	68fb      	ldr	r3, [r7, #12]
 8000f32:	e6f8      	b.n	8000d26 <HAL_HCD_IRQHandler+0x356>
 8000f34:	eb0a 038a 	add.w	r3, sl, sl, lsl #2
 8000f38:	eb04 03c3 	add.w	r3, r4, r3, lsl #3
 8000f3c:	68f9      	ldr	r1, [r7, #12]
 8000f3e:	6d9a      	ldr	r2, [r3, #88]	; 0x58
 8000f40:	f041 0c02 	orr.w	ip, r1, #2
 8000f44:	3201      	adds	r2, #1
 8000f46:	f04f 0e06 	mov.w	lr, #6
 8000f4a:	f8c7 c00c 	str.w	ip, [r7, #12]
 8000f4e:	4651      	mov	r1, sl
 8000f50:	659a      	str	r2, [r3, #88]	; 0x58
 8000f52:	f883 e05d 	strb.w	lr, [r3, #93]	; 0x5d
 8000f56:	f001 fa09 	bl	800236c <USB_HC_Halt>
 8000f5a:	2380      	movs	r3, #128	; 0x80
 8000f5c:	60bb      	str	r3, [r7, #8]
 8000f5e:	68a1      	ldr	r1, [r4, #8]
 8000f60:	6820      	ldr	r0, [r4, #0]
 8000f62:	e608      	b.n	8000b76 <HAL_HCD_IRQHandler+0x1a6>
 8000f64:	eb03 010a 	add.w	r1, r3, sl
 8000f68:	eb04 01c1 	add.w	r1, r4, r1, lsl #3
 8000f6c:	6d88      	ldr	r0, [r1, #88]	; 0x58
 8000f6e:	3001      	adds	r0, #1
 8000f70:	2803      	cmp	r0, #3
 8000f72:	d873      	bhi.n	800105c <HAL_HCD_IRQHandler+0x68c>
 8000f74:	f04f 0c28 	mov.w	ip, #40	; 0x28
 8000f78:	fb0c 4c0a 	mla	ip, ip, sl, r4
 8000f7c:	2102      	movs	r1, #2
 8000f7e:	f8cc 0058 	str.w	r0, [ip, #88]	; 0x58
 8000f82:	f852 000b 	ldr.w	r0, [r2, fp]
 8000f86:	4453      	add	r3, sl
 8000f88:	eb04 03c3 	add.w	r3, r4, r3, lsl #3
 8000f8c:	f020 4080 	bic.w	r0, r0, #1073741824	; 0x40000000
 8000f90:	f040 4000 	orr.w	r0, r0, #2147483648	; 0x80000000
 8000f94:	f883 105c 	strb.w	r1, [r3, #92]	; 0x5c
 8000f98:	f842 000b 	str.w	r0, [r2, fp]
 8000f9c:	e6b7      	b.n	8000d0e <HAL_HCD_IRQHandler+0x33e>
 8000f9e:	68fa      	ldr	r2, [r7, #12]
 8000fa0:	eb0a 0b8a 	add.w	fp, sl, sl, lsl #2
 8000fa4:	eb04 0bcb 	add.w	fp, r4, fp, lsl #3
 8000fa8:	f042 0202 	orr.w	r2, r2, #2
 8000fac:	f8cb 3058 	str.w	r3, [fp, #88]	; 0x58
 8000fb0:	4651      	mov	r1, sl
 8000fb2:	60fa      	str	r2, [r7, #12]
 8000fb4:	f001 f9da 	bl	800236c <USB_HC_Halt>
 8000fb8:	2301      	movs	r3, #1
 8000fba:	60bb      	str	r3, [r7, #8]
 8000fbc:	68a1      	ldr	r1, [r4, #8]
 8000fbe:	6820      	ldr	r0, [r4, #0]
 8000fc0:	f88b 305d 	strb.w	r3, [fp, #93]	; 0x5d
 8000fc4:	e5d7      	b.n	8000b76 <HAL_HCD_IRQHandler+0x1a6>
 8000fc6:	f852 000b 	ldr.w	r0, [r2, fp]
 8000fca:	9301      	str	r3, [sp, #4]
 8000fcc:	f040 5000 	orr.w	r0, r0, #536870912	; 0x20000000
 8000fd0:	f842 000b 	str.w	r0, [r2, fp]
 8000fd4:	f881 c05c 	strb.w	ip, [r1, #92]	; 0x5c
 8000fd8:	4662      	mov	r2, ip
 8000fda:	4651      	mov	r1, sl
 8000fdc:	4620      	mov	r0, r4
 8000fde:	f002 fe43 	bl	8003c68 <HAL_HCD_HC_NotifyURBChange_Callback>
 8000fe2:	9b01      	ldr	r3, [sp, #4]
 8000fe4:	e5bc      	b.n	8000b60 <HAL_HCD_IRQHandler+0x190>
 8000fe6:	68bb      	ldr	r3, [r7, #8]
 8000fe8:	061b      	lsls	r3, r3, #24
 8000fea:	d45a      	bmi.n	80010a2 <HAL_HCD_IRQHandler+0x6d2>
 8000fec:	68bb      	ldr	r3, [r7, #8]
 8000fee:	055b      	lsls	r3, r3, #21
 8000ff0:	d469      	bmi.n	80010c6 <HAL_HCD_IRQHandler+0x6f6>
 8000ff2:	68bb      	ldr	r3, [r7, #8]
 8000ff4:	079b      	lsls	r3, r3, #30
 8000ff6:	f57f adbe 	bpl.w	8000b76 <HAL_HCD_IRQHandler+0x1a6>
 8000ffa:	2128      	movs	r1, #40	; 0x28
 8000ffc:	fb01 410a 	mla	r1, r1, sl, r4
 8001000:	68f8      	ldr	r0, [r7, #12]
 8001002:	f891 305d 	ldrb.w	r3, [r1, #93]	; 0x5d
 8001006:	f020 0002 	bic.w	r0, r0, #2
 800100a:	2b01      	cmp	r3, #1
 800100c:	60f8      	str	r0, [r7, #12]
 800100e:	d072      	beq.n	80010f6 <HAL_HCD_IRQHandler+0x726>
 8001010:	2b03      	cmp	r3, #3
 8001012:	d06d      	beq.n	80010f0 <HAL_HCD_IRQHandler+0x720>
 8001014:	2b04      	cmp	r3, #4
 8001016:	d06b      	beq.n	80010f0 <HAL_HCD_IRQHandler+0x720>
 8001018:	2b05      	cmp	r3, #5
 800101a:	f000 8096 	beq.w	800114a <HAL_HCD_IRQHandler+0x77a>
 800101e:	2b06      	cmp	r3, #6
 8001020:	d077      	beq.n	8001112 <HAL_HCD_IRQHandler+0x742>
 8001022:	2b08      	cmp	r3, #8
 8001024:	d075      	beq.n	8001112 <HAL_HCD_IRQHandler+0x742>
 8001026:	2328      	movs	r3, #40	; 0x28
 8001028:	fb03 430a 	mla	r3, r3, sl, r4
 800102c:	f8c7 9008 	str.w	r9, [r7, #8]
 8001030:	f893 205c 	ldrb.w	r2, [r3, #92]	; 0x5c
 8001034:	e66e      	b.n	8000d14 <HAL_HCD_IRQHandler+0x344>
 8001036:	2308      	movs	r3, #8
 8001038:	60bb      	str	r3, [r7, #8]
 800103a:	68fb      	ldr	r3, [r7, #12]
 800103c:	f043 0302 	orr.w	r3, r3, #2
 8001040:	4651      	mov	r1, sl
 8001042:	60fb      	str	r3, [r7, #12]
 8001044:	eb0a 0a8a 	add.w	sl, sl, sl, lsl #2
 8001048:	f001 f990 	bl	800236c <USB_HC_Halt>
 800104c:	eb04 03ca 	add.w	r3, r4, sl, lsl #3
 8001050:	2205      	movs	r2, #5
 8001052:	f883 205d 	strb.w	r2, [r3, #93]	; 0x5d
 8001056:	68a1      	ldr	r1, [r4, #8]
 8001058:	6820      	ldr	r0, [r4, #0]
 800105a:	e58c      	b.n	8000b76 <HAL_HCD_IRQHandler+0x1a6>
 800105c:	2128      	movs	r1, #40	; 0x28
 800105e:	fb01 410a 	mla	r1, r1, sl, r4
 8001062:	2000      	movs	r0, #0
 8001064:	6588      	str	r0, [r1, #88]	; 0x58
 8001066:	2104      	movs	r1, #4
 8001068:	e78b      	b.n	8000f82 <HAL_HCD_IRQHandler+0x5b2>
 800106a:	68fa      	ldr	r2, [r7, #12]
 800106c:	2128      	movs	r1, #40	; 0x28
 800106e:	fb01 410a 	mla	r1, r1, sl, r4
 8001072:	f042 0202 	orr.w	r2, r2, #2
 8001076:	658b      	str	r3, [r1, #88]	; 0x58
 8001078:	4651      	mov	r1, sl
 800107a:	60fa      	str	r2, [r7, #12]
 800107c:	f001 f976 	bl	800236c <USB_HC_Halt>
 8001080:	6820      	ldr	r0, [r4, #0]
 8001082:	e6eb      	b.n	8000e5c <HAL_HCD_IRQHandler+0x48c>
 8001084:	f852 300b 	ldr.w	r3, [r2, fp]
 8001088:	2128      	movs	r1, #40	; 0x28
 800108a:	fb01 410a 	mla	r1, r1, sl, r4
 800108e:	f023 4380 	bic.w	r3, r3, #1073741824	; 0x40000000
 8001092:	f043 4300 	orr.w	r3, r3, #2147483648	; 0x80000000
 8001096:	f881 905c 	strb.w	r9, [r1, #92]	; 0x5c
 800109a:	f842 300b 	str.w	r3, [r2, fp]
 800109e:	2102      	movs	r1, #2
 80010a0:	e635      	b.n	8000d0e <HAL_HCD_IRQHandler+0x33e>
 80010a2:	68fb      	ldr	r3, [r7, #12]
 80010a4:	f043 0302 	orr.w	r3, r3, #2
 80010a8:	4651      	mov	r1, sl
 80010aa:	60fb      	str	r3, [r7, #12]
 80010ac:	f001 f95e 	bl	800236c <USB_HC_Halt>
 80010b0:	2328      	movs	r3, #40	; 0x28
 80010b2:	fb03 4a0a 	mla	sl, r3, sl, r4
 80010b6:	2206      	movs	r2, #6
 80010b8:	2380      	movs	r3, #128	; 0x80
 80010ba:	f88a 205d 	strb.w	r2, [sl, #93]	; 0x5d
 80010be:	68a1      	ldr	r1, [r4, #8]
 80010c0:	6820      	ldr	r0, [r4, #0]
 80010c2:	60bb      	str	r3, [r7, #8]
 80010c4:	e557      	b.n	8000b76 <HAL_HCD_IRQHandler+0x1a6>
 80010c6:	68fb      	ldr	r3, [r7, #12]
 80010c8:	f043 0302 	orr.w	r3, r3, #2
 80010cc:	4651      	mov	r1, sl
 80010ce:	60fb      	str	r3, [r7, #12]
 80010d0:	f001 f94c 	bl	800236c <USB_HC_Halt>
 80010d4:	2328      	movs	r3, #40	; 0x28
 80010d6:	fb03 4a0a 	mla	sl, r3, sl, r4
 80010da:	2110      	movs	r1, #16
 80010dc:	f44f 6280 	mov.w	r2, #1024	; 0x400
 80010e0:	2308      	movs	r3, #8
 80010e2:	60b9      	str	r1, [r7, #8]
 80010e4:	6820      	ldr	r0, [r4, #0]
 80010e6:	60ba      	str	r2, [r7, #8]
 80010e8:	68a1      	ldr	r1, [r4, #8]
 80010ea:	f88a 305d 	strb.w	r3, [sl, #93]	; 0x5d
 80010ee:	e542      	b.n	8000b76 <HAL_HCD_IRQHandler+0x1a6>
 80010f0:	f881 905c 	strb.w	r9, [r1, #92]	; 0x5c
 80010f4:	e797      	b.n	8001026 <HAL_HCD_IRQHandler+0x656>
 80010f6:	f891 203f 	ldrb.w	r2, [r1, #63]	; 0x3f
 80010fa:	f881 305c 	strb.w	r3, [r1, #92]	; 0x5c
 80010fe:	1e93      	subs	r3, r2, #2
 8001100:	2b01      	cmp	r3, #1
 8001102:	d890      	bhi.n	8001026 <HAL_HCD_IRQHandler+0x656>
 8001104:	f891 3051 	ldrb.w	r3, [r1, #81]	; 0x51
 8001108:	f083 0301 	eor.w	r3, r3, #1
 800110c:	f881 3051 	strb.w	r3, [r1, #81]	; 0x51
 8001110:	e789      	b.n	8001026 <HAL_HCD_IRQHandler+0x656>
 8001112:	2328      	movs	r3, #40	; 0x28
 8001114:	fb03 430a 	mla	r3, r3, sl, r4
 8001118:	6d99      	ldr	r1, [r3, #88]	; 0x58
 800111a:	3101      	adds	r1, #1
 800111c:	2903      	cmp	r1, #3
 800111e:	6599      	str	r1, [r3, #88]	; 0x58
 8001120:	bf84      	itt	hi
 8001122:	2100      	movhi	r1, #0
 8001124:	6599      	strhi	r1, [r3, #88]	; 0x58
 8001126:	f852 300b 	ldr.w	r3, [r2, fp]
 800112a:	f04f 0128 	mov.w	r1, #40	; 0x28
 800112e:	f023 4380 	bic.w	r3, r3, #1073741824	; 0x40000000
 8001132:	fb01 410a 	mla	r1, r1, sl, r4
 8001136:	bf8c      	ite	hi
 8001138:	2004      	movhi	r0, #4
 800113a:	2002      	movls	r0, #2
 800113c:	f043 4300 	orr.w	r3, r3, #2147483648	; 0x80000000
 8001140:	f881 005c 	strb.w	r0, [r1, #92]	; 0x5c
 8001144:	f842 300b 	str.w	r3, [r2, fp]
 8001148:	e76d      	b.n	8001026 <HAL_HCD_IRQHandler+0x656>
 800114a:	f881 305c 	strb.w	r3, [r1, #92]	; 0x5c
 800114e:	e76a      	b.n	8001026 <HAL_HCD_IRQHandler+0x656>

08001150 <HAL_HCD_Start>:
 8001150:	b538      	push	{r3, r4, r5, lr}
 8001152:	f890 32b8 	ldrb.w	r3, [r0, #696]	; 0x2b8
 8001156:	2b01      	cmp	r3, #1
 8001158:	d00e      	beq.n	8001178 <HAL_HCD_Start+0x28>
 800115a:	4604      	mov	r4, r0
 800115c:	2501      	movs	r5, #1
 800115e:	f880 52b8 	strb.w	r5, [r0, #696]	; 0x2b8
 8001162:	6800      	ldr	r0, [r0, #0]
 8001164:	f000 fef2 	bl	8001f4c <USB_EnableGlobalInt>
 8001168:	4629      	mov	r1, r5
 800116a:	6820      	ldr	r0, [r4, #0]
 800116c:	f000 ff50 	bl	8002010 <USB_DriveVbus>
 8001170:	2000      	movs	r0, #0
 8001172:	f884 02b8 	strb.w	r0, [r4, #696]	; 0x2b8
 8001176:	bd38      	pop	{r3, r4, r5, pc}
 8001178:	2002      	movs	r0, #2
 800117a:	bd38      	pop	{r3, r4, r5, pc}

0800117c <HAL_HCD_Stop>:
 800117c:	f890 32b8 	ldrb.w	r3, [r0, #696]	; 0x2b8
 8001180:	2b01      	cmp	r3, #1
 8001182:	d00b      	beq.n	800119c <HAL_HCD_Stop+0x20>
 8001184:	b510      	push	{r4, lr}
 8001186:	2301      	movs	r3, #1
 8001188:	4604      	mov	r4, r0
 800118a:	f880 32b8 	strb.w	r3, [r0, #696]	; 0x2b8
 800118e:	6800      	ldr	r0, [r0, #0]
 8001190:	f001 f94a 	bl	8002428 <USB_StopHost>
 8001194:	2000      	movs	r0, #0
 8001196:	f884 02b8 	strb.w	r0, [r4, #696]	; 0x2b8
 800119a:	bd10      	pop	{r4, pc}
 800119c:	2002      	movs	r0, #2
 800119e:	4770      	bx	lr

080011a0 <HAL_HCD_ResetPort>:
 80011a0:	6800      	ldr	r0, [r0, #0]
 80011a2:	f000 bf15 	b.w	8001fd0 <USB_ResetPort>
 80011a6:	bf00      	nop

080011a8 <HAL_HCD_HC_GetURBState>:
 80011a8:	eb01 0181 	add.w	r1, r1, r1, lsl #2
 80011ac:	eb00 01c1 	add.w	r1, r0, r1, lsl #3
 80011b0:	f891 005c 	ldrb.w	r0, [r1, #92]	; 0x5c
 80011b4:	4770      	bx	lr
 80011b6:	bf00      	nop

080011b8 <HAL_HCD_GetCurrentSpeed>:
 80011b8:	6800      	ldr	r0, [r0, #0]
 80011ba:	f000 bf4d 	b.w	8002058 <USB_GetHostSpeed>
 80011be:	bf00      	nop

080011c0 <HAL_I2C_Init>:
 80011c0:	2800      	cmp	r0, #0
 80011c2:	f000 8097 	beq.w	80012f4 <HAL_I2C_Init+0x134>
 80011c6:	b5f8      	push	{r3, r4, r5, r6, r7, lr}
 80011c8:	f890 303d 	ldrb.w	r3, [r0, #61]	; 0x3d
 80011cc:	4604      	mov	r4, r0
 80011ce:	f003 02ff 	and.w	r2, r3, #255	; 0xff
 80011d2:	2b00      	cmp	r3, #0
 80011d4:	f000 8087 	beq.w	80012e6 <HAL_I2C_Init+0x126>
 80011d8:	6822      	ldr	r2, [r4, #0]
 80011da:	2324      	movs	r3, #36	; 0x24
 80011dc:	f884 303d 	strb.w	r3, [r4, #61]	; 0x3d
 80011e0:	6813      	ldr	r3, [r2, #0]
 80011e2:	f023 0301 	bic.w	r3, r3, #1
 80011e6:	6013      	str	r3, [r2, #0]
 80011e8:	f000 fd90 	bl	8001d0c <HAL_RCC_GetPCLK1Freq>
 80011ec:	6861      	ldr	r1, [r4, #4]
 80011ee:	4b4b      	ldr	r3, [pc, #300]	; (800131c <HAL_I2C_Init+0x15c>)
 80011f0:	4299      	cmp	r1, r3
 80011f2:	d84b      	bhi.n	800128c <HAL_I2C_Init+0xcc>
 80011f4:	4b4a      	ldr	r3, [pc, #296]	; (8001320 <HAL_I2C_Init+0x160>)
 80011f6:	4298      	cmp	r0, r3
 80011f8:	d97a      	bls.n	80012f0 <HAL_I2C_Init+0x130>
 80011fa:	6822      	ldr	r2, [r4, #0]
 80011fc:	4b49      	ldr	r3, [pc, #292]	; (8001324 <HAL_I2C_Init+0x164>)
 80011fe:	6855      	ldr	r5, [r2, #4]
 8001200:	fba3 6300 	umull	r6, r3, r3, r0
 8001204:	0c9b      	lsrs	r3, r3, #18
 8001206:	f025 053f 	bic.w	r5, r5, #63	; 0x3f
 800120a:	431d      	orrs	r5, r3
 800120c:	6055      	str	r5, [r2, #4]
 800120e:	6a15      	ldr	r5, [r2, #32]
 8001210:	3301      	adds	r3, #1
 8001212:	f025 053f 	bic.w	r5, r5, #63	; 0x3f
 8001216:	432b      	orrs	r3, r5
 8001218:	6213      	str	r3, [r2, #32]
 800121a:	69d5      	ldr	r5, [r2, #28]
 800121c:	0049      	lsls	r1, r1, #1
 800121e:	1e43      	subs	r3, r0, #1
 8001220:	fbb3 f3f1 	udiv	r3, r3, r1
 8001224:	3301      	adds	r3, #1
 8001226:	f3c3 030b 	ubfx	r3, r3, #0, #12
 800122a:	f425 454f 	bic.w	r5, r5, #52992	; 0xcf00
 800122e:	2b04      	cmp	r3, #4
 8001230:	bf38      	it	cc
 8001232:	2304      	movcc	r3, #4
 8001234:	f025 05ff 	bic.w	r5, r5, #255	; 0xff
 8001238:	432b      	orrs	r3, r5
 800123a:	61d3      	str	r3, [r2, #28]
 800123c:	e9d4 3507 	ldrd	r3, r5, [r4, #28]
 8001240:	6810      	ldr	r0, [r2, #0]
 8001242:	6921      	ldr	r1, [r4, #16]
 8001244:	f020 00c0 	bic.w	r0, r0, #192	; 0xc0
 8001248:	432b      	orrs	r3, r5
 800124a:	4303      	orrs	r3, r0
 800124c:	6013      	str	r3, [r2, #0]
 800124e:	6890      	ldr	r0, [r2, #8]
 8001250:	68e5      	ldr	r5, [r4, #12]
 8001252:	6963      	ldr	r3, [r4, #20]
 8001254:	f420 4003 	bic.w	r0, r0, #33536	; 0x8300
 8001258:	f020 00ff 	bic.w	r0, r0, #255	; 0xff
 800125c:	4329      	orrs	r1, r5
 800125e:	4301      	orrs	r1, r0
 8001260:	6091      	str	r1, [r2, #8]
 8001262:	68d1      	ldr	r1, [r2, #12]
 8001264:	69a0      	ldr	r0, [r4, #24]
 8001266:	f021 01ff 	bic.w	r1, r1, #255	; 0xff
 800126a:	4303      	orrs	r3, r0
 800126c:	430b      	orrs	r3, r1
 800126e:	60d3      	str	r3, [r2, #12]
 8001270:	6811      	ldr	r1, [r2, #0]
 8001272:	2300      	movs	r3, #0
 8001274:	f041 0101 	orr.w	r1, r1, #1
 8001278:	2520      	movs	r5, #32
 800127a:	6011      	str	r1, [r2, #0]
 800127c:	4618      	mov	r0, r3
 800127e:	6423      	str	r3, [r4, #64]	; 0x40
 8001280:	f884 503d 	strb.w	r5, [r4, #61]	; 0x3d
 8001284:	6323      	str	r3, [r4, #48]	; 0x30
 8001286:	f884 303e 	strb.w	r3, [r4, #62]	; 0x3e
 800128a:	bdf8      	pop	{r3, r4, r5, r6, r7, pc}
 800128c:	4b26      	ldr	r3, [pc, #152]	; (8001328 <HAL_I2C_Init+0x168>)
 800128e:	4298      	cmp	r0, r3
 8001290:	d92e      	bls.n	80012f0 <HAL_I2C_Init+0x130>
 8001292:	6822      	ldr	r2, [r4, #0]
 8001294:	4b23      	ldr	r3, [pc, #140]	; (8001324 <HAL_I2C_Init+0x164>)
 8001296:	6856      	ldr	r6, [r2, #4]
 8001298:	4f24      	ldr	r7, [pc, #144]	; (800132c <HAL_I2C_Init+0x16c>)
 800129a:	fba3 5300 	umull	r5, r3, r3, r0
 800129e:	0c9d      	lsrs	r5, r3, #18
 80012a0:	f026 063f 	bic.w	r6, r6, #63	; 0x3f
 80012a4:	432e      	orrs	r6, r5
 80012a6:	f44f 7396 	mov.w	r3, #300	; 0x12c
 80012aa:	6056      	str	r6, [r2, #4]
 80012ac:	fb03 f305 	mul.w	r3, r3, r5
 80012b0:	fba7 5303 	umull	r5, r3, r7, r3
 80012b4:	6a15      	ldr	r5, [r2, #32]
 80012b6:	68a6      	ldr	r6, [r4, #8]
 80012b8:	099b      	lsrs	r3, r3, #6
 80012ba:	f025 053f 	bic.w	r5, r5, #63	; 0x3f
 80012be:	3301      	adds	r3, #1
 80012c0:	432b      	orrs	r3, r5
 80012c2:	6213      	str	r3, [r2, #32]
 80012c4:	69d5      	ldr	r5, [r2, #28]
 80012c6:	f425 454f 	bic.w	r5, r5, #52992	; 0xcf00
 80012ca:	3801      	subs	r0, #1
 80012cc:	f025 05ff 	bic.w	r5, r5, #255	; 0xff
 80012d0:	b996      	cbnz	r6, 80012f8 <HAL_I2C_Init+0x138>
 80012d2:	eb01 0141 	add.w	r1, r1, r1, lsl #1
 80012d6:	fbb0 f0f1 	udiv	r0, r0, r1
 80012da:	3001      	adds	r0, #1
 80012dc:	f3c0 000b 	ubfx	r0, r0, #0, #12
 80012e0:	b9c0      	cbnz	r0, 8001314 <HAL_I2C_Init+0x154>
 80012e2:	2301      	movs	r3, #1
 80012e4:	e7a8      	b.n	8001238 <HAL_I2C_Init+0x78>
 80012e6:	f880 203c 	strb.w	r2, [r0, #60]	; 0x3c
 80012ea:	f002 fbb3 	bl	8003a54 <HAL_I2C_MspInit>
 80012ee:	e773      	b.n	80011d8 <HAL_I2C_Init+0x18>
 80012f0:	2001      	movs	r0, #1
 80012f2:	bdf8      	pop	{r3, r4, r5, r6, r7, pc}
 80012f4:	2001      	movs	r0, #1
 80012f6:	4770      	bx	lr
 80012f8:	eb01 0181 	add.w	r1, r1, r1, lsl #2
 80012fc:	eb01 0181 	add.w	r1, r1, r1, lsl #2
 8001300:	fbb0 f0f1 	udiv	r0, r0, r1
 8001304:	3001      	adds	r0, #1
 8001306:	f3c0 000b 	ubfx	r0, r0, #0, #12
 800130a:	2800      	cmp	r0, #0
 800130c:	d0e9      	beq.n	80012e2 <HAL_I2C_Init+0x122>
 800130e:	f440 4340 	orr.w	r3, r0, #49152	; 0xc000
 8001312:	e791      	b.n	8001238 <HAL_I2C_Init+0x78>
 8001314:	f440 4300 	orr.w	r3, r0, #32768	; 0x8000
 8001318:	e78e      	b.n	8001238 <HAL_I2C_Init+0x78>
 800131a:	bf00      	nop
 800131c:	000186a0 	.word	0x000186a0
 8001320:	001e847f 	.word	0x001e847f
 8001324:	431bde83 	.word	0x431bde83
 8001328:	003d08ff 	.word	0x003d08ff
 800132c:	10624dd3 	.word	0x10624dd3

08001330 <HAL_I2S_Init>:
 8001330:	2800      	cmp	r0, #0
 8001332:	f000 8087 	beq.w	8001444 <HAL_I2S_Init+0x114>
 8001336:	b5f8      	push	{r3, r4, r5, r6, r7, lr}
 8001338:	f890 3041 	ldrb.w	r3, [r0, #65]	; 0x41
 800133c:	4604      	mov	r4, r0
 800133e:	f003 02ff 	and.w	r2, r3, #255	; 0xff
 8001342:	2b00      	cmp	r3, #0
 8001344:	d077      	beq.n	8001436 <HAL_I2S_Init+0x106>
 8001346:	2202      	movs	r2, #2
 8001348:	6821      	ldr	r1, [r4, #0]
 800134a:	f884 2041 	strb.w	r2, [r4, #65]	; 0x41
 800134e:	69c8      	ldr	r0, [r1, #28]
 8001350:	6963      	ldr	r3, [r4, #20]
 8001352:	68e5      	ldr	r5, [r4, #12]
 8001354:	f420 607b 	bic.w	r0, r0, #4016	; 0xfb0
 8001358:	f020 000f 	bic.w	r0, r0, #15
 800135c:	4293      	cmp	r3, r2
 800135e:	61c8      	str	r0, [r1, #28]
 8001360:	620a      	str	r2, [r1, #32]
 8001362:	d029      	beq.n	80013b8 <HAL_I2S_Init+0x88>
 8001364:	2d00      	cmp	r5, #0
 8001366:	68a2      	ldr	r2, [r4, #8]
 8001368:	bf0b      	itete	eq
 800136a:	2520      	moveq	r5, #32
 800136c:	2540      	movne	r5, #64	; 0x40
 800136e:	2310      	moveq	r3, #16
 8001370:	2320      	movne	r3, #32
 8001372:	2001      	movs	r0, #1
 8001374:	2a20      	cmp	r2, #32
 8001376:	bf88      	it	hi
 8001378:	461d      	movhi	r5, r3
 800137a:	f000 fd77 	bl	8001e6c <HAL_RCCEx_GetPeriphCLKFreq>
 800137e:	6922      	ldr	r2, [r4, #16]
 8001380:	f5b2 7f00 	cmp.w	r2, #512	; 0x200
 8001384:	d060      	beq.n	8001448 <HAL_I2S_Init+0x118>
 8001386:	fbb0 f0f5 	udiv	r0, r0, r5
 800138a:	eb00 0080 	add.w	r0, r0, r0, lsl #2
 800138e:	0043      	lsls	r3, r0, #1
 8001390:	6960      	ldr	r0, [r4, #20]
 8001392:	fbb3 f3f0 	udiv	r3, r3, r0
 8001396:	3305      	adds	r3, #5
 8001398:	4935      	ldr	r1, [pc, #212]	; (8001470 <HAL_I2S_Init+0x140>)
 800139a:	fba1 1303 	umull	r1, r3, r1, r3
 800139e:	08db      	lsrs	r3, r3, #3
 80013a0:	0859      	lsrs	r1, r3, #1
 80013a2:	1e88      	subs	r0, r1, #2
 80013a4:	28fd      	cmp	r0, #253	; 0xfd
 80013a6:	f003 0301 	and.w	r3, r3, #1
 80013aa:	d95a      	bls.n	8001462 <HAL_I2S_Init+0x132>
 80013ac:	6c63      	ldr	r3, [r4, #68]	; 0x44
 80013ae:	f043 0310 	orr.w	r3, r3, #16
 80013b2:	6463      	str	r3, [r4, #68]	; 0x44
 80013b4:	2001      	movs	r0, #1
 80013b6:	bdf8      	pop	{r3, r4, r5, r6, r7, pc}
 80013b8:	6922      	ldr	r2, [r4, #16]
 80013ba:	69a7      	ldr	r7, [r4, #24]
 80013bc:	f8d4 e020 	ldr.w	lr, [r4, #32]
 80013c0:	f8df c0c0 	ldr.w	ip, [pc, #192]	; 8001484 <HAL_I2S_Init+0x154>
 80013c4:	e9d4 6001 	ldrd	r6, r0, [r4, #4]
 80013c8:	4313      	orrs	r3, r2
 80013ca:	620b      	str	r3, [r1, #32]
 80013cc:	ea46 0300 	orr.w	r3, r6, r0
 80013d0:	69ca      	ldr	r2, [r1, #28]
 80013d2:	f443 6300 	orr.w	r3, r3, #2048	; 0x800
 80013d6:	433b      	orrs	r3, r7
 80013d8:	432b      	orrs	r3, r5
 80013da:	ea02 020c 	and.w	r2, r2, ip
 80013de:	4313      	orrs	r3, r2
 80013e0:	f1be 0f01 	cmp.w	lr, #1
 80013e4:	61cb      	str	r3, [r1, #28]
 80013e6:	d120      	bne.n	800142a <HAL_I2S_Init+0xfa>
 80013e8:	4a22      	ldr	r2, [pc, #136]	; (8001474 <HAL_I2S_Init+0x144>)
 80013ea:	4b23      	ldr	r3, [pc, #140]	; (8001478 <HAL_I2S_Init+0x148>)
 80013ec:	4291      	cmp	r1, r2
 80013ee:	bf0c      	ite	eq
 80013f0:	4619      	moveq	r1, r3
 80013f2:	f04f 2140 	movne.w	r1, #1073758208	; 0x40004000
 80013f6:	4b21      	ldr	r3, [pc, #132]	; (800147c <HAL_I2S_Init+0x14c>)
 80013f8:	69ca      	ldr	r2, [r1, #28]
 80013fa:	6363      	str	r3, [r4, #52]	; 0x34
 80013fc:	ea02 020c 	and.w	r2, r2, ip
 8001400:	f04f 0c02 	mov.w	ip, #2
 8001404:	61ca      	str	r2, [r1, #28]
 8001406:	ea40 0307 	orr.w	r3, r0, r7
 800140a:	f8c1 c020 	str.w	ip, [r1, #32]
 800140e:	69ca      	ldr	r2, [r1, #28]
 8001410:	f443 6300 	orr.w	r3, r3, #2048	; 0x800
 8001414:	432b      	orrs	r3, r5
 8001416:	4313      	orrs	r3, r2
 8001418:	f436 7000 	bics.w	r0, r6, #512	; 0x200
 800141c:	b29b      	uxth	r3, r3
 800141e:	bf14      	ite	ne
 8001420:	2200      	movne	r2, #0
 8001422:	f44f 7280 	moveq.w	r2, #256	; 0x100
 8001426:	4313      	orrs	r3, r2
 8001428:	61cb      	str	r3, [r1, #28]
 800142a:	2000      	movs	r0, #0
 800142c:	2301      	movs	r3, #1
 800142e:	6460      	str	r0, [r4, #68]	; 0x44
 8001430:	f884 3041 	strb.w	r3, [r4, #65]	; 0x41
 8001434:	bdf8      	pop	{r3, r4, r5, r6, r7, pc}
 8001436:	4b12      	ldr	r3, [pc, #72]	; (8001480 <HAL_I2S_Init+0x150>)
 8001438:	f880 2040 	strb.w	r2, [r0, #64]	; 0x40
 800143c:	6343      	str	r3, [r0, #52]	; 0x34
 800143e:	f002 fb41 	bl	8003ac4 <HAL_I2S_MspInit>
 8001442:	e780      	b.n	8001346 <HAL_I2S_Init+0x16>
 8001444:	2001      	movs	r0, #1
 8001446:	4770      	bx	lr
 8001448:	68e3      	ldr	r3, [r4, #12]
 800144a:	6961      	ldr	r1, [r4, #20]
 800144c:	b173      	cbz	r3, 800146c <HAL_I2S_Init+0x13c>
 800144e:	00ad      	lsls	r5, r5, #2
 8001450:	fbb0 f0f5 	udiv	r0, r0, r5
 8001454:	eb00 0080 	add.w	r0, r0, r0, lsl #2
 8001458:	0043      	lsls	r3, r0, #1
 800145a:	fbb3 f3f1 	udiv	r3, r3, r1
 800145e:	3305      	adds	r3, #5
 8001460:	e79a      	b.n	8001398 <HAL_I2S_Init+0x68>
 8001462:	ea41 2303 	orr.w	r3, r1, r3, lsl #8
 8001466:	68e5      	ldr	r5, [r4, #12]
 8001468:	6821      	ldr	r1, [r4, #0]
 800146a:	e7a6      	b.n	80013ba <HAL_I2S_Init+0x8a>
 800146c:	00ed      	lsls	r5, r5, #3
 800146e:	e7ef      	b.n	8001450 <HAL_I2S_Init+0x120>
 8001470:	cccccccd 	.word	0xcccccccd
 8001474:	40003800 	.word	0x40003800
 8001478:	40003400 	.word	0x40003400
 800147c:	080015a1 	.word	0x080015a1
 8001480:	08001495 	.word	0x08001495
 8001484:	fffff040 	.word	0xfffff040

08001488 <HAL_I2S_TxCpltCallback>:
 8001488:	4770      	bx	lr
 800148a:	bf00      	nop

0800148c <HAL_I2S_RxCpltCallback>:
 800148c:	4770      	bx	lr
 800148e:	bf00      	nop

08001490 <HAL_I2S_ErrorCallback>:
 8001490:	4770      	bx	lr
 8001492:	bf00      	nop

08001494 <I2S_IRQHandler>:
 8001494:	b510      	push	{r4, lr}
 8001496:	6803      	ldr	r3, [r0, #0]
 8001498:	b084      	sub	sp, #16
 800149a:	689a      	ldr	r2, [r3, #8]
 800149c:	9201      	str	r2, [sp, #4]
 800149e:	f890 2041 	ldrb.w	r2, [r0, #65]	; 0x41
 80014a2:	2a04      	cmp	r2, #4
 80014a4:	4604      	mov	r4, r0
 80014a6:	d034      	beq.n	8001512 <I2S_IRQHandler+0x7e>
 80014a8:	f894 3041 	ldrb.w	r3, [r4, #65]	; 0x41
 80014ac:	2b03      	cmp	r3, #3
 80014ae:	d001      	beq.n	80014b4 <I2S_IRQHandler+0x20>
 80014b0:	b004      	add	sp, #16
 80014b2:	bd10      	pop	{r4, pc}
 80014b4:	9b01      	ldr	r3, [sp, #4]
 80014b6:	079b      	lsls	r3, r3, #30
 80014b8:	d510      	bpl.n	80014dc <I2S_IRQHandler+0x48>
 80014ba:	6823      	ldr	r3, [r4, #0]
 80014bc:	685a      	ldr	r2, [r3, #4]
 80014be:	0610      	lsls	r0, r2, #24
 80014c0:	d50c      	bpl.n	80014dc <I2S_IRQHandler+0x48>
 80014c2:	6a61      	ldr	r1, [r4, #36]	; 0x24
 80014c4:	f831 2b02 	ldrh.w	r2, [r1], #2
 80014c8:	60da      	str	r2, [r3, #12]
 80014ca:	8d62      	ldrh	r2, [r4, #42]	; 0x2a
 80014cc:	6261      	str	r1, [r4, #36]	; 0x24
 80014ce:	3a01      	subs	r2, #1
 80014d0:	b292      	uxth	r2, r2
 80014d2:	8562      	strh	r2, [r4, #42]	; 0x2a
 80014d4:	8d62      	ldrh	r2, [r4, #42]	; 0x2a
 80014d6:	b292      	uxth	r2, r2
 80014d8:	2a00      	cmp	r2, #0
 80014da:	d049      	beq.n	8001570 <I2S_IRQHandler+0xdc>
 80014dc:	9b01      	ldr	r3, [sp, #4]
 80014de:	0719      	lsls	r1, r3, #28
 80014e0:	d5e6      	bpl.n	80014b0 <I2S_IRQHandler+0x1c>
 80014e2:	6823      	ldr	r3, [r4, #0]
 80014e4:	685a      	ldr	r2, [r3, #4]
 80014e6:	0692      	lsls	r2, r2, #26
 80014e8:	d5e2      	bpl.n	80014b0 <I2S_IRQHandler+0x1c>
 80014ea:	685a      	ldr	r2, [r3, #4]
 80014ec:	2100      	movs	r1, #0
 80014ee:	f022 02a0 	bic.w	r2, r2, #160	; 0xa0
 80014f2:	605a      	str	r2, [r3, #4]
 80014f4:	9103      	str	r1, [sp, #12]
 80014f6:	689b      	ldr	r3, [r3, #8]
 80014f8:	9303      	str	r3, [sp, #12]
 80014fa:	2301      	movs	r3, #1
 80014fc:	9a03      	ldr	r2, [sp, #12]
 80014fe:	f884 3041 	strb.w	r3, [r4, #65]	; 0x41
 8001502:	6c63      	ldr	r3, [r4, #68]	; 0x44
 8001504:	f043 0304 	orr.w	r3, r3, #4
 8001508:	6463      	str	r3, [r4, #68]	; 0x44
 800150a:	4620      	mov	r0, r4
 800150c:	f7ff ffc0 	bl	8001490 <HAL_I2S_ErrorCallback>
 8001510:	e7ce      	b.n	80014b0 <I2S_IRQHandler+0x1c>
 8001512:	9a01      	ldr	r2, [sp, #4]
 8001514:	07d1      	lsls	r1, r2, #31
 8001516:	d50e      	bpl.n	8001536 <I2S_IRQHandler+0xa2>
 8001518:	685a      	ldr	r2, [r3, #4]
 800151a:	0652      	lsls	r2, r2, #25
 800151c:	d50b      	bpl.n	8001536 <I2S_IRQHandler+0xa2>
 800151e:	6ac1      	ldr	r1, [r0, #44]	; 0x2c
 8001520:	68da      	ldr	r2, [r3, #12]
 8001522:	f821 2b02 	strh.w	r2, [r1], #2
 8001526:	8e42      	ldrh	r2, [r0, #50]	; 0x32
 8001528:	62c1      	str	r1, [r0, #44]	; 0x2c
 800152a:	3a01      	subs	r2, #1
 800152c:	b292      	uxth	r2, r2
 800152e:	8642      	strh	r2, [r0, #50]	; 0x32
 8001530:	8e42      	ldrh	r2, [r0, #50]	; 0x32
 8001532:	b292      	uxth	r2, r2
 8001534:	b33a      	cbz	r2, 8001586 <I2S_IRQHandler+0xf2>
 8001536:	9b01      	ldr	r3, [sp, #4]
 8001538:	0659      	lsls	r1, r3, #25
 800153a:	d5b5      	bpl.n	80014a8 <I2S_IRQHandler+0x14>
 800153c:	6823      	ldr	r3, [r4, #0]
 800153e:	685a      	ldr	r2, [r3, #4]
 8001540:	0692      	lsls	r2, r2, #26
 8001542:	d5b1      	bpl.n	80014a8 <I2S_IRQHandler+0x14>
 8001544:	685a      	ldr	r2, [r3, #4]
 8001546:	2100      	movs	r1, #0
 8001548:	f022 0260 	bic.w	r2, r2, #96	; 0x60
 800154c:	605a      	str	r2, [r3, #4]
 800154e:	9102      	str	r1, [sp, #8]
 8001550:	68da      	ldr	r2, [r3, #12]
 8001552:	9202      	str	r2, [sp, #8]
 8001554:	689b      	ldr	r3, [r3, #8]
 8001556:	9302      	str	r3, [sp, #8]
 8001558:	2301      	movs	r3, #1
 800155a:	9a02      	ldr	r2, [sp, #8]
 800155c:	f884 3041 	strb.w	r3, [r4, #65]	; 0x41
 8001560:	6c63      	ldr	r3, [r4, #68]	; 0x44
 8001562:	f043 0302 	orr.w	r3, r3, #2
 8001566:	6463      	str	r3, [r4, #68]	; 0x44
 8001568:	4620      	mov	r0, r4
 800156a:	f7ff ff91 	bl	8001490 <HAL_I2S_ErrorCallback>
 800156e:	e79b      	b.n	80014a8 <I2S_IRQHandler+0x14>
 8001570:	685a      	ldr	r2, [r3, #4]
 8001572:	2101      	movs	r1, #1
 8001574:	f022 02a0 	bic.w	r2, r2, #160	; 0xa0
 8001578:	605a      	str	r2, [r3, #4]
 800157a:	4620      	mov	r0, r4
 800157c:	f884 1041 	strb.w	r1, [r4, #65]	; 0x41
 8001580:	f7ff ff82 	bl	8001488 <HAL_I2S_TxCpltCallback>
 8001584:	e7aa      	b.n	80014dc <I2S_IRQHandler+0x48>
 8001586:	685a      	ldr	r2, [r3, #4]
 8001588:	2101      	movs	r1, #1
 800158a:	f022 0260 	bic.w	r2, r2, #96	; 0x60
 800158e:	605a      	str	r2, [r3, #4]
 8001590:	f880 1041 	strb.w	r1, [r0, #65]	; 0x41
 8001594:	f7ff ff7a 	bl	800148c <HAL_I2S_RxCpltCallback>
 8001598:	e7cd      	b.n	8001536 <I2S_IRQHandler+0xa2>
 800159a:	bf00      	nop

0800159c <HAL_I2SEx_TxRxCpltCallback>:
 800159c:	4770      	bx	lr
 800159e:	bf00      	nop

080015a0 <HAL_I2SEx_FullDuplex_IRQHandler>:
 80015a0:	b530      	push	{r4, r5, lr}
 80015a2:	4a93      	ldr	r2, [pc, #588]	; (80017f0 <HAL_I2SEx_FullDuplex_IRQHandler+0x250>)
 80015a4:	6805      	ldr	r5, [r0, #0]
 80015a6:	4b93      	ldr	r3, [pc, #588]	; (80017f4 <HAL_I2SEx_FullDuplex_IRQHandler+0x254>)
 80015a8:	68a9      	ldr	r1, [r5, #8]
 80015aa:	b087      	sub	sp, #28
 80015ac:	4295      	cmp	r5, r2
 80015ae:	bf18      	it	ne
 80015b0:	f04f 2340 	movne.w	r3, #1073758208	; 0x40004000
 80015b4:	9100      	str	r1, [sp, #0]
 80015b6:	6899      	ldr	r1, [r3, #8]
 80015b8:	9101      	str	r1, [sp, #4]
 80015ba:	6869      	ldr	r1, [r5, #4]
 80015bc:	6842      	ldr	r2, [r0, #4]
 80015be:	9102      	str	r1, [sp, #8]
 80015c0:	6859      	ldr	r1, [r3, #4]
 80015c2:	9103      	str	r1, [sp, #12]
 80015c4:	f432 7200 	bics.w	r2, r2, #512	; 0x200
 80015c8:	4604      	mov	r4, r0
 80015ca:	d075      	beq.n	80016b8 <HAL_I2SEx_FullDuplex_IRQHandler+0x118>
 80015cc:	9a01      	ldr	r2, [sp, #4]
 80015ce:	0791      	lsls	r1, r2, #30
 80015d0:	d51a      	bpl.n	8001608 <HAL_I2SEx_FullDuplex_IRQHandler+0x68>
 80015d2:	9a03      	ldr	r2, [sp, #12]
 80015d4:	0612      	lsls	r2, r2, #24
 80015d6:	d517      	bpl.n	8001608 <HAL_I2SEx_FullDuplex_IRQHandler+0x68>
 80015d8:	6a42      	ldr	r2, [r0, #36]	; 0x24
 80015da:	1c91      	adds	r1, r2, #2
 80015dc:	8812      	ldrh	r2, [r2, #0]
 80015de:	6241      	str	r1, [r0, #36]	; 0x24
 80015e0:	60da      	str	r2, [r3, #12]
 80015e2:	8d42      	ldrh	r2, [r0, #42]	; 0x2a
 80015e4:	3a01      	subs	r2, #1
 80015e6:	b292      	uxth	r2, r2
 80015e8:	8542      	strh	r2, [r0, #42]	; 0x2a
 80015ea:	8d42      	ldrh	r2, [r0, #42]	; 0x2a
 80015ec:	b292      	uxth	r2, r2
 80015ee:	b95a      	cbnz	r2, 8001608 <HAL_I2SEx_FullDuplex_IRQHandler+0x68>
 80015f0:	685a      	ldr	r2, [r3, #4]
 80015f2:	f022 02a0 	bic.w	r2, r2, #160	; 0xa0
 80015f6:	605a      	str	r2, [r3, #4]
 80015f8:	8e43      	ldrh	r3, [r0, #50]	; 0x32
 80015fa:	b29b      	uxth	r3, r3
 80015fc:	b923      	cbnz	r3, 8001608 <HAL_I2SEx_FullDuplex_IRQHandler+0x68>
 80015fe:	2301      	movs	r3, #1
 8001600:	f880 3041 	strb.w	r3, [r0, #65]	; 0x41
 8001604:	f7ff ffca 	bl	800159c <HAL_I2SEx_TxRxCpltCallback>
 8001608:	9b00      	ldr	r3, [sp, #0]
 800160a:	07db      	lsls	r3, r3, #31
 800160c:	d51c      	bpl.n	8001648 <HAL_I2SEx_FullDuplex_IRQHandler+0xa8>
 800160e:	9b02      	ldr	r3, [sp, #8]
 8001610:	065d      	lsls	r5, r3, #25
 8001612:	d519      	bpl.n	8001648 <HAL_I2SEx_FullDuplex_IRQHandler+0xa8>
 8001614:	6ae3      	ldr	r3, [r4, #44]	; 0x2c
 8001616:	6822      	ldr	r2, [r4, #0]
 8001618:	1c98      	adds	r0, r3, #2
 800161a:	68d1      	ldr	r1, [r2, #12]
 800161c:	62e0      	str	r0, [r4, #44]	; 0x2c
 800161e:	8019      	strh	r1, [r3, #0]
 8001620:	8e63      	ldrh	r3, [r4, #50]	; 0x32
 8001622:	3b01      	subs	r3, #1
 8001624:	b29b      	uxth	r3, r3
 8001626:	8663      	strh	r3, [r4, #50]	; 0x32
 8001628:	8e63      	ldrh	r3, [r4, #50]	; 0x32
 800162a:	b29b      	uxth	r3, r3
 800162c:	b963      	cbnz	r3, 8001648 <HAL_I2SEx_FullDuplex_IRQHandler+0xa8>
 800162e:	6853      	ldr	r3, [r2, #4]
 8001630:	f023 0360 	bic.w	r3, r3, #96	; 0x60
 8001634:	6053      	str	r3, [r2, #4]
 8001636:	8d63      	ldrh	r3, [r4, #42]	; 0x2a
 8001638:	b29b      	uxth	r3, r3
 800163a:	b92b      	cbnz	r3, 8001648 <HAL_I2SEx_FullDuplex_IRQHandler+0xa8>
 800163c:	2301      	movs	r3, #1
 800163e:	f884 3041 	strb.w	r3, [r4, #65]	; 0x41
 8001642:	4620      	mov	r0, r4
 8001644:	f7ff ffaa 	bl	800159c <HAL_I2SEx_TxRxCpltCallback>
 8001648:	9b00      	ldr	r3, [sp, #0]
 800164a:	0658      	lsls	r0, r3, #25
 800164c:	d51b      	bpl.n	8001686 <HAL_I2SEx_FullDuplex_IRQHandler+0xe6>
 800164e:	9b02      	ldr	r3, [sp, #8]
 8001650:	0699      	lsls	r1, r3, #26
 8001652:	d518      	bpl.n	8001686 <HAL_I2SEx_FullDuplex_IRQHandler+0xe6>
 8001654:	6822      	ldr	r2, [r4, #0]
 8001656:	4866      	ldr	r0, [pc, #408]	; (80017f0 <HAL_I2SEx_FullDuplex_IRQHandler+0x250>)
 8001658:	6851      	ldr	r1, [r2, #4]
 800165a:	4b66      	ldr	r3, [pc, #408]	; (80017f4 <HAL_I2SEx_FullDuplex_IRQHandler+0x254>)
 800165c:	f021 0160 	bic.w	r1, r1, #96	; 0x60
 8001660:	4282      	cmp	r2, r0
 8001662:	bf18      	it	ne
 8001664:	f04f 2340 	movne.w	r3, #1073758208	; 0x40004000
 8001668:	6051      	str	r1, [r2, #4]
 800166a:	685a      	ldr	r2, [r3, #4]
 800166c:	2101      	movs	r1, #1
 800166e:	f022 02a0 	bic.w	r2, r2, #160	; 0xa0
 8001672:	605a      	str	r2, [r3, #4]
 8001674:	f884 1041 	strb.w	r1, [r4, #65]	; 0x41
 8001678:	6c63      	ldr	r3, [r4, #68]	; 0x44
 800167a:	f043 0302 	orr.w	r3, r3, #2
 800167e:	6463      	str	r3, [r4, #68]	; 0x44
 8001680:	4620      	mov	r0, r4
 8001682:	f7ff ff05 	bl	8001490 <HAL_I2S_ErrorCallback>
 8001686:	9b01      	ldr	r3, [sp, #4]
 8001688:	071a      	lsls	r2, r3, #28
 800168a:	d56e      	bpl.n	800176a <HAL_I2SEx_FullDuplex_IRQHandler+0x1ca>
 800168c:	9b03      	ldr	r3, [sp, #12]
 800168e:	069b      	lsls	r3, r3, #26
 8001690:	d56b      	bpl.n	800176a <HAL_I2SEx_FullDuplex_IRQHandler+0x1ca>
 8001692:	6822      	ldr	r2, [r4, #0]
 8001694:	4956      	ldr	r1, [pc, #344]	; (80017f0 <HAL_I2SEx_FullDuplex_IRQHandler+0x250>)
 8001696:	4b57      	ldr	r3, [pc, #348]	; (80017f4 <HAL_I2SEx_FullDuplex_IRQHandler+0x254>)
 8001698:	428a      	cmp	r2, r1
 800169a:	bf18      	it	ne
 800169c:	f04f 2340 	movne.w	r3, #1073758208	; 0x40004000
 80016a0:	2001      	movs	r0, #1
 80016a2:	6859      	ldr	r1, [r3, #4]
 80016a4:	f021 01a0 	bic.w	r1, r1, #160	; 0xa0
 80016a8:	6059      	str	r1, [r3, #4]
 80016aa:	6853      	ldr	r3, [r2, #4]
 80016ac:	f023 0360 	bic.w	r3, r3, #96	; 0x60
 80016b0:	6053      	str	r3, [r2, #4]
 80016b2:	f884 0041 	strb.w	r0, [r4, #65]	; 0x41
 80016b6:	e04e      	b.n	8001756 <HAL_I2SEx_FullDuplex_IRQHandler+0x1b6>
 80016b8:	9b00      	ldr	r3, [sp, #0]
 80016ba:	079a      	lsls	r2, r3, #30
 80016bc:	d502      	bpl.n	80016c4 <HAL_I2SEx_FullDuplex_IRQHandler+0x124>
 80016be:	9b02      	ldr	r3, [sp, #8]
 80016c0:	061b      	lsls	r3, r3, #24
 80016c2:	d477      	bmi.n	80017b4 <HAL_I2SEx_FullDuplex_IRQHandler+0x214>
 80016c4:	9b01      	ldr	r3, [sp, #4]
 80016c6:	07d8      	lsls	r0, r3, #31
 80016c8:	d502      	bpl.n	80016d0 <HAL_I2SEx_FullDuplex_IRQHandler+0x130>
 80016ca:	9b03      	ldr	r3, [sp, #12]
 80016cc:	0659      	lsls	r1, r3, #25
 80016ce:	d44e      	bmi.n	800176e <HAL_I2SEx_FullDuplex_IRQHandler+0x1ce>
 80016d0:	9b01      	ldr	r3, [sp, #4]
 80016d2:	065a      	lsls	r2, r3, #25
 80016d4:	d522      	bpl.n	800171c <HAL_I2SEx_FullDuplex_IRQHandler+0x17c>
 80016d6:	9b03      	ldr	r3, [sp, #12]
 80016d8:	069b      	lsls	r3, r3, #26
 80016da:	d51f      	bpl.n	800171c <HAL_I2SEx_FullDuplex_IRQHandler+0x17c>
 80016dc:	6823      	ldr	r3, [r4, #0]
 80016de:	4944      	ldr	r1, [pc, #272]	; (80017f0 <HAL_I2SEx_FullDuplex_IRQHandler+0x250>)
 80016e0:	4a44      	ldr	r2, [pc, #272]	; (80017f4 <HAL_I2SEx_FullDuplex_IRQHandler+0x254>)
 80016e2:	428b      	cmp	r3, r1
 80016e4:	bf18      	it	ne
 80016e6:	f04f 2240 	movne.w	r2, #1073758208	; 0x40004000
 80016ea:	2000      	movs	r0, #0
 80016ec:	6851      	ldr	r1, [r2, #4]
 80016ee:	f021 0160 	bic.w	r1, r1, #96	; 0x60
 80016f2:	6051      	str	r1, [r2, #4]
 80016f4:	685a      	ldr	r2, [r3, #4]
 80016f6:	f022 02a0 	bic.w	r2, r2, #160	; 0xa0
 80016fa:	605a      	str	r2, [r3, #4]
 80016fc:	9004      	str	r0, [sp, #16]
 80016fe:	68da      	ldr	r2, [r3, #12]
 8001700:	9204      	str	r2, [sp, #16]
 8001702:	689b      	ldr	r3, [r3, #8]
 8001704:	9304      	str	r3, [sp, #16]
 8001706:	2301      	movs	r3, #1
 8001708:	9a04      	ldr	r2, [sp, #16]
 800170a:	f884 3041 	strb.w	r3, [r4, #65]	; 0x41
 800170e:	6c63      	ldr	r3, [r4, #68]	; 0x44
 8001710:	f043 0302 	orr.w	r3, r3, #2
 8001714:	6463      	str	r3, [r4, #68]	; 0x44
 8001716:	4620      	mov	r0, r4
 8001718:	f7ff feba 	bl	8001490 <HAL_I2S_ErrorCallback>
 800171c:	9b00      	ldr	r3, [sp, #0]
 800171e:	071d      	lsls	r5, r3, #28
 8001720:	d523      	bpl.n	800176a <HAL_I2SEx_FullDuplex_IRQHandler+0x1ca>
 8001722:	9b02      	ldr	r3, [sp, #8]
 8001724:	0698      	lsls	r0, r3, #26
 8001726:	d520      	bpl.n	800176a <HAL_I2SEx_FullDuplex_IRQHandler+0x1ca>
 8001728:	6823      	ldr	r3, [r4, #0]
 800172a:	4831      	ldr	r0, [pc, #196]	; (80017f0 <HAL_I2SEx_FullDuplex_IRQHandler+0x250>)
 800172c:	6859      	ldr	r1, [r3, #4]
 800172e:	4a31      	ldr	r2, [pc, #196]	; (80017f4 <HAL_I2SEx_FullDuplex_IRQHandler+0x254>)
 8001730:	f021 01a0 	bic.w	r1, r1, #160	; 0xa0
 8001734:	4283      	cmp	r3, r0
 8001736:	bf18      	it	ne
 8001738:	f04f 2240 	movne.w	r2, #1073758208	; 0x40004000
 800173c:	6059      	str	r1, [r3, #4]
 800173e:	6851      	ldr	r1, [r2, #4]
 8001740:	2000      	movs	r0, #0
 8001742:	f021 0160 	bic.w	r1, r1, #96	; 0x60
 8001746:	6051      	str	r1, [r2, #4]
 8001748:	9005      	str	r0, [sp, #20]
 800174a:	689b      	ldr	r3, [r3, #8]
 800174c:	9305      	str	r3, [sp, #20]
 800174e:	2301      	movs	r3, #1
 8001750:	9a05      	ldr	r2, [sp, #20]
 8001752:	f884 3041 	strb.w	r3, [r4, #65]	; 0x41
 8001756:	6c63      	ldr	r3, [r4, #68]	; 0x44
 8001758:	4620      	mov	r0, r4
 800175a:	f043 0304 	orr.w	r3, r3, #4
 800175e:	6463      	str	r3, [r4, #68]	; 0x44
 8001760:	b007      	add	sp, #28
 8001762:	e8bd 4030 	ldmia.w	sp!, {r4, r5, lr}
 8001766:	f7ff be93 	b.w	8001490 <HAL_I2S_ErrorCallback>
 800176a:	b007      	add	sp, #28
 800176c:	bd30      	pop	{r4, r5, pc}
 800176e:	6820      	ldr	r0, [r4, #0]
 8001770:	491f      	ldr	r1, [pc, #124]	; (80017f0 <HAL_I2SEx_FullDuplex_IRQHandler+0x250>)
 8001772:	4a20      	ldr	r2, [pc, #128]	; (80017f4 <HAL_I2SEx_FullDuplex_IRQHandler+0x254>)
 8001774:	6ae3      	ldr	r3, [r4, #44]	; 0x2c
 8001776:	4288      	cmp	r0, r1
 8001778:	bf18      	it	ne
 800177a:	f04f 2240 	movne.w	r2, #1073758208	; 0x40004000
 800177e:	1c98      	adds	r0, r3, #2
 8001780:	68d1      	ldr	r1, [r2, #12]
 8001782:	62e0      	str	r0, [r4, #44]	; 0x2c
 8001784:	8019      	strh	r1, [r3, #0]
 8001786:	8e63      	ldrh	r3, [r4, #50]	; 0x32
 8001788:	3b01      	subs	r3, #1
 800178a:	b29b      	uxth	r3, r3
 800178c:	8663      	strh	r3, [r4, #50]	; 0x32
 800178e:	8e63      	ldrh	r3, [r4, #50]	; 0x32
 8001790:	b29b      	uxth	r3, r3
 8001792:	2b00      	cmp	r3, #0
 8001794:	d19c      	bne.n	80016d0 <HAL_I2SEx_FullDuplex_IRQHandler+0x130>
 8001796:	6853      	ldr	r3, [r2, #4]
 8001798:	f023 0360 	bic.w	r3, r3, #96	; 0x60
 800179c:	6053      	str	r3, [r2, #4]
 800179e:	8d63      	ldrh	r3, [r4, #42]	; 0x2a
 80017a0:	b29b      	uxth	r3, r3
 80017a2:	2b00      	cmp	r3, #0
 80017a4:	d194      	bne.n	80016d0 <HAL_I2SEx_FullDuplex_IRQHandler+0x130>
 80017a6:	2301      	movs	r3, #1
 80017a8:	f884 3041 	strb.w	r3, [r4, #65]	; 0x41
 80017ac:	4620      	mov	r0, r4
 80017ae:	f7ff fef5 	bl	800159c <HAL_I2SEx_TxRxCpltCallback>
 80017b2:	e78d      	b.n	80016d0 <HAL_I2SEx_FullDuplex_IRQHandler+0x130>
 80017b4:	6a43      	ldr	r3, [r0, #36]	; 0x24
 80017b6:	1c9a      	adds	r2, r3, #2
 80017b8:	881b      	ldrh	r3, [r3, #0]
 80017ba:	6242      	str	r2, [r0, #36]	; 0x24
 80017bc:	60eb      	str	r3, [r5, #12]
 80017be:	8d43      	ldrh	r3, [r0, #42]	; 0x2a
 80017c0:	3b01      	subs	r3, #1
 80017c2:	b29b      	uxth	r3, r3
 80017c4:	8543      	strh	r3, [r0, #42]	; 0x2a
 80017c6:	8d43      	ldrh	r3, [r0, #42]	; 0x2a
 80017c8:	b29b      	uxth	r3, r3
 80017ca:	2b00      	cmp	r3, #0
 80017cc:	f47f af7a 	bne.w	80016c4 <HAL_I2SEx_FullDuplex_IRQHandler+0x124>
 80017d0:	686b      	ldr	r3, [r5, #4]
 80017d2:	f023 03a0 	bic.w	r3, r3, #160	; 0xa0
 80017d6:	606b      	str	r3, [r5, #4]
 80017d8:	8e43      	ldrh	r3, [r0, #50]	; 0x32
 80017da:	b29b      	uxth	r3, r3
 80017dc:	2b00      	cmp	r3, #0
 80017de:	f47f af71 	bne.w	80016c4 <HAL_I2SEx_FullDuplex_IRQHandler+0x124>
 80017e2:	2301      	movs	r3, #1
 80017e4:	f880 3041 	strb.w	r3, [r0, #65]	; 0x41
 80017e8:	f7ff fed8 	bl	800159c <HAL_I2SEx_TxRxCpltCallback>
 80017ec:	e76a      	b.n	80016c4 <HAL_I2SEx_FullDuplex_IRQHandler+0x124>
 80017ee:	bf00      	nop
 80017f0:	40003800 	.word	0x40003800
 80017f4:	40003400 	.word	0x40003400

080017f8 <HAL_RCC_OscConfig>:
 80017f8:	2800      	cmp	r0, #0
 80017fa:	f000 8132 	beq.w	8001a62 <HAL_RCC_OscConfig+0x26a>
 80017fe:	e92d 41f0 	stmdb	sp!, {r4, r5, r6, r7, r8, lr}
 8001802:	6803      	ldr	r3, [r0, #0]
 8001804:	07dd      	lsls	r5, r3, #31
 8001806:	b082      	sub	sp, #8
 8001808:	4604      	mov	r4, r0
 800180a:	d52f      	bpl.n	800186c <HAL_RCC_OscConfig+0x74>
 800180c:	49ac      	ldr	r1, [pc, #688]	; (8001ac0 <HAL_RCC_OscConfig+0x2c8>)
 800180e:	688a      	ldr	r2, [r1, #8]
 8001810:	f002 020c 	and.w	r2, r2, #12
 8001814:	2a04      	cmp	r2, #4
 8001816:	f000 80ea 	beq.w	80019ee <HAL_RCC_OscConfig+0x1f6>
 800181a:	688a      	ldr	r2, [r1, #8]
 800181c:	f002 020c 	and.w	r2, r2, #12
 8001820:	2a08      	cmp	r2, #8
 8001822:	f000 80e0 	beq.w	80019e6 <HAL_RCC_OscConfig+0x1ee>
 8001826:	6863      	ldr	r3, [r4, #4]
 8001828:	f5b3 3f80 	cmp.w	r3, #65536	; 0x10000
 800182c:	f000 80e9 	beq.w	8001a02 <HAL_RCC_OscConfig+0x20a>
 8001830:	f5b3 2fa0 	cmp.w	r3, #327680	; 0x50000
 8001834:	f000 8154 	beq.w	8001ae0 <HAL_RCC_OscConfig+0x2e8>
 8001838:	4da1      	ldr	r5, [pc, #644]	; (8001ac0 <HAL_RCC_OscConfig+0x2c8>)
 800183a:	682a      	ldr	r2, [r5, #0]
 800183c:	f422 3280 	bic.w	r2, r2, #65536	; 0x10000
 8001840:	602a      	str	r2, [r5, #0]
 8001842:	682a      	ldr	r2, [r5, #0]
 8001844:	f422 2280 	bic.w	r2, r2, #262144	; 0x40000
 8001848:	602a      	str	r2, [r5, #0]
 800184a:	2b00      	cmp	r3, #0
 800184c:	f040 80de 	bne.w	8001a0c <HAL_RCC_OscConfig+0x214>
 8001850:	f7fe fe84 	bl	800055c <HAL_GetTick>
 8001854:	4606      	mov	r6, r0
 8001856:	e005      	b.n	8001864 <HAL_RCC_OscConfig+0x6c>
 8001858:	f7fe fe80 	bl	800055c <HAL_GetTick>
 800185c:	1b80      	subs	r0, r0, r6
 800185e:	2864      	cmp	r0, #100	; 0x64
 8001860:	f200 80f2 	bhi.w	8001a48 <HAL_RCC_OscConfig+0x250>
 8001864:	682b      	ldr	r3, [r5, #0]
 8001866:	039b      	lsls	r3, r3, #14
 8001868:	d4f6      	bmi.n	8001858 <HAL_RCC_OscConfig+0x60>
 800186a:	6823      	ldr	r3, [r4, #0]
 800186c:	079f      	lsls	r7, r3, #30
 800186e:	d475      	bmi.n	800195c <HAL_RCC_OscConfig+0x164>
 8001870:	071a      	lsls	r2, r3, #28
 8001872:	d515      	bpl.n	80018a0 <HAL_RCC_OscConfig+0xa8>
 8001874:	6963      	ldr	r3, [r4, #20]
 8001876:	2b00      	cmp	r3, #0
 8001878:	f000 80a5 	beq.w	80019c6 <HAL_RCC_OscConfig+0x1ce>
 800187c:	4b91      	ldr	r3, [pc, #580]	; (8001ac4 <HAL_RCC_OscConfig+0x2cc>)
 800187e:	4d90      	ldr	r5, [pc, #576]	; (8001ac0 <HAL_RCC_OscConfig+0x2c8>)
 8001880:	2201      	movs	r2, #1
 8001882:	601a      	str	r2, [r3, #0]
 8001884:	f7fe fe6a 	bl	800055c <HAL_GetTick>
 8001888:	4606      	mov	r6, r0
 800188a:	e005      	b.n	8001898 <HAL_RCC_OscConfig+0xa0>
 800188c:	f7fe fe66 	bl	800055c <HAL_GetTick>
 8001890:	1b80      	subs	r0, r0, r6
 8001892:	2802      	cmp	r0, #2
 8001894:	f200 80d8 	bhi.w	8001a48 <HAL_RCC_OscConfig+0x250>
 8001898:	6f6b      	ldr	r3, [r5, #116]	; 0x74
 800189a:	079b      	lsls	r3, r3, #30
 800189c:	d5f6      	bpl.n	800188c <HAL_RCC_OscConfig+0x94>
 800189e:	6823      	ldr	r3, [r4, #0]
 80018a0:	0758      	lsls	r0, r3, #29
 80018a2:	d53b      	bpl.n	800191c <HAL_RCC_OscConfig+0x124>
 80018a4:	4a86      	ldr	r2, [pc, #536]	; (8001ac0 <HAL_RCC_OscConfig+0x2c8>)
 80018a6:	6c13      	ldr	r3, [r2, #64]	; 0x40
 80018a8:	f013 5380 	ands.w	r3, r3, #268435456	; 0x10000000
 80018ac:	f040 80db 	bne.w	8001a66 <HAL_RCC_OscConfig+0x26e>
 80018b0:	9301      	str	r3, [sp, #4]
 80018b2:	6c13      	ldr	r3, [r2, #64]	; 0x40
 80018b4:	f043 5380 	orr.w	r3, r3, #268435456	; 0x10000000
 80018b8:	6413      	str	r3, [r2, #64]	; 0x40
 80018ba:	6c13      	ldr	r3, [r2, #64]	; 0x40
 80018bc:	f003 5380 	and.w	r3, r3, #268435456	; 0x10000000
 80018c0:	9301      	str	r3, [sp, #4]
 80018c2:	9b01      	ldr	r3, [sp, #4]
 80018c4:	2601      	movs	r6, #1
 80018c6:	4d80      	ldr	r5, [pc, #512]	; (8001ac8 <HAL_RCC_OscConfig+0x2d0>)
 80018c8:	682a      	ldr	r2, [r5, #0]
 80018ca:	05d1      	lsls	r1, r2, #23
 80018cc:	f140 80ac 	bpl.w	8001a28 <HAL_RCC_OscConfig+0x230>
 80018d0:	68a3      	ldr	r3, [r4, #8]
 80018d2:	2b01      	cmp	r3, #1
 80018d4:	f000 80c9 	beq.w	8001a6a <HAL_RCC_OscConfig+0x272>
 80018d8:	2b05      	cmp	r3, #5
 80018da:	f000 810b 	beq.w	8001af4 <HAL_RCC_OscConfig+0x2fc>
 80018de:	4d78      	ldr	r5, [pc, #480]	; (8001ac0 <HAL_RCC_OscConfig+0x2c8>)
 80018e0:	6f2a      	ldr	r2, [r5, #112]	; 0x70
 80018e2:	f022 0201 	bic.w	r2, r2, #1
 80018e6:	672a      	str	r2, [r5, #112]	; 0x70
 80018e8:	6f2a      	ldr	r2, [r5, #112]	; 0x70
 80018ea:	f022 0204 	bic.w	r2, r2, #4
 80018ee:	672a      	str	r2, [r5, #112]	; 0x70
 80018f0:	2b00      	cmp	r3, #0
 80018f2:	f040 80bf 	bne.w	8001a74 <HAL_RCC_OscConfig+0x27c>
 80018f6:	f7fe fe31 	bl	800055c <HAL_GetTick>
 80018fa:	f241 3788 	movw	r7, #5000	; 0x1388
 80018fe:	4680      	mov	r8, r0
 8001900:	e006      	b.n	8001910 <HAL_RCC_OscConfig+0x118>
 8001902:	f7fe fe2b 	bl	800055c <HAL_GetTick>
 8001906:	eba0 0008 	sub.w	r0, r0, r8
 800190a:	42b8      	cmp	r0, r7
 800190c:	f200 809c 	bhi.w	8001a48 <HAL_RCC_OscConfig+0x250>
 8001910:	6f2b      	ldr	r3, [r5, #112]	; 0x70
 8001912:	0798      	lsls	r0, r3, #30
 8001914:	d4f5      	bmi.n	8001902 <HAL_RCC_OscConfig+0x10a>
 8001916:	2e00      	cmp	r6, #0
 8001918:	f040 80dc 	bne.w	8001ad4 <HAL_RCC_OscConfig+0x2dc>
 800191c:	69a2      	ldr	r2, [r4, #24]
 800191e:	b1ca      	cbz	r2, 8001954 <HAL_RCC_OscConfig+0x15c>
 8001920:	4d67      	ldr	r5, [pc, #412]	; (8001ac0 <HAL_RCC_OscConfig+0x2c8>)
 8001922:	68a9      	ldr	r1, [r5, #8]
 8001924:	f001 010c 	and.w	r1, r1, #12
 8001928:	2908      	cmp	r1, #8
 800192a:	d048      	beq.n	80019be <HAL_RCC_OscConfig+0x1c6>
 800192c:	2a02      	cmp	r2, #2
 800192e:	4a67      	ldr	r2, [pc, #412]	; (8001acc <HAL_RCC_OscConfig+0x2d4>)
 8001930:	f04f 0100 	mov.w	r1, #0
 8001934:	6011      	str	r1, [r2, #0]
 8001936:	f000 80e7 	beq.w	8001b08 <HAL_RCC_OscConfig+0x310>
 800193a:	f7fe fe0f 	bl	800055c <HAL_GetTick>
 800193e:	462c      	mov	r4, r5
 8001940:	4605      	mov	r5, r0
 8001942:	e004      	b.n	800194e <HAL_RCC_OscConfig+0x156>
 8001944:	f7fe fe0a 	bl	800055c <HAL_GetTick>
 8001948:	1b40      	subs	r0, r0, r5
 800194a:	2802      	cmp	r0, #2
 800194c:	d87c      	bhi.n	8001a48 <HAL_RCC_OscConfig+0x250>
 800194e:	6823      	ldr	r3, [r4, #0]
 8001950:	019b      	lsls	r3, r3, #6
 8001952:	d4f7      	bmi.n	8001944 <HAL_RCC_OscConfig+0x14c>
 8001954:	2000      	movs	r0, #0
 8001956:	b002      	add	sp, #8
 8001958:	e8bd 81f0 	ldmia.w	sp!, {r4, r5, r6, r7, r8, pc}
 800195c:	4a58      	ldr	r2, [pc, #352]	; (8001ac0 <HAL_RCC_OscConfig+0x2c8>)
 800195e:	6891      	ldr	r1, [r2, #8]
 8001960:	f011 0f0c 	tst.w	r1, #12
 8001964:	d024      	beq.n	80019b0 <HAL_RCC_OscConfig+0x1b8>
 8001966:	6891      	ldr	r1, [r2, #8]
 8001968:	f001 010c 	and.w	r1, r1, #12
 800196c:	2908      	cmp	r1, #8
 800196e:	d01c      	beq.n	80019aa <HAL_RCC_OscConfig+0x1b2>
 8001970:	68e3      	ldr	r3, [r4, #12]
 8001972:	2b00      	cmp	r3, #0
 8001974:	f000 8092 	beq.w	8001a9c <HAL_RCC_OscConfig+0x2a4>
 8001978:	4b55      	ldr	r3, [pc, #340]	; (8001ad0 <HAL_RCC_OscConfig+0x2d8>)
 800197a:	4d51      	ldr	r5, [pc, #324]	; (8001ac0 <HAL_RCC_OscConfig+0x2c8>)
 800197c:	2201      	movs	r2, #1
 800197e:	601a      	str	r2, [r3, #0]
 8001980:	f7fe fdec 	bl	800055c <HAL_GetTick>
 8001984:	4606      	mov	r6, r0
 8001986:	e004      	b.n	8001992 <HAL_RCC_OscConfig+0x19a>
 8001988:	f7fe fde8 	bl	800055c <HAL_GetTick>
 800198c:	1b80      	subs	r0, r0, r6
 800198e:	2802      	cmp	r0, #2
 8001990:	d85a      	bhi.n	8001a48 <HAL_RCC_OscConfig+0x250>
 8001992:	682b      	ldr	r3, [r5, #0]
 8001994:	0798      	lsls	r0, r3, #30
 8001996:	d5f7      	bpl.n	8001988 <HAL_RCC_OscConfig+0x190>
 8001998:	682b      	ldr	r3, [r5, #0]
 800199a:	6922      	ldr	r2, [r4, #16]
 800199c:	f023 03f8 	bic.w	r3, r3, #248	; 0xf8
 80019a0:	ea43 03c2 	orr.w	r3, r3, r2, lsl #3
 80019a4:	602b      	str	r3, [r5, #0]
 80019a6:	6823      	ldr	r3, [r4, #0]
 80019a8:	e762      	b.n	8001870 <HAL_RCC_OscConfig+0x78>
 80019aa:	6852      	ldr	r2, [r2, #4]
 80019ac:	0256      	lsls	r6, r2, #9
 80019ae:	d4df      	bmi.n	8001970 <HAL_RCC_OscConfig+0x178>
 80019b0:	4a43      	ldr	r2, [pc, #268]	; (8001ac0 <HAL_RCC_OscConfig+0x2c8>)
 80019b2:	6812      	ldr	r2, [r2, #0]
 80019b4:	0795      	lsls	r5, r2, #30
 80019b6:	d54b      	bpl.n	8001a50 <HAL_RCC_OscConfig+0x258>
 80019b8:	68e2      	ldr	r2, [r4, #12]
 80019ba:	2a01      	cmp	r2, #1
 80019bc:	d048      	beq.n	8001a50 <HAL_RCC_OscConfig+0x258>
 80019be:	2001      	movs	r0, #1
 80019c0:	b002      	add	sp, #8
 80019c2:	e8bd 81f0 	ldmia.w	sp!, {r4, r5, r6, r7, r8, pc}
 80019c6:	4a3f      	ldr	r2, [pc, #252]	; (8001ac4 <HAL_RCC_OscConfig+0x2cc>)
 80019c8:	4d3d      	ldr	r5, [pc, #244]	; (8001ac0 <HAL_RCC_OscConfig+0x2c8>)
 80019ca:	6013      	str	r3, [r2, #0]
 80019cc:	f7fe fdc6 	bl	800055c <HAL_GetTick>
 80019d0:	4606      	mov	r6, r0
 80019d2:	e004      	b.n	80019de <HAL_RCC_OscConfig+0x1e6>
 80019d4:	f7fe fdc2 	bl	800055c <HAL_GetTick>
 80019d8:	1b80      	subs	r0, r0, r6
 80019da:	2802      	cmp	r0, #2
 80019dc:	d834      	bhi.n	8001a48 <HAL_RCC_OscConfig+0x250>
 80019de:	6f6b      	ldr	r3, [r5, #116]	; 0x74
 80019e0:	079f      	lsls	r7, r3, #30
 80019e2:	d4f7      	bmi.n	80019d4 <HAL_RCC_OscConfig+0x1dc>
 80019e4:	e75b      	b.n	800189e <HAL_RCC_OscConfig+0xa6>
 80019e6:	684a      	ldr	r2, [r1, #4]
 80019e8:	0250      	lsls	r0, r2, #9
 80019ea:	f57f af1c 	bpl.w	8001826 <HAL_RCC_OscConfig+0x2e>
 80019ee:	4a34      	ldr	r2, [pc, #208]	; (8001ac0 <HAL_RCC_OscConfig+0x2c8>)
 80019f0:	6812      	ldr	r2, [r2, #0]
 80019f2:	0391      	lsls	r1, r2, #14
 80019f4:	f57f af3a 	bpl.w	800186c <HAL_RCC_OscConfig+0x74>
 80019f8:	6862      	ldr	r2, [r4, #4]
 80019fa:	2a00      	cmp	r2, #0
 80019fc:	f47f af36 	bne.w	800186c <HAL_RCC_OscConfig+0x74>
 8001a00:	e7dd      	b.n	80019be <HAL_RCC_OscConfig+0x1c6>
 8001a02:	4a2f      	ldr	r2, [pc, #188]	; (8001ac0 <HAL_RCC_OscConfig+0x2c8>)
 8001a04:	6813      	ldr	r3, [r2, #0]
 8001a06:	f443 3380 	orr.w	r3, r3, #65536	; 0x10000
 8001a0a:	6013      	str	r3, [r2, #0]
 8001a0c:	f7fe fda6 	bl	800055c <HAL_GetTick>
 8001a10:	4d2b      	ldr	r5, [pc, #172]	; (8001ac0 <HAL_RCC_OscConfig+0x2c8>)
 8001a12:	4606      	mov	r6, r0
 8001a14:	e004      	b.n	8001a20 <HAL_RCC_OscConfig+0x228>
 8001a16:	f7fe fda1 	bl	800055c <HAL_GetTick>
 8001a1a:	1b80      	subs	r0, r0, r6
 8001a1c:	2864      	cmp	r0, #100	; 0x64
 8001a1e:	d813      	bhi.n	8001a48 <HAL_RCC_OscConfig+0x250>
 8001a20:	682b      	ldr	r3, [r5, #0]
 8001a22:	039a      	lsls	r2, r3, #14
 8001a24:	d5f7      	bpl.n	8001a16 <HAL_RCC_OscConfig+0x21e>
 8001a26:	e720      	b.n	800186a <HAL_RCC_OscConfig+0x72>
 8001a28:	682a      	ldr	r2, [r5, #0]
 8001a2a:	f442 7280 	orr.w	r2, r2, #256	; 0x100
 8001a2e:	602a      	str	r2, [r5, #0]
 8001a30:	f7fe fd94 	bl	800055c <HAL_GetTick>
 8001a34:	4607      	mov	r7, r0
 8001a36:	682b      	ldr	r3, [r5, #0]
 8001a38:	05da      	lsls	r2, r3, #23
 8001a3a:	f53f af49 	bmi.w	80018d0 <HAL_RCC_OscConfig+0xd8>
 8001a3e:	f7fe fd8d 	bl	800055c <HAL_GetTick>
 8001a42:	1bc0      	subs	r0, r0, r7
 8001a44:	2802      	cmp	r0, #2
 8001a46:	d9f6      	bls.n	8001a36 <HAL_RCC_OscConfig+0x23e>
 8001a48:	2003      	movs	r0, #3
 8001a4a:	b002      	add	sp, #8
 8001a4c:	e8bd 81f0 	ldmia.w	sp!, {r4, r5, r6, r7, r8, pc}
 8001a50:	491b      	ldr	r1, [pc, #108]	; (8001ac0 <HAL_RCC_OscConfig+0x2c8>)
 8001a52:	6920      	ldr	r0, [r4, #16]
 8001a54:	680a      	ldr	r2, [r1, #0]
 8001a56:	f022 02f8 	bic.w	r2, r2, #248	; 0xf8
 8001a5a:	ea42 02c0 	orr.w	r2, r2, r0, lsl #3
 8001a5e:	600a      	str	r2, [r1, #0]
 8001a60:	e706      	b.n	8001870 <HAL_RCC_OscConfig+0x78>
 8001a62:	2001      	movs	r0, #1
 8001a64:	4770      	bx	lr
 8001a66:	2600      	movs	r6, #0
 8001a68:	e72d      	b.n	80018c6 <HAL_RCC_OscConfig+0xce>
 8001a6a:	4a15      	ldr	r2, [pc, #84]	; (8001ac0 <HAL_RCC_OscConfig+0x2c8>)
 8001a6c:	6f13      	ldr	r3, [r2, #112]	; 0x70
 8001a6e:	f043 0301 	orr.w	r3, r3, #1
 8001a72:	6713      	str	r3, [r2, #112]	; 0x70
 8001a74:	f7fe fd72 	bl	800055c <HAL_GetTick>
 8001a78:	4d11      	ldr	r5, [pc, #68]	; (8001ac0 <HAL_RCC_OscConfig+0x2c8>)
 8001a7a:	4680      	mov	r8, r0
 8001a7c:	f241 3788 	movw	r7, #5000	; 0x1388
 8001a80:	e005      	b.n	8001a8e <HAL_RCC_OscConfig+0x296>
 8001a82:	f7fe fd6b 	bl	800055c <HAL_GetTick>
 8001a86:	eba0 0008 	sub.w	r0, r0, r8
 8001a8a:	42b8      	cmp	r0, r7
 8001a8c:	d8dc      	bhi.n	8001a48 <HAL_RCC_OscConfig+0x250>
 8001a8e:	6f2b      	ldr	r3, [r5, #112]	; 0x70
 8001a90:	079b      	lsls	r3, r3, #30
 8001a92:	d5f6      	bpl.n	8001a82 <HAL_RCC_OscConfig+0x28a>
 8001a94:	2e00      	cmp	r6, #0
 8001a96:	f43f af41 	beq.w	800191c <HAL_RCC_OscConfig+0x124>
 8001a9a:	e01b      	b.n	8001ad4 <HAL_RCC_OscConfig+0x2dc>
 8001a9c:	4a0c      	ldr	r2, [pc, #48]	; (8001ad0 <HAL_RCC_OscConfig+0x2d8>)
 8001a9e:	4d08      	ldr	r5, [pc, #32]	; (8001ac0 <HAL_RCC_OscConfig+0x2c8>)
 8001aa0:	6013      	str	r3, [r2, #0]
 8001aa2:	f7fe fd5b 	bl	800055c <HAL_GetTick>
 8001aa6:	4606      	mov	r6, r0
 8001aa8:	e004      	b.n	8001ab4 <HAL_RCC_OscConfig+0x2bc>
 8001aaa:	f7fe fd57 	bl	800055c <HAL_GetTick>
 8001aae:	1b80      	subs	r0, r0, r6
 8001ab0:	2802      	cmp	r0, #2
 8001ab2:	d8c9      	bhi.n	8001a48 <HAL_RCC_OscConfig+0x250>
 8001ab4:	682b      	ldr	r3, [r5, #0]
 8001ab6:	0799      	lsls	r1, r3, #30
 8001ab8:	d4f7      	bmi.n	8001aaa <HAL_RCC_OscConfig+0x2b2>
 8001aba:	6823      	ldr	r3, [r4, #0]
 8001abc:	e6d8      	b.n	8001870 <HAL_RCC_OscConfig+0x78>
 8001abe:	bf00      	nop
 8001ac0:	40023800 	.word	0x40023800
 8001ac4:	42470e80 	.word	0x42470e80
 8001ac8:	40007000 	.word	0x40007000
 8001acc:	42470060 	.word	0x42470060
 8001ad0:	42470000 	.word	0x42470000
 8001ad4:	4a23      	ldr	r2, [pc, #140]	; (8001b64 <HAL_RCC_OscConfig+0x36c>)
 8001ad6:	6c13      	ldr	r3, [r2, #64]	; 0x40
 8001ad8:	f023 5380 	bic.w	r3, r3, #268435456	; 0x10000000
 8001adc:	6413      	str	r3, [r2, #64]	; 0x40
 8001ade:	e71d      	b.n	800191c <HAL_RCC_OscConfig+0x124>
 8001ae0:	4b20      	ldr	r3, [pc, #128]	; (8001b64 <HAL_RCC_OscConfig+0x36c>)
 8001ae2:	681a      	ldr	r2, [r3, #0]
 8001ae4:	f442 2280 	orr.w	r2, r2, #262144	; 0x40000
 8001ae8:	601a      	str	r2, [r3, #0]
 8001aea:	681a      	ldr	r2, [r3, #0]
 8001aec:	f442 3280 	orr.w	r2, r2, #65536	; 0x10000
 8001af0:	601a      	str	r2, [r3, #0]
 8001af2:	e78b      	b.n	8001a0c <HAL_RCC_OscConfig+0x214>
 8001af4:	4b1b      	ldr	r3, [pc, #108]	; (8001b64 <HAL_RCC_OscConfig+0x36c>)
 8001af6:	6f1a      	ldr	r2, [r3, #112]	; 0x70
 8001af8:	f042 0204 	orr.w	r2, r2, #4
 8001afc:	671a      	str	r2, [r3, #112]	; 0x70
 8001afe:	6f1a      	ldr	r2, [r3, #112]	; 0x70
 8001b00:	f042 0201 	orr.w	r2, r2, #1
 8001b04:	671a      	str	r2, [r3, #112]	; 0x70
 8001b06:	e7b5      	b.n	8001a74 <HAL_RCC_OscConfig+0x27c>
 8001b08:	f7fe fd28 	bl	800055c <HAL_GetTick>
 8001b0c:	4606      	mov	r6, r0
 8001b0e:	e004      	b.n	8001b1a <HAL_RCC_OscConfig+0x322>
 8001b10:	f7fe fd24 	bl	800055c <HAL_GetTick>
 8001b14:	1b80      	subs	r0, r0, r6
 8001b16:	2802      	cmp	r0, #2
 8001b18:	d896      	bhi.n	8001a48 <HAL_RCC_OscConfig+0x250>
 8001b1a:	682b      	ldr	r3, [r5, #0]
 8001b1c:	0199      	lsls	r1, r3, #6
 8001b1e:	d4f7      	bmi.n	8001b10 <HAL_RCC_OscConfig+0x318>
 8001b20:	e9d4 3607 	ldrd	r3, r6, [r4, #28]
 8001b24:	e9d4 0209 	ldrd	r0, r2, [r4, #36]	; 0x24
 8001b28:	6ae1      	ldr	r1, [r4, #44]	; 0x2c
 8001b2a:	4c0e      	ldr	r4, [pc, #56]	; (8001b64 <HAL_RCC_OscConfig+0x36c>)
 8001b2c:	4333      	orrs	r3, r6
 8001b2e:	ea43 1380 	orr.w	r3, r3, r0, lsl #6
 8001b32:	0852      	lsrs	r2, r2, #1
 8001b34:	ea43 6301 	orr.w	r3, r3, r1, lsl #24
 8001b38:	3a01      	subs	r2, #1
 8001b3a:	490b      	ldr	r1, [pc, #44]	; (8001b68 <HAL_RCC_OscConfig+0x370>)
 8001b3c:	ea43 4302 	orr.w	r3, r3, r2, lsl #16
 8001b40:	2201      	movs	r2, #1
 8001b42:	606b      	str	r3, [r5, #4]
 8001b44:	600a      	str	r2, [r1, #0]
 8001b46:	f7fe fd09 	bl	800055c <HAL_GetTick>
 8001b4a:	4605      	mov	r5, r0
 8001b4c:	e005      	b.n	8001b5a <HAL_RCC_OscConfig+0x362>
 8001b4e:	f7fe fd05 	bl	800055c <HAL_GetTick>
 8001b52:	1b40      	subs	r0, r0, r5
 8001b54:	2802      	cmp	r0, #2
 8001b56:	f63f af77 	bhi.w	8001a48 <HAL_RCC_OscConfig+0x250>
 8001b5a:	6823      	ldr	r3, [r4, #0]
 8001b5c:	019a      	lsls	r2, r3, #6
 8001b5e:	d5f6      	bpl.n	8001b4e <HAL_RCC_OscConfig+0x356>
 8001b60:	e6f8      	b.n	8001954 <HAL_RCC_OscConfig+0x15c>
 8001b62:	bf00      	nop
 8001b64:	40023800 	.word	0x40023800
 8001b68:	42470060 	.word	0x42470060

08001b6c <HAL_RCC_GetSysClockFreq>:
 8001b6c:	4917      	ldr	r1, [pc, #92]	; (8001bcc <HAL_RCC_GetSysClockFreq+0x60>)
 8001b6e:	b508      	push	{r3, lr}
 8001b70:	688b      	ldr	r3, [r1, #8]
 8001b72:	f003 030c 	and.w	r3, r3, #12
 8001b76:	2b04      	cmp	r3, #4
 8001b78:	d01b      	beq.n	8001bb2 <HAL_RCC_GetSysClockFreq+0x46>
 8001b7a:	2b08      	cmp	r3, #8
 8001b7c:	d117      	bne.n	8001bae <HAL_RCC_GetSysClockFreq+0x42>
 8001b7e:	684a      	ldr	r2, [r1, #4]
 8001b80:	684b      	ldr	r3, [r1, #4]
 8001b82:	f413 0380 	ands.w	r3, r3, #4194304	; 0x400000
 8001b86:	f002 023f 	and.w	r2, r2, #63	; 0x3f
 8001b8a:	d114      	bne.n	8001bb6 <HAL_RCC_GetSysClockFreq+0x4a>
 8001b8c:	6849      	ldr	r1, [r1, #4]
 8001b8e:	4810      	ldr	r0, [pc, #64]	; (8001bd0 <HAL_RCC_GetSysClockFreq+0x64>)
 8001b90:	f3c1 1188 	ubfx	r1, r1, #6, #9
 8001b94:	fba1 0100 	umull	r0, r1, r1, r0
 8001b98:	f7fe fb16 	bl	80001c8 <__aeabi_uldivmod>
 8001b9c:	4b0b      	ldr	r3, [pc, #44]	; (8001bcc <HAL_RCC_GetSysClockFreq+0x60>)
 8001b9e:	685b      	ldr	r3, [r3, #4]
 8001ba0:	f3c3 4301 	ubfx	r3, r3, #16, #2
 8001ba4:	3301      	adds	r3, #1
 8001ba6:	005b      	lsls	r3, r3, #1
 8001ba8:	fbb0 f0f3 	udiv	r0, r0, r3
 8001bac:	bd08      	pop	{r3, pc}
 8001bae:	4808      	ldr	r0, [pc, #32]	; (8001bd0 <HAL_RCC_GetSysClockFreq+0x64>)
 8001bb0:	bd08      	pop	{r3, pc}
 8001bb2:	4808      	ldr	r0, [pc, #32]	; (8001bd4 <HAL_RCC_GetSysClockFreq+0x68>)
 8001bb4:	bd08      	pop	{r3, pc}
 8001bb6:	684b      	ldr	r3, [r1, #4]
 8001bb8:	4806      	ldr	r0, [pc, #24]	; (8001bd4 <HAL_RCC_GetSysClockFreq+0x68>)
 8001bba:	f3c3 1388 	ubfx	r3, r3, #6, #9
 8001bbe:	fba3 0100 	umull	r0, r1, r3, r0
 8001bc2:	2300      	movs	r3, #0
 8001bc4:	f7fe fb00 	bl	80001c8 <__aeabi_uldivmod>
 8001bc8:	e7e8      	b.n	8001b9c <HAL_RCC_GetSysClockFreq+0x30>
 8001bca:	bf00      	nop
 8001bcc:	40023800 	.word	0x40023800
 8001bd0:	00f42400 	.word	0x00f42400
 8001bd4:	007a1200 	.word	0x007a1200

08001bd8 <HAL_RCC_ClockConfig>:
 8001bd8:	b160      	cbz	r0, 8001bf4 <HAL_RCC_ClockConfig+0x1c>
 8001bda:	4a48      	ldr	r2, [pc, #288]	; (8001cfc <HAL_RCC_ClockConfig+0x124>)
 8001bdc:	6813      	ldr	r3, [r2, #0]
 8001bde:	f003 030f 	and.w	r3, r3, #15
 8001be2:	428b      	cmp	r3, r1
 8001be4:	d208      	bcs.n	8001bf8 <HAL_RCC_ClockConfig+0x20>
 8001be6:	b2cb      	uxtb	r3, r1
 8001be8:	7013      	strb	r3, [r2, #0]
 8001bea:	6813      	ldr	r3, [r2, #0]
 8001bec:	f003 030f 	and.w	r3, r3, #15
 8001bf0:	428b      	cmp	r3, r1
 8001bf2:	d001      	beq.n	8001bf8 <HAL_RCC_ClockConfig+0x20>
 8001bf4:	2001      	movs	r0, #1
 8001bf6:	4770      	bx	lr
 8001bf8:	6803      	ldr	r3, [r0, #0]
 8001bfa:	e92d 41f0 	stmdb	sp!, {r4, r5, r6, r7, r8, lr}
 8001bfe:	079d      	lsls	r5, r3, #30
 8001c00:	d514      	bpl.n	8001c2c <HAL_RCC_ClockConfig+0x54>
 8001c02:	075c      	lsls	r4, r3, #29
 8001c04:	d504      	bpl.n	8001c10 <HAL_RCC_ClockConfig+0x38>
 8001c06:	4c3e      	ldr	r4, [pc, #248]	; (8001d00 <HAL_RCC_ClockConfig+0x128>)
 8001c08:	68a2      	ldr	r2, [r4, #8]
 8001c0a:	f442 52e0 	orr.w	r2, r2, #7168	; 0x1c00
 8001c0e:	60a2      	str	r2, [r4, #8]
 8001c10:	071a      	lsls	r2, r3, #28
 8001c12:	d504      	bpl.n	8001c1e <HAL_RCC_ClockConfig+0x46>
 8001c14:	4c3a      	ldr	r4, [pc, #232]	; (8001d00 <HAL_RCC_ClockConfig+0x128>)
 8001c16:	68a2      	ldr	r2, [r4, #8]
 8001c18:	f442 4260 	orr.w	r2, r2, #57344	; 0xe000
 8001c1c:	60a2      	str	r2, [r4, #8]
 8001c1e:	4c38      	ldr	r4, [pc, #224]	; (8001d00 <HAL_RCC_ClockConfig+0x128>)
 8001c20:	6885      	ldr	r5, [r0, #8]
 8001c22:	68a2      	ldr	r2, [r4, #8]
 8001c24:	f022 02f0 	bic.w	r2, r2, #240	; 0xf0
 8001c28:	432a      	orrs	r2, r5
 8001c2a:	60a2      	str	r2, [r4, #8]
 8001c2c:	07df      	lsls	r7, r3, #31
 8001c2e:	4604      	mov	r4, r0
 8001c30:	460d      	mov	r5, r1
 8001c32:	d522      	bpl.n	8001c7a <HAL_RCC_ClockConfig+0xa2>
 8001c34:	6842      	ldr	r2, [r0, #4]
 8001c36:	2a01      	cmp	r2, #1
 8001c38:	d056      	beq.n	8001ce8 <HAL_RCC_ClockConfig+0x110>
 8001c3a:	1e93      	subs	r3, r2, #2
 8001c3c:	2b01      	cmp	r3, #1
 8001c3e:	4b30      	ldr	r3, [pc, #192]	; (8001d00 <HAL_RCC_ClockConfig+0x128>)
 8001c40:	681b      	ldr	r3, [r3, #0]
 8001c42:	d958      	bls.n	8001cf6 <HAL_RCC_ClockConfig+0x11e>
 8001c44:	0799      	lsls	r1, r3, #30
 8001c46:	d525      	bpl.n	8001c94 <HAL_RCC_ClockConfig+0xbc>
 8001c48:	4e2d      	ldr	r6, [pc, #180]	; (8001d00 <HAL_RCC_ClockConfig+0x128>)
 8001c4a:	68b3      	ldr	r3, [r6, #8]
 8001c4c:	f023 0303 	bic.w	r3, r3, #3
 8001c50:	4313      	orrs	r3, r2
 8001c52:	60b3      	str	r3, [r6, #8]
 8001c54:	f7fe fc82 	bl	800055c <HAL_GetTick>
 8001c58:	f241 3788 	movw	r7, #5000	; 0x1388
 8001c5c:	4680      	mov	r8, r0
 8001c5e:	e005      	b.n	8001c6c <HAL_RCC_ClockConfig+0x94>
 8001c60:	f7fe fc7c 	bl	800055c <HAL_GetTick>
 8001c64:	eba0 0008 	sub.w	r0, r0, r8
 8001c68:	42b8      	cmp	r0, r7
 8001c6a:	d842      	bhi.n	8001cf2 <HAL_RCC_ClockConfig+0x11a>
 8001c6c:	68b3      	ldr	r3, [r6, #8]
 8001c6e:	6862      	ldr	r2, [r4, #4]
 8001c70:	f003 030c 	and.w	r3, r3, #12
 8001c74:	ebb3 0f82 	cmp.w	r3, r2, lsl #2
 8001c78:	d1f2      	bne.n	8001c60 <HAL_RCC_ClockConfig+0x88>
 8001c7a:	4a20      	ldr	r2, [pc, #128]	; (8001cfc <HAL_RCC_ClockConfig+0x124>)
 8001c7c:	6813      	ldr	r3, [r2, #0]
 8001c7e:	f003 030f 	and.w	r3, r3, #15
 8001c82:	42ab      	cmp	r3, r5
 8001c84:	d909      	bls.n	8001c9a <HAL_RCC_ClockConfig+0xc2>
 8001c86:	b2eb      	uxtb	r3, r5
 8001c88:	7013      	strb	r3, [r2, #0]
 8001c8a:	6813      	ldr	r3, [r2, #0]
 8001c8c:	f003 030f 	and.w	r3, r3, #15
 8001c90:	42ab      	cmp	r3, r5
 8001c92:	d002      	beq.n	8001c9a <HAL_RCC_ClockConfig+0xc2>
 8001c94:	2001      	movs	r0, #1
 8001c96:	e8bd 81f0 	ldmia.w	sp!, {r4, r5, r6, r7, r8, pc}
 8001c9a:	6823      	ldr	r3, [r4, #0]
 8001c9c:	075a      	lsls	r2, r3, #29
 8001c9e:	d506      	bpl.n	8001cae <HAL_RCC_ClockConfig+0xd6>
 8001ca0:	4917      	ldr	r1, [pc, #92]	; (8001d00 <HAL_RCC_ClockConfig+0x128>)
 8001ca2:	68e0      	ldr	r0, [r4, #12]
 8001ca4:	688a      	ldr	r2, [r1, #8]
 8001ca6:	f422 52e0 	bic.w	r2, r2, #7168	; 0x1c00
 8001caa:	4302      	orrs	r2, r0
 8001cac:	608a      	str	r2, [r1, #8]
 8001cae:	071b      	lsls	r3, r3, #28
 8001cb0:	d411      	bmi.n	8001cd6 <HAL_RCC_ClockConfig+0xfe>
 8001cb2:	f7ff ff5b 	bl	8001b6c <HAL_RCC_GetSysClockFreq>
 8001cb6:	4b12      	ldr	r3, [pc, #72]	; (8001d00 <HAL_RCC_ClockConfig+0x128>)
 8001cb8:	4912      	ldr	r1, [pc, #72]	; (8001d04 <HAL_RCC_ClockConfig+0x12c>)
 8001cba:	689b      	ldr	r3, [r3, #8]
 8001cbc:	4a12      	ldr	r2, [pc, #72]	; (8001d08 <HAL_RCC_ClockConfig+0x130>)
 8001cbe:	f3c3 1303 	ubfx	r3, r3, #4, #4
 8001cc2:	5ccb      	ldrb	r3, [r1, r3]
 8001cc4:	fa20 f303 	lsr.w	r3, r0, r3
 8001cc8:	2000      	movs	r0, #0
 8001cca:	6013      	str	r3, [r2, #0]
 8001ccc:	f7fe fbfc 	bl	80004c8 <HAL_InitTick>
 8001cd0:	2000      	movs	r0, #0
 8001cd2:	e8bd 81f0 	ldmia.w	sp!, {r4, r5, r6, r7, r8, pc}
 8001cd6:	4a0a      	ldr	r2, [pc, #40]	; (8001d00 <HAL_RCC_ClockConfig+0x128>)
 8001cd8:	6921      	ldr	r1, [r4, #16]
 8001cda:	6893      	ldr	r3, [r2, #8]
 8001cdc:	f423 4360 	bic.w	r3, r3, #57344	; 0xe000
 8001ce0:	ea43 03c1 	orr.w	r3, r3, r1, lsl #3
 8001ce4:	6093      	str	r3, [r2, #8]
 8001ce6:	e7e4      	b.n	8001cb2 <HAL_RCC_ClockConfig+0xda>
 8001ce8:	4b05      	ldr	r3, [pc, #20]	; (8001d00 <HAL_RCC_ClockConfig+0x128>)
 8001cea:	681b      	ldr	r3, [r3, #0]
 8001cec:	039e      	lsls	r6, r3, #14
 8001cee:	d4ab      	bmi.n	8001c48 <HAL_RCC_ClockConfig+0x70>
 8001cf0:	e7d0      	b.n	8001c94 <HAL_RCC_ClockConfig+0xbc>
 8001cf2:	2003      	movs	r0, #3
 8001cf4:	e7ed      	b.n	8001cd2 <HAL_RCC_ClockConfig+0xfa>
 8001cf6:	0198      	lsls	r0, r3, #6
 8001cf8:	d4a6      	bmi.n	8001c48 <HAL_RCC_ClockConfig+0x70>
 8001cfa:	e7cb      	b.n	8001c94 <HAL_RCC_ClockConfig+0xbc>
 8001cfc:	40023c00 	.word	0x40023c00
 8001d00:	40023800 	.word	0x40023800
 8001d04:	08003e20 	.word	0x08003e20
 8001d08:	20000008 	.word	0x20000008

08001d0c <HAL_RCC_GetPCLK1Freq>:
 8001d0c:	4b04      	ldr	r3, [pc, #16]	; (8001d20 <HAL_RCC_GetPCLK1Freq+0x14>)
 8001d0e:	4a05      	ldr	r2, [pc, #20]	; (8001d24 <HAL_RCC_GetPCLK1Freq+0x18>)
 8001d10:	689b      	ldr	r3, [r3, #8]
 8001d12:	4905      	ldr	r1, [pc, #20]	; (8001d28 <HAL_RCC_GetPCLK1Freq+0x1c>)
 8001d14:	f3c3 2382 	ubfx	r3, r3, #10, #3
 8001d18:	6808      	ldr	r0, [r1, #0]
 8001d1a:	5cd3      	ldrb	r3, [r2, r3]
 8001d1c:	40d8      	lsrs	r0, r3
 8001d1e:	4770      	bx	lr
 8001d20:	40023800 	.word	0x40023800
 8001d24:	08003e30 	.word	0x08003e30
 8001d28:	20000008 	.word	0x20000008

08001d2c <HAL_RCCEx_PeriphCLKConfig>:
 8001d2c:	b5f0      	push	{r4, r5, r6, r7, lr}
 8001d2e:	4605      	mov	r5, r0
 8001d30:	6800      	ldr	r0, [r0, #0]
 8001d32:	f010 0f05 	tst.w	r0, #5
 8001d36:	b083      	sub	sp, #12
 8001d38:	d15c      	bne.n	8001df4 <HAL_RCCEx_PeriphCLKConfig+0xc8>
 8001d3a:	f010 0002 	ands.w	r0, r0, #2
 8001d3e:	d101      	bne.n	8001d44 <HAL_RCCEx_PeriphCLKConfig+0x18>
 8001d40:	b003      	add	sp, #12
 8001d42:	bdf0      	pop	{r4, r5, r6, r7, pc}
 8001d44:	4b45      	ldr	r3, [pc, #276]	; (8001e5c <HAL_RCCEx_PeriphCLKConfig+0x130>)
 8001d46:	4c46      	ldr	r4, [pc, #280]	; (8001e60 <HAL_RCCEx_PeriphCLKConfig+0x134>)
 8001d48:	2200      	movs	r2, #0
 8001d4a:	9201      	str	r2, [sp, #4]
 8001d4c:	6c1a      	ldr	r2, [r3, #64]	; 0x40
 8001d4e:	f042 5280 	orr.w	r2, r2, #268435456	; 0x10000000
 8001d52:	641a      	str	r2, [r3, #64]	; 0x40
 8001d54:	6c1b      	ldr	r3, [r3, #64]	; 0x40
 8001d56:	f003 5380 	and.w	r3, r3, #268435456	; 0x10000000
 8001d5a:	9301      	str	r3, [sp, #4]
 8001d5c:	9b01      	ldr	r3, [sp, #4]
 8001d5e:	6823      	ldr	r3, [r4, #0]
 8001d60:	f443 7380 	orr.w	r3, r3, #256	; 0x100
 8001d64:	6023      	str	r3, [r4, #0]
 8001d66:	f7fe fbf9 	bl	800055c <HAL_GetTick>
 8001d6a:	4606      	mov	r6, r0
 8001d6c:	e004      	b.n	8001d78 <HAL_RCCEx_PeriphCLKConfig+0x4c>
 8001d6e:	f7fe fbf5 	bl	800055c <HAL_GetTick>
 8001d72:	1b80      	subs	r0, r0, r6
 8001d74:	2802      	cmp	r0, #2
 8001d76:	d83a      	bhi.n	8001dee <HAL_RCCEx_PeriphCLKConfig+0xc2>
 8001d78:	6823      	ldr	r3, [r4, #0]
 8001d7a:	05d9      	lsls	r1, r3, #23
 8001d7c:	d5f7      	bpl.n	8001d6e <HAL_RCCEx_PeriphCLKConfig+0x42>
 8001d7e:	4937      	ldr	r1, [pc, #220]	; (8001e5c <HAL_RCCEx_PeriphCLKConfig+0x130>)
 8001d80:	68eb      	ldr	r3, [r5, #12]
 8001d82:	6f0a      	ldr	r2, [r1, #112]	; 0x70
 8001d84:	f412 7240 	ands.w	r2, r2, #768	; 0x300
 8001d88:	f403 7040 	and.w	r0, r3, #768	; 0x300
 8001d8c:	d010      	beq.n	8001db0 <HAL_RCCEx_PeriphCLKConfig+0x84>
 8001d8e:	4282      	cmp	r2, r0
 8001d90:	d00e      	beq.n	8001db0 <HAL_RCCEx_PeriphCLKConfig+0x84>
 8001d92:	6f0b      	ldr	r3, [r1, #112]	; 0x70
 8001d94:	4a33      	ldr	r2, [pc, #204]	; (8001e64 <HAL_RCCEx_PeriphCLKConfig+0x138>)
 8001d96:	f423 7340 	bic.w	r3, r3, #768	; 0x300
 8001d9a:	2401      	movs	r4, #1
 8001d9c:	2000      	movs	r0, #0
 8001d9e:	6014      	str	r4, [r2, #0]
 8001da0:	6010      	str	r0, [r2, #0]
 8001da2:	670b      	str	r3, [r1, #112]	; 0x70
 8001da4:	6f0b      	ldr	r3, [r1, #112]	; 0x70
 8001da6:	07da      	lsls	r2, r3, #31
 8001da8:	d413      	bmi.n	8001dd2 <HAL_RCCEx_PeriphCLKConfig+0xa6>
 8001daa:	68eb      	ldr	r3, [r5, #12]
 8001dac:	f403 7040 	and.w	r0, r3, #768	; 0x300
 8001db0:	f5b0 7f40 	cmp.w	r0, #768	; 0x300
 8001db4:	d047      	beq.n	8001e46 <HAL_RCCEx_PeriphCLKConfig+0x11a>
 8001db6:	4929      	ldr	r1, [pc, #164]	; (8001e5c <HAL_RCCEx_PeriphCLKConfig+0x130>)
 8001db8:	688a      	ldr	r2, [r1, #8]
 8001dba:	f422 12f8 	bic.w	r2, r2, #2031616	; 0x1f0000
 8001dbe:	608a      	str	r2, [r1, #8]
 8001dc0:	4a26      	ldr	r2, [pc, #152]	; (8001e5c <HAL_RCCEx_PeriphCLKConfig+0x130>)
 8001dc2:	6f11      	ldr	r1, [r2, #112]	; 0x70
 8001dc4:	f3c3 030b 	ubfx	r3, r3, #0, #12
 8001dc8:	430b      	orrs	r3, r1
 8001dca:	2000      	movs	r0, #0
 8001dcc:	6713      	str	r3, [r2, #112]	; 0x70
 8001dce:	b003      	add	sp, #12
 8001dd0:	bdf0      	pop	{r4, r5, r6, r7, pc}
 8001dd2:	460c      	mov	r4, r1
 8001dd4:	f7fe fbc2 	bl	800055c <HAL_GetTick>
 8001dd8:	f241 3688 	movw	r6, #5000	; 0x1388
 8001ddc:	4607      	mov	r7, r0
 8001dde:	6f23      	ldr	r3, [r4, #112]	; 0x70
 8001de0:	079b      	lsls	r3, r3, #30
 8001de2:	d4e2      	bmi.n	8001daa <HAL_RCCEx_PeriphCLKConfig+0x7e>
 8001de4:	f7fe fbba 	bl	800055c <HAL_GetTick>
 8001de8:	1bc0      	subs	r0, r0, r7
 8001dea:	42b0      	cmp	r0, r6
 8001dec:	d9f7      	bls.n	8001dde <HAL_RCCEx_PeriphCLKConfig+0xb2>
 8001dee:	2003      	movs	r0, #3
 8001df0:	b003      	add	sp, #12
 8001df2:	bdf0      	pop	{r4, r5, r6, r7, pc}
 8001df4:	4b1c      	ldr	r3, [pc, #112]	; (8001e68 <HAL_RCCEx_PeriphCLKConfig+0x13c>)
 8001df6:	4c19      	ldr	r4, [pc, #100]	; (8001e5c <HAL_RCCEx_PeriphCLKConfig+0x130>)
 8001df8:	2200      	movs	r2, #0
 8001dfa:	601a      	str	r2, [r3, #0]
 8001dfc:	f7fe fbae 	bl	800055c <HAL_GetTick>
 8001e00:	4606      	mov	r6, r0
 8001e02:	e004      	b.n	8001e0e <HAL_RCCEx_PeriphCLKConfig+0xe2>
 8001e04:	f7fe fbaa 	bl	800055c <HAL_GetTick>
 8001e08:	1b80      	subs	r0, r0, r6
 8001e0a:	2802      	cmp	r0, #2
 8001e0c:	d8ef      	bhi.n	8001dee <HAL_RCCEx_PeriphCLKConfig+0xc2>
 8001e0e:	6823      	ldr	r3, [r4, #0]
 8001e10:	011f      	lsls	r7, r3, #4
 8001e12:	d4f7      	bmi.n	8001e04 <HAL_RCCEx_PeriphCLKConfig+0xd8>
 8001e14:	e9d5 1301 	ldrd	r1, r3, [r5, #4]
 8001e18:	4a13      	ldr	r2, [pc, #76]	; (8001e68 <HAL_RCCEx_PeriphCLKConfig+0x13c>)
 8001e1a:	4e10      	ldr	r6, [pc, #64]	; (8001e5c <HAL_RCCEx_PeriphCLKConfig+0x130>)
 8001e1c:	071b      	lsls	r3, r3, #28
 8001e1e:	ea43 1381 	orr.w	r3, r3, r1, lsl #6
 8001e22:	2101      	movs	r1, #1
 8001e24:	f8c4 3084 	str.w	r3, [r4, #132]	; 0x84
 8001e28:	6011      	str	r1, [r2, #0]
 8001e2a:	f7fe fb97 	bl	800055c <HAL_GetTick>
 8001e2e:	4604      	mov	r4, r0
 8001e30:	e004      	b.n	8001e3c <HAL_RCCEx_PeriphCLKConfig+0x110>
 8001e32:	f7fe fb93 	bl	800055c <HAL_GetTick>
 8001e36:	1b00      	subs	r0, r0, r4
 8001e38:	2802      	cmp	r0, #2
 8001e3a:	d8d8      	bhi.n	8001dee <HAL_RCCEx_PeriphCLKConfig+0xc2>
 8001e3c:	6833      	ldr	r3, [r6, #0]
 8001e3e:	0118      	lsls	r0, r3, #4
 8001e40:	d5f7      	bpl.n	8001e32 <HAL_RCCEx_PeriphCLKConfig+0x106>
 8001e42:	6828      	ldr	r0, [r5, #0]
 8001e44:	e779      	b.n	8001d3a <HAL_RCCEx_PeriphCLKConfig+0xe>
 8001e46:	4805      	ldr	r0, [pc, #20]	; (8001e5c <HAL_RCCEx_PeriphCLKConfig+0x130>)
 8001e48:	6882      	ldr	r2, [r0, #8]
 8001e4a:	f023 4170 	bic.w	r1, r3, #4026531840	; 0xf0000000
 8001e4e:	f422 12f8 	bic.w	r2, r2, #2031616	; 0x1f0000
 8001e52:	f421 7140 	bic.w	r1, r1, #768	; 0x300
 8001e56:	430a      	orrs	r2, r1
 8001e58:	6082      	str	r2, [r0, #8]
 8001e5a:	e7b1      	b.n	8001dc0 <HAL_RCCEx_PeriphCLKConfig+0x94>
 8001e5c:	40023800 	.word	0x40023800
 8001e60:	40007000 	.word	0x40007000
 8001e64:	42470e40 	.word	0x42470e40
 8001e68:	42470068 	.word	0x42470068

08001e6c <HAL_RCCEx_GetPeriphCLKFreq>:
 8001e6c:	2801      	cmp	r0, #1
 8001e6e:	d109      	bne.n	8001e84 <HAL_RCCEx_GetPeriphCLKFreq+0x18>
 8001e70:	4a12      	ldr	r2, [pc, #72]	; (8001ebc <HAL_RCCEx_GetPeriphCLKFreq+0x50>)
 8001e72:	6893      	ldr	r3, [r2, #8]
 8001e74:	f413 0300 	ands.w	r3, r3, #8388608	; 0x800000
 8001e78:	d006      	beq.n	8001e88 <HAL_RCCEx_GetPeriphCLKFreq+0x1c>
 8001e7a:	2b01      	cmp	r3, #1
 8001e7c:	4810      	ldr	r0, [pc, #64]	; (8001ec0 <HAL_RCCEx_GetPeriphCLKFreq+0x54>)
 8001e7e:	bf18      	it	ne
 8001e80:	2000      	movne	r0, #0
 8001e82:	4770      	bx	lr
 8001e84:	2000      	movs	r0, #0
 8001e86:	4770      	bx	lr
 8001e88:	6853      	ldr	r3, [r2, #4]
 8001e8a:	f413 0f80 	tst.w	r3, #4194304	; 0x400000
 8001e8e:	6853      	ldr	r3, [r2, #4]
 8001e90:	bf14      	ite	ne
 8001e92:	480c      	ldrne	r0, [pc, #48]	; (8001ec4 <HAL_RCCEx_GetPeriphCLKFreq+0x58>)
 8001e94:	480c      	ldreq	r0, [pc, #48]	; (8001ec8 <HAL_RCCEx_GetPeriphCLKFreq+0x5c>)
 8001e96:	f003 033f 	and.w	r3, r3, #63	; 0x3f
 8001e9a:	fbb0 f0f3 	udiv	r0, r0, r3
 8001e9e:	4b07      	ldr	r3, [pc, #28]	; (8001ebc <HAL_RCCEx_GetPeriphCLKFreq+0x50>)
 8001ea0:	f8d3 2084 	ldr.w	r2, [r3, #132]	; 0x84
 8001ea4:	f8d3 3084 	ldr.w	r3, [r3, #132]	; 0x84
 8001ea8:	f3c2 1288 	ubfx	r2, r2, #6, #9
 8001eac:	fb00 f002 	mul.w	r0, r0, r2
 8001eb0:	f3c3 7302 	ubfx	r3, r3, #28, #3
 8001eb4:	fbb0 f0f3 	udiv	r0, r0, r3
 8001eb8:	4770      	bx	lr
 8001eba:	bf00      	nop
 8001ebc:	40023800 	.word	0x40023800
 8001ec0:	00bb8000 	.word	0x00bb8000
 8001ec4:	007a1200 	.word	0x007a1200
 8001ec8:	00f42400 	.word	0x00f42400

08001ecc <HAL_SPI_Init>:
 8001ecc:	2800      	cmp	r0, #0
 8001ece:	d03b      	beq.n	8001f48 <HAL_SPI_Init+0x7c>
 8001ed0:	f890 2051 	ldrb.w	r2, [r0, #81]	; 0x51
 8001ed4:	2300      	movs	r3, #0
 8001ed6:	b570      	push	{r4, r5, r6, lr}
 8001ed8:	f002 01ff 	and.w	r1, r2, #255	; 0xff
 8001edc:	4604      	mov	r4, r0
 8001ede:	6283      	str	r3, [r0, #40]	; 0x28
 8001ee0:	b362      	cbz	r2, 8001f3c <HAL_SPI_Init+0x70>
 8001ee2:	4618      	mov	r0, r3
 8001ee4:	e9d4 3501 	ldrd	r3, r5, [r4, #4]
 8001ee8:	e9d4 2103 	ldrd	r2, r1, [r4, #12]
 8001eec:	432b      	orrs	r3, r5
 8001eee:	4313      	orrs	r3, r2
 8001ef0:	6962      	ldr	r2, [r4, #20]
 8001ef2:	69e5      	ldr	r5, [r4, #28]
 8001ef4:	6a26      	ldr	r6, [r4, #32]
 8001ef6:	430b      	orrs	r3, r1
 8001ef8:	4313      	orrs	r3, r2
 8001efa:	69a2      	ldr	r2, [r4, #24]
 8001efc:	6821      	ldr	r1, [r4, #0]
 8001efe:	432b      	orrs	r3, r5
 8001f00:	2502      	movs	r5, #2
 8001f02:	f884 5051 	strb.w	r5, [r4, #81]	; 0x51
 8001f06:	4333      	orrs	r3, r6
 8001f08:	f402 7500 	and.w	r5, r2, #512	; 0x200
 8001f0c:	680e      	ldr	r6, [r1, #0]
 8001f0e:	432b      	orrs	r3, r5
 8001f10:	0c12      	lsrs	r2, r2, #16
 8001f12:	6a65      	ldr	r5, [r4, #36]	; 0x24
 8001f14:	f002 0204 	and.w	r2, r2, #4
 8001f18:	4303      	orrs	r3, r0
 8001f1a:	432a      	orrs	r2, r5
 8001f1c:	f026 0640 	bic.w	r6, r6, #64	; 0x40
 8001f20:	600e      	str	r6, [r1, #0]
 8001f22:	600b      	str	r3, [r1, #0]
 8001f24:	604a      	str	r2, [r1, #4]
 8001f26:	69cb      	ldr	r3, [r1, #28]
 8001f28:	2200      	movs	r2, #0
 8001f2a:	f423 6300 	bic.w	r3, r3, #2048	; 0x800
 8001f2e:	2501      	movs	r5, #1
 8001f30:	61cb      	str	r3, [r1, #28]
 8001f32:	4610      	mov	r0, r2
 8001f34:	6562      	str	r2, [r4, #84]	; 0x54
 8001f36:	f884 5051 	strb.w	r5, [r4, #81]	; 0x51
 8001f3a:	bd70      	pop	{r4, r5, r6, pc}
 8001f3c:	f880 1050 	strb.w	r1, [r0, #80]	; 0x50
 8001f40:	f001 fe0c 	bl	8003b5c <HAL_SPI_MspInit>
 8001f44:	6aa0      	ldr	r0, [r4, #40]	; 0x28
 8001f46:	e7cd      	b.n	8001ee4 <HAL_SPI_Init+0x18>
 8001f48:	2001      	movs	r0, #1
 8001f4a:	4770      	bx	lr

08001f4c <USB_EnableGlobalInt>:
 8001f4c:	4602      	mov	r2, r0
 8001f4e:	2000      	movs	r0, #0
 8001f50:	6893      	ldr	r3, [r2, #8]
 8001f52:	f043 0301 	orr.w	r3, r3, #1
 8001f56:	6093      	str	r3, [r2, #8]
 8001f58:	4770      	bx	lr
 8001f5a:	bf00      	nop

08001f5c <USB_ReadPacket>:
 8001f5c:	3203      	adds	r2, #3
 8001f5e:	0892      	lsrs	r2, r2, #2
 8001f60:	d00d      	beq.n	8001f7e <USB_ReadPacket+0x22>
 8001f62:	b410      	push	{r4}
 8001f64:	eb01 0282 	add.w	r2, r1, r2, lsl #2
 8001f68:	f500 5480 	add.w	r4, r0, #4096	; 0x1000
 8001f6c:	4608      	mov	r0, r1
 8001f6e:	6823      	ldr	r3, [r4, #0]
 8001f70:	f840 3b04 	str.w	r3, [r0], #4
 8001f74:	4282      	cmp	r2, r0
 8001f76:	d1fa      	bne.n	8001f6e <USB_ReadPacket+0x12>
 8001f78:	f85d 4b04 	ldr.w	r4, [sp], #4
 8001f7c:	4770      	bx	lr
 8001f7e:	4608      	mov	r0, r1
 8001f80:	4770      	bx	lr
 8001f82:	bf00      	nop

08001f84 <USB_ReadInterrupts>:
 8001f84:	6942      	ldr	r2, [r0, #20]
 8001f86:	6980      	ldr	r0, [r0, #24]
 8001f88:	4010      	ands	r0, r2
 8001f8a:	4770      	bx	lr

08001f8c <USB_GetMode>:
 8001f8c:	6940      	ldr	r0, [r0, #20]
 8001f8e:	f000 0001 	and.w	r0, r0, #1
 8001f92:	4770      	bx	lr

08001f94 <USB_InitFSLSPClkSel>:
 8001f94:	f8d0 3400 	ldr.w	r3, [r0, #1024]	; 0x400
 8001f98:	f023 0303 	bic.w	r3, r3, #3
 8001f9c:	f8c0 3400 	str.w	r3, [r0, #1024]	; 0x400
 8001fa0:	f8d0 2400 	ldr.w	r2, [r0, #1024]	; 0x400
 8001fa4:	f001 0303 	and.w	r3, r1, #3
 8001fa8:	4313      	orrs	r3, r2
 8001faa:	2901      	cmp	r1, #1
 8001fac:	f8c0 3400 	str.w	r3, [r0, #1024]	; 0x400
 8001fb0:	f500 6080 	add.w	r0, r0, #1024	; 0x400
 8001fb4:	d006      	beq.n	8001fc4 <USB_InitFSLSPClkSel+0x30>
 8001fb6:	2902      	cmp	r1, #2
 8001fb8:	bf04      	itt	eq
 8001fba:	f241 7370 	movweq	r3, #6000	; 0x1770
 8001fbe:	6043      	streq	r3, [r0, #4]
 8001fc0:	2000      	movs	r0, #0
 8001fc2:	4770      	bx	lr
 8001fc4:	f64b 3380 	movw	r3, #48000	; 0xbb80
 8001fc8:	6043      	str	r3, [r0, #4]
 8001fca:	2000      	movs	r0, #0
 8001fcc:	4770      	bx	lr
 8001fce:	bf00      	nop

08001fd0 <USB_ResetPort>:
 8001fd0:	b530      	push	{r4, r5, lr}
 8001fd2:	b083      	sub	sp, #12
 8001fd4:	2500      	movs	r5, #0
 8001fd6:	9501      	str	r5, [sp, #4]
 8001fd8:	f8d0 3440 	ldr.w	r3, [r0, #1088]	; 0x440
 8001fdc:	9301      	str	r3, [sp, #4]
 8001fde:	9b01      	ldr	r3, [sp, #4]
 8001fe0:	f023 032e 	bic.w	r3, r3, #46	; 0x2e
 8001fe4:	9301      	str	r3, [sp, #4]
 8001fe6:	9b01      	ldr	r3, [sp, #4]
 8001fe8:	f443 7380 	orr.w	r3, r3, #256	; 0x100
 8001fec:	4604      	mov	r4, r0
 8001fee:	f8c0 3440 	str.w	r3, [r0, #1088]	; 0x440
 8001ff2:	2064      	movs	r0, #100	; 0x64
 8001ff4:	f7fe fab8 	bl	8000568 <HAL_Delay>
 8001ff8:	9b01      	ldr	r3, [sp, #4]
 8001ffa:	f423 7380 	bic.w	r3, r3, #256	; 0x100
 8001ffe:	f8c4 3440 	str.w	r3, [r4, #1088]	; 0x440
 8002002:	200a      	movs	r0, #10
 8002004:	f7fe fab0 	bl	8000568 <HAL_Delay>
 8002008:	4628      	mov	r0, r5
 800200a:	b003      	add	sp, #12
 800200c:	bd30      	pop	{r4, r5, pc}
 800200e:	bf00      	nop

08002010 <USB_DriveVbus>:
 8002010:	b082      	sub	sp, #8
 8002012:	2300      	movs	r3, #0
 8002014:	9301      	str	r3, [sp, #4]
 8002016:	f8d0 3440 	ldr.w	r3, [r0, #1088]	; 0x440
 800201a:	9301      	str	r3, [sp, #4]
 800201c:	9b01      	ldr	r3, [sp, #4]
 800201e:	f023 032e 	bic.w	r3, r3, #46	; 0x2e
 8002022:	9301      	str	r3, [sp, #4]
 8002024:	9b01      	ldr	r3, [sp, #4]
 8002026:	f413 5f80 	tst.w	r3, #4096	; 0x1000
 800202a:	9b01      	ldr	r3, [sp, #4]
 800202c:	d101      	bne.n	8002032 <USB_DriveVbus+0x22>
 800202e:	2901      	cmp	r1, #1
 8002030:	d00a      	beq.n	8002048 <USB_DriveVbus+0x38>
 8002032:	04db      	lsls	r3, r3, #19
 8002034:	d505      	bpl.n	8002042 <USB_DriveVbus+0x32>
 8002036:	b921      	cbnz	r1, 8002042 <USB_DriveVbus+0x32>
 8002038:	9b01      	ldr	r3, [sp, #4]
 800203a:	f423 5380 	bic.w	r3, r3, #4096	; 0x1000
 800203e:	f8c0 3440 	str.w	r3, [r0, #1088]	; 0x440
 8002042:	2000      	movs	r0, #0
 8002044:	b002      	add	sp, #8
 8002046:	4770      	bx	lr
 8002048:	f443 5380 	orr.w	r3, r3, #4096	; 0x1000
 800204c:	f8c0 3440 	str.w	r3, [r0, #1088]	; 0x440
 8002050:	9b01      	ldr	r3, [sp, #4]
 8002052:	2000      	movs	r0, #0
 8002054:	b002      	add	sp, #8
 8002056:	4770      	bx	lr

08002058 <USB_GetHostSpeed>:
 8002058:	b082      	sub	sp, #8
 800205a:	2300      	movs	r3, #0
 800205c:	9301      	str	r3, [sp, #4]
 800205e:	f8d0 3440 	ldr.w	r3, [r0, #1088]	; 0x440
 8002062:	9301      	str	r3, [sp, #4]
 8002064:	9801      	ldr	r0, [sp, #4]
 8002066:	f3c0 4041 	ubfx	r0, r0, #17, #2
 800206a:	b002      	add	sp, #8
 800206c:	4770      	bx	lr
 800206e:	bf00      	nop

08002070 <USB_HC_Init>:
 8002070:	e92d 43f0 	stmdb	sp!, {r4, r5, r6, r7, r8, r9, lr}
 8002074:	eb00 1541 	add.w	r5, r0, r1, lsl #5
 8002078:	f505 6ca0 	add.w	ip, r5, #1280	; 0x500
 800207c:	f89d 4020 	ldrb.w	r4, [sp, #32]
 8002080:	f89d 601c 	ldrb.w	r6, [sp, #28]
 8002084:	f8bd 7024 	ldrh.w	r7, [sp, #36]	; 0x24
 8002088:	f04f 3eff 	mov.w	lr, #4294967295
 800208c:	f001 010f 	and.w	r1, r1, #15
 8002090:	f04f 0801 	mov.w	r8, #1
 8002094:	f8cc e008 	str.w	lr, [ip, #8]
 8002098:	fa08 f101 	lsl.w	r1, r8, r1
 800209c:	fa4f fe82 	sxtb.w	lr, r2
 80020a0:	f500 6980 	add.w	r9, r0, #1024	; 0x400
 80020a4:	2c03      	cmp	r4, #3
 80020a6:	d85d      	bhi.n	8002164 <USB_HC_Init+0xf4>
 80020a8:	e8df f004 	tbb	[pc, r4]
 80020ac:	02493b49 	.word	0x02493b49
 80020b0:	f240 689d 	movw	r8, #1693	; 0x69d
 80020b4:	f1be 0f00 	cmp.w	lr, #0
 80020b8:	f8cc 800c 	str.w	r8, [ip, #12]
 80020bc:	db64      	blt.n	8002188 <USB_HC_Init+0x118>
 80020be:	f8d9 8018 	ldr.w	r8, [r9, #24]
 80020c2:	ea48 0101 	orr.w	r1, r8, r1
 80020c6:	f8c9 1018 	str.w	r1, [r9, #24]
 80020ca:	f8d0 c018 	ldr.w	ip, [r0, #24]
 80020ce:	2100      	movs	r1, #0
 80020d0:	f04c 7c00 	orr.w	ip, ip, #33554432	; 0x2000000
 80020d4:	f8c0 c018 	str.w	ip, [r0, #24]
 80020d8:	4608      	mov	r0, r1
 80020da:	059b      	lsls	r3, r3, #22
 80020dc:	f3c7 070a 	ubfx	r7, r7, #0, #11
 80020e0:	02d2      	lsls	r2, r2, #11
 80020e2:	f003 53fe 	and.w	r3, r3, #532676608	; 0x1fc00000
 80020e6:	433b      	orrs	r3, r7
 80020e8:	f402 47f0 	and.w	r7, r2, #30720	; 0x7800
 80020ec:	04a2      	lsls	r2, r4, #18
 80020ee:	f402 2240 	and.w	r2, r2, #786432	; 0xc0000
 80020f2:	433b      	orrs	r3, r7
 80020f4:	2e02      	cmp	r6, #2
 80020f6:	ea43 0302 	orr.w	r3, r3, r2
 80020fa:	ea43 0300 	orr.w	r3, r3, r0
 80020fe:	bf14      	ite	ne
 8002100:	2200      	movne	r2, #0
 8002102:	f44f 3200 	moveq.w	r2, #131072	; 0x20000
 8002106:	4313      	orrs	r3, r2
 8002108:	2c03      	cmp	r4, #3
 800210a:	f8c5 3500 	str.w	r3, [r5, #1280]	; 0x500
 800210e:	d105      	bne.n	800211c <USB_HC_Init+0xac>
 8002110:	f8d5 3500 	ldr.w	r3, [r5, #1280]	; 0x500
 8002114:	f043 5300 	orr.w	r3, r3, #536870912	; 0x20000000
 8002118:	f8c5 3500 	str.w	r3, [r5, #1280]	; 0x500
 800211c:	4608      	mov	r0, r1
 800211e:	e8bd 83f0 	ldmia.w	sp!, {r4, r5, r6, r7, r8, r9, pc}
 8002122:	f240 2825 	movw	r8, #549	; 0x225
 8002126:	f1be 0f00 	cmp.w	lr, #0
 800212a:	f8cc 800c 	str.w	r8, [ip, #12]
 800212e:	dac6      	bge.n	80020be <USB_HC_Init+0x4e>
 8002130:	f8dc e00c 	ldr.w	lr, [ip, #12]
 8002134:	f44e 7ec0 	orr.w	lr, lr, #384	; 0x180
 8002138:	f8cc e00c 	str.w	lr, [ip, #12]
 800213c:	e02a      	b.n	8002194 <USB_HC_Init+0x124>
 800213e:	f240 489d 	movw	r8, #1181	; 0x49d
 8002142:	f1be 0f00 	cmp.w	lr, #0
 8002146:	f8cc 800c 	str.w	r8, [ip, #12]
 800214a:	db1d      	blt.n	8002188 <USB_HC_Init+0x118>
 800214c:	f8d0 e03c 	ldr.w	lr, [r0, #60]	; 0x3c
 8002150:	f41e 7f80 	tst.w	lr, #256	; 0x100
 8002154:	d0b3      	beq.n	80020be <USB_HC_Init+0x4e>
 8002156:	f8dc e00c 	ldr.w	lr, [ip, #12]
 800215a:	f04e 0e60 	orr.w	lr, lr, #96	; 0x60
 800215e:	f8cc e00c 	str.w	lr, [ip, #12]
 8002162:	e7ac      	b.n	80020be <USB_HC_Init+0x4e>
 8002164:	f8d9 8018 	ldr.w	r8, [r9, #24]
 8002168:	ea48 0101 	orr.w	r1, r8, r1
 800216c:	f8c9 1018 	str.w	r1, [r9, #24]
 8002170:	6981      	ldr	r1, [r0, #24]
 8002172:	f1be 0f00 	cmp.w	lr, #0
 8002176:	f041 7100 	orr.w	r1, r1, #33554432	; 0x2000000
 800217a:	6181      	str	r1, [r0, #24]
 800217c:	bfac      	ite	ge
 800217e:	2000      	movge	r0, #0
 8002180:	f44f 4000 	movlt.w	r0, #32768	; 0x8000
 8002184:	2101      	movs	r1, #1
 8002186:	e7a8      	b.n	80020da <USB_HC_Init+0x6a>
 8002188:	f8dc e00c 	ldr.w	lr, [ip, #12]
 800218c:	f44e 7e80 	orr.w	lr, lr, #256	; 0x100
 8002190:	f8cc e00c 	str.w	lr, [ip, #12]
 8002194:	f8d9 8018 	ldr.w	r8, [r9, #24]
 8002198:	ea41 0108 	orr.w	r1, r1, r8
 800219c:	f8c9 1018 	str.w	r1, [r9, #24]
 80021a0:	6981      	ldr	r1, [r0, #24]
 80021a2:	f041 7100 	orr.w	r1, r1, #33554432	; 0x2000000
 80021a6:	6181      	str	r1, [r0, #24]
 80021a8:	2100      	movs	r1, #0
 80021aa:	f44f 4000 	mov.w	r0, #32768	; 0x8000
 80021ae:	e794      	b.n	80020da <USB_HC_Init+0x6a>

080021b0 <USB_HC_StartXfer>:
 80021b0:	e92d 41f0 	stmdb	sp!, {r4, r5, r6, r7, r8, lr}
 80021b4:	6bc3      	ldr	r3, [r0, #60]	; 0x3c
 80021b6:	784f      	ldrb	r7, [r1, #1]
 80021b8:	05db      	lsls	r3, r3, #23
 80021ba:	eb00 1547 	add.w	r5, r0, r7, lsl #5
 80021be:	f505 6ca0 	add.w	ip, r5, #1280	; 0x500
 80021c2:	d50d      	bpl.n	80021e0 <USB_HC_StartXfer+0x30>
 80021c4:	790b      	ldrb	r3, [r1, #4]
 80021c6:	b95b      	cbnz	r3, 80021e0 <USB_HC_StartXfer+0x30>
 80021c8:	2a00      	cmp	r2, #0
 80021ca:	f000 8088 	beq.w	80022de <USB_HC_StartXfer+0x12e>
 80021ce:	2a01      	cmp	r2, #1
 80021d0:	d106      	bne.n	80021e0 <USB_HC_StartXfer+0x30>
 80021d2:	f8dc 400c 	ldr.w	r4, [ip, #12]
 80021d6:	f024 0460 	bic.w	r4, r4, #96	; 0x60
 80021da:	f8cc 400c 	str.w	r4, [ip, #12]
 80021de:	714b      	strb	r3, [r1, #5]
 80021e0:	690c      	ldr	r4, [r1, #16]
 80021e2:	2c00      	cmp	r4, #0
 80021e4:	d14d      	bne.n	8002282 <USB_HC_StartXfer+0xd2>
 80021e6:	f44f 2e00 	mov.w	lr, #524288	; 0x80000
 80021ea:	f04f 0801 	mov.w	r8, #1
 80021ee:	78ce      	ldrb	r6, [r1, #3]
 80021f0:	b11e      	cbz	r6, 80021fa <USB_HC_StartXfer+0x4a>
 80021f2:	890c      	ldrh	r4, [r1, #8]
 80021f4:	fb08 f404 	mul.w	r4, r8, r4
 80021f8:	610c      	str	r4, [r1, #16]
 80021fa:	7a8b      	ldrb	r3, [r1, #10]
 80021fc:	075b      	lsls	r3, r3, #29
 80021fe:	f003 43c0 	and.w	r3, r3, #1610612736	; 0x60000000
 8002202:	ea43 030e 	orr.w	r3, r3, lr
 8002206:	f3c4 0e12 	ubfx	lr, r4, #0, #19
 800220a:	ea43 030e 	orr.w	r3, r3, lr
 800220e:	f8cc 3010 	str.w	r3, [ip, #16]
 8002212:	b112      	cbz	r2, 800221a <USB_HC_StartXfer+0x6a>
 8002214:	68cb      	ldr	r3, [r1, #12]
 8002216:	f8cc 3014 	str.w	r3, [ip, #20]
 800221a:	f500 6e80 	add.w	lr, r0, #1024	; 0x400
 800221e:	f8de 3008 	ldr.w	r3, [lr, #8]
 8002222:	f8d5 8500 	ldr.w	r8, [r5, #1280]	; 0x500
 8002226:	f8df c134 	ldr.w	ip, [pc, #308]	; 800235c <USB_HC_StartXfer+0x1ac>
 800222a:	f028 5800 	bic.w	r8, r8, #536870912	; 0x20000000
 800222e:	f8c5 8500 	str.w	r8, [r5, #1280]	; 0x500
 8002232:	43db      	mvns	r3, r3
 8002234:	f8d5 8500 	ldr.w	r8, [r5, #1280]	; 0x500
 8002238:	075b      	lsls	r3, r3, #29
 800223a:	f003 5300 	and.w	r3, r3, #536870912	; 0x20000000
 800223e:	ea43 0308 	orr.w	r3, r3, r8
 8002242:	f8c5 3500 	str.w	r3, [r5, #1280]	; 0x500
 8002246:	f8d5 3500 	ldr.w	r3, [r5, #1280]	; 0x500
 800224a:	f8cc 3000 	str.w	r3, [ip]
 800224e:	f8dc 3000 	ldr.w	r3, [ip]
 8002252:	f023 4380 	bic.w	r3, r3, #1073741824	; 0x40000000
 8002256:	f8cc 3000 	str.w	r3, [ip]
 800225a:	f8dc 3000 	ldr.w	r3, [ip]
 800225e:	b1f6      	cbz	r6, 800229e <USB_HC_StartXfer+0xee>
 8002260:	f443 4300 	orr.w	r3, r3, #32768	; 0x8000
 8002264:	f8cc 3000 	str.w	r3, [ip]
 8002268:	f8dc 3000 	ldr.w	r3, [ip]
 800226c:	f043 4300 	orr.w	r3, r3, #2147483648	; 0x80000000
 8002270:	f8cc 3000 	str.w	r3, [ip]
 8002274:	f8dc 3000 	ldr.w	r3, [ip]
 8002278:	f8c5 3500 	str.w	r3, [r5, #1280]	; 0x500
 800227c:	2000      	movs	r0, #0
 800227e:	e8bd 81f0 	ldmia.w	sp!, {r4, r5, r6, r7, r8, pc}
 8002282:	890e      	ldrh	r6, [r1, #8]
 8002284:	1e63      	subs	r3, r4, #1
 8002286:	4433      	add	r3, r6
 8002288:	fbb3 f3f6 	udiv	r3, r3, r6
 800228c:	fa1f fe83 	uxth.w	lr, r3
 8002290:	f5be 7f80 	cmp.w	lr, #256	; 0x100
 8002294:	d81c      	bhi.n	80022d0 <USB_HC_StartXfer+0x120>
 8002296:	46f0      	mov	r8, lr
 8002298:	ea4f 4ec3 	mov.w	lr, r3, lsl #19
 800229c:	e7a7      	b.n	80021ee <USB_HC_StartXfer+0x3e>
 800229e:	f423 4300 	bic.w	r3, r3, #32768	; 0x8000
 80022a2:	f8cc 3000 	str.w	r3, [ip]
 80022a6:	f8dc 3000 	ldr.w	r3, [ip]
 80022aa:	f043 4300 	orr.w	r3, r3, #2147483648	; 0x80000000
 80022ae:	f8cc 3000 	str.w	r3, [ip]
 80022b2:	f8dc 3000 	ldr.w	r3, [ip]
 80022b6:	f8c5 3500 	str.w	r3, [r5, #1280]	; 0x500
 80022ba:	2a00      	cmp	r2, #0
 80022bc:	d1de      	bne.n	800227c <USB_HC_StartXfer+0xcc>
 80022be:	2c00      	cmp	r4, #0
 80022c0:	d0dc      	beq.n	800227c <USB_HC_StartXfer+0xcc>
 80022c2:	79cb      	ldrb	r3, [r1, #7]
 80022c4:	2b03      	cmp	r3, #3
 80022c6:	d822      	bhi.n	800230e <USB_HC_StartXfer+0x15e>
 80022c8:	e8df f003 	tbb	[pc, r3]
 80022cc:	19341934 	.word	0x19341934
 80022d0:	0234      	lsls	r4, r6, #8
 80022d2:	610c      	str	r4, [r1, #16]
 80022d4:	f04f 6e00 	mov.w	lr, #134217728	; 0x8000000
 80022d8:	f44f 7880 	mov.w	r8, #256	; 0x100
 80022dc:	e787      	b.n	80021ee <USB_HC_StartXfer+0x3e>
 80022de:	794b      	ldrb	r3, [r1, #5]
 80022e0:	2b01      	cmp	r3, #1
 80022e2:	f47f af7d 	bne.w	80021e0 <USB_HC_StartXfer+0x30>
 80022e6:	4b1c      	ldr	r3, [pc, #112]	; (8002358 <USB_HC_StartXfer+0x1a8>)
 80022e8:	f8cc 3010 	str.w	r3, [ip, #16]
 80022ec:	f8d5 3500 	ldr.w	r3, [r5, #1280]	; 0x500
 80022f0:	f023 4380 	bic.w	r3, r3, #1073741824	; 0x40000000
 80022f4:	f043 4300 	orr.w	r3, r3, #2147483648	; 0x80000000
 80022f8:	f8c5 3500 	str.w	r3, [r5, #1280]	; 0x500
 80022fc:	e7be      	b.n	800227c <USB_HC_StartXfer+0xcc>
 80022fe:	f8de 2010 	ldr.w	r2, [lr, #16]
 8002302:	1ce3      	adds	r3, r4, #3
 8002304:	b292      	uxth	r2, r2
 8002306:	f3c3 038f 	ubfx	r3, r3, #2, #16
 800230a:	429a      	cmp	r2, r3
 800230c:	d31e      	bcc.n	800234c <USB_HC_StartXfer+0x19c>
 800230e:	b2a3      	uxth	r3, r4
 8002310:	3303      	adds	r3, #3
 8002312:	089b      	lsrs	r3, r3, #2
 8002314:	68ca      	ldr	r2, [r1, #12]
 8002316:	d0b1      	beq.n	800227c <USB_HC_StartXfer+0xcc>
 8002318:	eb00 3007 	add.w	r0, r0, r7, lsl #12
 800231c:	f500 5080 	add.w	r0, r0, #4096	; 0x1000
 8002320:	eb02 0383 	add.w	r3, r2, r3, lsl #2
 8002324:	f852 1b04 	ldr.w	r1, [r2], #4
 8002328:	6001      	str	r1, [r0, #0]
 800232a:	4293      	cmp	r3, r2
 800232c:	d1fa      	bne.n	8002324 <USB_HC_StartXfer+0x174>
 800232e:	2000      	movs	r0, #0
 8002330:	e8bd 81f0 	ldmia.w	sp!, {r4, r5, r6, r7, r8, pc}
 8002334:	6ac2      	ldr	r2, [r0, #44]	; 0x2c
 8002336:	1ce3      	adds	r3, r4, #3
 8002338:	b292      	uxth	r2, r2
 800233a:	f3c3 038f 	ubfx	r3, r3, #2, #16
 800233e:	429a      	cmp	r2, r3
 8002340:	d2e5      	bcs.n	800230e <USB_HC_StartXfer+0x15e>
 8002342:	6983      	ldr	r3, [r0, #24]
 8002344:	f043 0320 	orr.w	r3, r3, #32
 8002348:	6183      	str	r3, [r0, #24]
 800234a:	e7e0      	b.n	800230e <USB_HC_StartXfer+0x15e>
 800234c:	6983      	ldr	r3, [r0, #24]
 800234e:	f043 6380 	orr.w	r3, r3, #67108864	; 0x4000000
 8002352:	6183      	str	r3, [r0, #24]
 8002354:	e7db      	b.n	800230e <USB_HC_StartXfer+0x15e>
 8002356:	bf00      	nop
 8002358:	80080000 	.word	0x80080000
 800235c:	20000028 	.word	0x20000028

08002360 <USB_HC_ReadInterrupt>:
 8002360:	f500 6080 	add.w	r0, r0, #1024	; 0x400
 8002364:	6940      	ldr	r0, [r0, #20]
 8002366:	b280      	uxth	r0, r0
 8002368:	4770      	bx	lr
 800236a:	bf00      	nop

0800236c <USB_HC_Halt>:
 800236c:	eb00 1141 	add.w	r1, r0, r1, lsl #5
 8002370:	b410      	push	{r4}
 8002372:	f8d1 3500 	ldr.w	r3, [r1, #1280]	; 0x500
 8002376:	f413 2f80 	tst.w	r3, #262144	; 0x40000
 800237a:	f8d1 3500 	ldr.w	r3, [r1, #1280]	; 0x500
 800237e:	f043 4380 	orr.w	r3, r3, #1073741824	; 0x40000000
 8002382:	f501 64a0 	add.w	r4, r1, #1280	; 0x500
 8002386:	f8c1 3500 	str.w	r3, [r1, #1280]	; 0x500
 800238a:	d022      	beq.n	80023d2 <USB_HC_Halt+0x66>
 800238c:	f8d0 3410 	ldr.w	r3, [r0, #1040]	; 0x410
 8002390:	f413 0f7f 	tst.w	r3, #16711680	; 0xff0000
 8002394:	f8d1 3500 	ldr.w	r3, [r1, #1280]	; 0x500
 8002398:	d13d      	bne.n	8002416 <USB_HC_Halt+0xaa>
 800239a:	f023 4300 	bic.w	r3, r3, #2147483648	; 0x80000000
 800239e:	f8c1 3500 	str.w	r3, [r1, #1280]	; 0x500
 80023a2:	f8d1 3500 	ldr.w	r3, [r1, #1280]	; 0x500
 80023a6:	f043 4300 	orr.w	r3, r3, #2147483648	; 0x80000000
 80023aa:	f8c1 3500 	str.w	r3, [r1, #1280]	; 0x500
 80023ae:	f8d1 3500 	ldr.w	r3, [r1, #1280]	; 0x500
 80023b2:	f423 4300 	bic.w	r3, r3, #32768	; 0x8000
 80023b6:	f8c1 3500 	str.w	r3, [r1, #1280]	; 0x500
 80023ba:	f44f 737a 	mov.w	r3, #1000	; 0x3e8
 80023be:	e001      	b.n	80023c4 <USB_HC_Halt+0x58>
 80023c0:	3b01      	subs	r3, #1
 80023c2:	d002      	beq.n	80023ca <USB_HC_Halt+0x5e>
 80023c4:	6822      	ldr	r2, [r4, #0]
 80023c6:	2a00      	cmp	r2, #0
 80023c8:	dbfa      	blt.n	80023c0 <USB_HC_Halt+0x54>
 80023ca:	2000      	movs	r0, #0
 80023cc:	f85d 4b04 	ldr.w	r4, [sp], #4
 80023d0:	4770      	bx	lr
 80023d2:	6ac3      	ldr	r3, [r0, #44]	; 0x2c
 80023d4:	f413 0f7f 	tst.w	r3, #16711680	; 0xff0000
 80023d8:	f8d1 3500 	ldr.w	r3, [r1, #1280]	; 0x500
 80023dc:	d11b      	bne.n	8002416 <USB_HC_Halt+0xaa>
 80023de:	f023 4300 	bic.w	r3, r3, #2147483648	; 0x80000000
 80023e2:	f8c1 3500 	str.w	r3, [r1, #1280]	; 0x500
 80023e6:	f8d1 3500 	ldr.w	r3, [r1, #1280]	; 0x500
 80023ea:	f043 4300 	orr.w	r3, r3, #2147483648	; 0x80000000
 80023ee:	f8c1 3500 	str.w	r3, [r1, #1280]	; 0x500
 80023f2:	f8d1 3500 	ldr.w	r3, [r1, #1280]	; 0x500
 80023f6:	f423 4300 	bic.w	r3, r3, #32768	; 0x8000
 80023fa:	f8c1 3500 	str.w	r3, [r1, #1280]	; 0x500
 80023fe:	f44f 737a 	mov.w	r3, #1000	; 0x3e8
 8002402:	e001      	b.n	8002408 <USB_HC_Halt+0x9c>
 8002404:	3b01      	subs	r3, #1
 8002406:	d0e0      	beq.n	80023ca <USB_HC_Halt+0x5e>
 8002408:	6822      	ldr	r2, [r4, #0]
 800240a:	2a00      	cmp	r2, #0
 800240c:	dbfa      	blt.n	8002404 <USB_HC_Halt+0x98>
 800240e:	2000      	movs	r0, #0
 8002410:	f85d 4b04 	ldr.w	r4, [sp], #4
 8002414:	4770      	bx	lr
 8002416:	f043 4300 	orr.w	r3, r3, #2147483648	; 0x80000000
 800241a:	2000      	movs	r0, #0
 800241c:	f8c1 3500 	str.w	r3, [r1, #1280]	; 0x500
 8002420:	f85d 4b04 	ldr.w	r4, [sp], #4
 8002424:	4770      	bx	lr
 8002426:	bf00      	nop

08002428 <USB_StopHost>:
 8002428:	6882      	ldr	r2, [r0, #8]
 800242a:	4b5d      	ldr	r3, [pc, #372]	; (80025a0 <USB_StopHost+0x178>)
 800242c:	f44f 6184 	mov.w	r1, #1056	; 0x420
 8002430:	f022 0201 	bic.w	r2, r2, #1
 8002434:	b410      	push	{r4}
 8002436:	6082      	str	r2, [r0, #8]
 8002438:	6101      	str	r1, [r0, #16]
 800243a:	e001      	b.n	8002440 <USB_StopHost+0x18>
 800243c:	3b01      	subs	r3, #1
 800243e:	d002      	beq.n	8002446 <USB_StopHost+0x1e>
 8002440:	6902      	ldr	r2, [r0, #16]
 8002442:	0691      	lsls	r1, r2, #26
 8002444:	d4fa      	bmi.n	800243c <USB_StopHost+0x14>
 8002446:	2310      	movs	r3, #16
 8002448:	6103      	str	r3, [r0, #16]
 800244a:	4b55      	ldr	r3, [pc, #340]	; (80025a0 <USB_StopHost+0x178>)
 800244c:	e001      	b.n	8002452 <USB_StopHost+0x2a>
 800244e:	3b01      	subs	r3, #1
 8002450:	d002      	beq.n	8002458 <USB_StopHost+0x30>
 8002452:	6902      	ldr	r2, [r0, #16]
 8002454:	06d2      	lsls	r2, r2, #27
 8002456:	d4fa      	bmi.n	800244e <USB_StopHost+0x26>
 8002458:	f8d0 3500 	ldr.w	r3, [r0, #1280]	; 0x500
 800245c:	f023 2380 	bic.w	r3, r3, #2147516416	; 0x80008000
 8002460:	f043 4380 	orr.w	r3, r3, #1073741824	; 0x40000000
 8002464:	f8c0 3500 	str.w	r3, [r0, #1280]	; 0x500
 8002468:	f8d0 3520 	ldr.w	r3, [r0, #1312]	; 0x520
 800246c:	f023 2380 	bic.w	r3, r3, #2147516416	; 0x80008000
 8002470:	f043 4380 	orr.w	r3, r3, #1073741824	; 0x40000000
 8002474:	f8c0 3520 	str.w	r3, [r0, #1312]	; 0x520
 8002478:	f8d0 3540 	ldr.w	r3, [r0, #1344]	; 0x540
 800247c:	f023 2380 	bic.w	r3, r3, #2147516416	; 0x80008000
 8002480:	f043 4380 	orr.w	r3, r3, #1073741824	; 0x40000000
 8002484:	f8c0 3540 	str.w	r3, [r0, #1344]	; 0x540
 8002488:	f8d0 3560 	ldr.w	r3, [r0, #1376]	; 0x560
 800248c:	f023 2380 	bic.w	r3, r3, #2147516416	; 0x80008000
 8002490:	f043 4380 	orr.w	r3, r3, #1073741824	; 0x40000000
 8002494:	f8c0 3560 	str.w	r3, [r0, #1376]	; 0x560
 8002498:	f8d0 3580 	ldr.w	r3, [r0, #1408]	; 0x580
 800249c:	f023 2380 	bic.w	r3, r3, #2147516416	; 0x80008000
 80024a0:	f043 4380 	orr.w	r3, r3, #1073741824	; 0x40000000
 80024a4:	f8c0 3580 	str.w	r3, [r0, #1408]	; 0x580
 80024a8:	f8d0 35a0 	ldr.w	r3, [r0, #1440]	; 0x5a0
 80024ac:	f023 2380 	bic.w	r3, r3, #2147516416	; 0x80008000
 80024b0:	f043 4380 	orr.w	r3, r3, #1073741824	; 0x40000000
 80024b4:	f8c0 35a0 	str.w	r3, [r0, #1440]	; 0x5a0
 80024b8:	f8d0 35c0 	ldr.w	r3, [r0, #1472]	; 0x5c0
 80024bc:	f023 2380 	bic.w	r3, r3, #2147516416	; 0x80008000
 80024c0:	f043 4380 	orr.w	r3, r3, #1073741824	; 0x40000000
 80024c4:	f8c0 35c0 	str.w	r3, [r0, #1472]	; 0x5c0
 80024c8:	f8d0 35e0 	ldr.w	r3, [r0, #1504]	; 0x5e0
 80024cc:	f023 2380 	bic.w	r3, r3, #2147516416	; 0x80008000
 80024d0:	f043 4380 	orr.w	r3, r3, #1073741824	; 0x40000000
 80024d4:	f8c0 35e0 	str.w	r3, [r0, #1504]	; 0x5e0
 80024d8:	f8d0 3600 	ldr.w	r3, [r0, #1536]	; 0x600
 80024dc:	f023 2380 	bic.w	r3, r3, #2147516416	; 0x80008000
 80024e0:	f043 4380 	orr.w	r3, r3, #1073741824	; 0x40000000
 80024e4:	f8c0 3600 	str.w	r3, [r0, #1536]	; 0x600
 80024e8:	f8d0 3620 	ldr.w	r3, [r0, #1568]	; 0x620
 80024ec:	f023 2380 	bic.w	r3, r3, #2147516416	; 0x80008000
 80024f0:	f043 4380 	orr.w	r3, r3, #1073741824	; 0x40000000
 80024f4:	f8c0 3620 	str.w	r3, [r0, #1568]	; 0x620
 80024f8:	f8d0 3640 	ldr.w	r3, [r0, #1600]	; 0x640
 80024fc:	f023 2380 	bic.w	r3, r3, #2147516416	; 0x80008000
 8002500:	f043 4380 	orr.w	r3, r3, #1073741824	; 0x40000000
 8002504:	f8c0 3640 	str.w	r3, [r0, #1600]	; 0x640
 8002508:	f8d0 3660 	ldr.w	r3, [r0, #1632]	; 0x660
 800250c:	f023 2380 	bic.w	r3, r3, #2147516416	; 0x80008000
 8002510:	f043 4380 	orr.w	r3, r3, #1073741824	; 0x40000000
 8002514:	f8c0 3660 	str.w	r3, [r0, #1632]	; 0x660
 8002518:	f8d0 3680 	ldr.w	r3, [r0, #1664]	; 0x680
 800251c:	f023 2380 	bic.w	r3, r3, #2147516416	; 0x80008000
 8002520:	f043 4380 	orr.w	r3, r3, #1073741824	; 0x40000000
 8002524:	f8c0 3680 	str.w	r3, [r0, #1664]	; 0x680
 8002528:	f8d0 36a0 	ldr.w	r3, [r0, #1696]	; 0x6a0
 800252c:	f023 2380 	bic.w	r3, r3, #2147516416	; 0x80008000
 8002530:	f043 4380 	orr.w	r3, r3, #1073741824	; 0x40000000
 8002534:	f8c0 36a0 	str.w	r3, [r0, #1696]	; 0x6a0
 8002538:	f8d0 36c0 	ldr.w	r3, [r0, #1728]	; 0x6c0
 800253c:	f023 2380 	bic.w	r3, r3, #2147516416	; 0x80008000
 8002540:	f043 4380 	orr.w	r3, r3, #1073741824	; 0x40000000
 8002544:	f8c0 36c0 	str.w	r3, [r0, #1728]	; 0x6c0
 8002548:	f8d0 36e0 	ldr.w	r3, [r0, #1760]	; 0x6e0
 800254c:	f023 2380 	bic.w	r3, r3, #2147516416	; 0x80008000
 8002550:	f043 4380 	orr.w	r3, r3, #1073741824	; 0x40000000
 8002554:	f8c0 36e0 	str.w	r3, [r0, #1760]	; 0x6e0
 8002558:	f500 61a0 	add.w	r1, r0, #1280	; 0x500
 800255c:	f500 64e0 	add.w	r4, r0, #1792	; 0x700
 8002560:	2300      	movs	r3, #0
 8002562:	680a      	ldr	r2, [r1, #0]
 8002564:	f422 4200 	bic.w	r2, r2, #32768	; 0x8000
 8002568:	f042 4240 	orr.w	r2, r2, #3221225472	; 0xc0000000
 800256c:	600a      	str	r2, [r1, #0]
 800256e:	e002      	b.n	8002576 <USB_StopHost+0x14e>
 8002570:	680a      	ldr	r2, [r1, #0]
 8002572:	2a00      	cmp	r2, #0
 8002574:	da03      	bge.n	800257e <USB_StopHost+0x156>
 8002576:	3301      	adds	r3, #1
 8002578:	f5b3 7f7a 	cmp.w	r3, #1000	; 0x3e8
 800257c:	d9f8      	bls.n	8002570 <USB_StopHost+0x148>
 800257e:	3120      	adds	r1, #32
 8002580:	42a1      	cmp	r1, r4
 8002582:	d1ee      	bne.n	8002562 <USB_StopHost+0x13a>
 8002584:	f04f 33ff 	mov.w	r3, #4294967295
 8002588:	f8c0 3414 	str.w	r3, [r0, #1044]	; 0x414
 800258c:	6143      	str	r3, [r0, #20]
 800258e:	6883      	ldr	r3, [r0, #8]
 8002590:	f85d 4b04 	ldr.w	r4, [sp], #4
 8002594:	f043 0301 	orr.w	r3, r3, #1
 8002598:	6083      	str	r3, [r0, #8]
 800259a:	2000      	movs	r0, #0
 800259c:	4770      	bx	lr
 800259e:	bf00      	nop
 80025a0:	00030d40 	.word	0x00030d40

080025a4 <USBH_Process>:
 80025a4:	b570      	push	{r4, r5, r6, lr}
 80025a6:	b086      	sub	sp, #24
 80025a8:	f890 331f 	ldrb.w	r3, [r0, #799]	; 0x31f
 80025ac:	2202      	movs	r2, #2
 80025ae:	4604      	mov	r4, r0
 80025b0:	f88d 2017 	strb.w	r2, [sp, #23]
 80025b4:	bb4b      	cbnz	r3, 800260a <USBH_Process+0x66>
 80025b6:	7803      	ldrb	r3, [r0, #0]
 80025b8:	b123      	cbz	r3, 80025c4 <USBH_Process+0x20>
 80025ba:	7803      	ldrb	r3, [r0, #0]
 80025bc:	2b03      	cmp	r3, #3
 80025be:	d001      	beq.n	80025c4 <USBH_Process+0x20>
 80025c0:	2303      	movs	r3, #3
 80025c2:	7003      	strb	r3, [r0, #0]
 80025c4:	7823      	ldrb	r3, [r4, #0]
 80025c6:	2b0b      	cmp	r3, #11
 80025c8:	d81c      	bhi.n	8002604 <USBH_Process+0x60>
 80025ca:	e8df f013 	tbh	[pc, r3, lsl #1]
 80025ce:	003d      	.short	0x003d
 80025d0:	0052001b 	.word	0x0052001b
 80025d4:	001b0082 	.word	0x001b0082
 80025d8:	00c100a9 	.word	0x00c100a9
 80025dc:	00de00d3 	.word	0x00de00d3
 80025e0:	00f100e9 	.word	0x00f100e9
 80025e4:	004a      	.short	0x004a
 80025e6:	f894 1332 	ldrb.w	r1, [r4, #818]	; 0x332
 80025ea:	2900      	cmp	r1, #0
 80025ec:	f040 8174 	bne.w	80028d8 <USBH_Process+0x334>
 80025f0:	f894 3333 	ldrb.w	r3, [r4, #819]	; 0x333
 80025f4:	2200      	movs	r2, #0
 80025f6:	2b01      	cmp	r3, #1
 80025f8:	f884 2320 	strb.w	r2, [r4, #800]	; 0x320
 80025fc:	f000 80c2 	beq.w	8002784 <USBH_Process+0x1e0>
 8002600:	2307      	movs	r3, #7
 8002602:	7023      	strb	r3, [r4, #0]
 8002604:	2000      	movs	r0, #0
 8002606:	b006      	add	sp, #24
 8002608:	bd70      	pop	{r4, r5, r6, pc}
 800260a:	7802      	ldrb	r2, [r0, #0]
 800260c:	2a0b      	cmp	r2, #11
 800260e:	d8f9      	bhi.n	8002604 <USBH_Process+0x60>
 8002610:	a101      	add	r1, pc, #4	; (adr r1, 8002618 <USBH_Process+0x74>)
 8002612:	f851 f022 	ldr.w	pc, [r1, r2, lsl #2]
 8002616:	bf00      	nop
 8002618:	08002649 	.word	0x08002649
 800261c:	080027ed 	.word	0x080027ed
 8002620:	08002673 	.word	0x08002673
 8002624:	080026d3 	.word	0x080026d3
 8002628:	08002605 	.word	0x08002605
 800262c:	08002721 	.word	0x08002721
 8002630:	08002751 	.word	0x08002751
 8002634:	08002775 	.word	0x08002775
 8002638:	0800278b 	.word	0x0800278b
 800263c:	080027a1 	.word	0x080027a1
 8002640:	080027b1 	.word	0x080027b1
 8002644:	08002663 	.word	0x08002663
 8002648:	f894 331e 	ldrb.w	r3, [r4, #798]	; 0x31e
 800264c:	2b00      	cmp	r3, #0
 800264e:	d0d9      	beq.n	8002604 <USBH_Process+0x60>
 8002650:	2301      	movs	r3, #1
 8002652:	7023      	strb	r3, [r4, #0]
 8002654:	20c8      	movs	r0, #200	; 0xc8
 8002656:	f001 fb7f 	bl	8003d58 <USBH_Delay>
 800265a:	4620      	mov	r0, r4
 800265c:	f001 fb38 	bl	8003cd0 <USBH_LL_ResetPort>
 8002660:	e7d0      	b.n	8002604 <USBH_Process+0x60>
 8002662:	f8d4 3378 	ldr.w	r3, [r4, #888]	; 0x378
 8002666:	2b00      	cmp	r3, #0
 8002668:	d0cc      	beq.n	8002604 <USBH_Process+0x60>
 800266a:	695b      	ldr	r3, [r3, #20]
 800266c:	4620      	mov	r0, r4
 800266e:	4798      	blx	r3
 8002670:	e7c8      	b.n	8002604 <USBH_Process+0x60>
 8002672:	2064      	movs	r0, #100	; 0x64
 8002674:	f001 fb70 	bl	8003d58 <USBH_Delay>
 8002678:	4620      	mov	r0, r4
 800267a:	f001 fb1b 	bl	8003cb4 <USBH_LL_GetSpeed>
 800267e:	2305      	movs	r3, #5
 8002680:	7023      	strb	r3, [r4, #0]
 8002682:	f884 031d 	strb.w	r0, [r4, #797]	; 0x31d
 8002686:	2100      	movs	r1, #0
 8002688:	4620      	mov	r0, r4
 800268a:	f000 ffa3 	bl	80035d4 <USBH_AllocPipe>
 800268e:	2180      	movs	r1, #128	; 0x80
 8002690:	7160      	strb	r0, [r4, #5]
 8002692:	4620      	mov	r0, r4
 8002694:	f000 ff9e 	bl	80035d4 <USBH_AllocPipe>
 8002698:	4601      	mov	r1, r0
 800269a:	79a0      	ldrb	r0, [r4, #6]
 800269c:	f894 331c 	ldrb.w	r3, [r4, #796]	; 0x31c
 80026a0:	f894 231d 	ldrb.w	r2, [r4, #797]	; 0x31d
 80026a4:	7121      	strb	r1, [r4, #4]
 80026a6:	2500      	movs	r5, #0
 80026a8:	e9cd 5001 	strd	r5, r0, [sp, #4]
 80026ac:	9200      	str	r2, [sp, #0]
 80026ae:	2280      	movs	r2, #128	; 0x80
 80026b0:	4620      	mov	r0, r4
 80026b2:	f000 ff7f 	bl	80035b4 <USBH_OpenPipe>
 80026b6:	f894 031d 	ldrb.w	r0, [r4, #797]	; 0x31d
 80026ba:	79a6      	ldrb	r6, [r4, #6]
 80026bc:	f894 331c 	ldrb.w	r3, [r4, #796]	; 0x31c
 80026c0:	7961      	ldrb	r1, [r4, #5]
 80026c2:	9000      	str	r0, [sp, #0]
 80026c4:	9501      	str	r5, [sp, #4]
 80026c6:	462a      	mov	r2, r5
 80026c8:	9602      	str	r6, [sp, #8]
 80026ca:	4620      	mov	r0, r4
 80026cc:	f000 ff72 	bl	80035b4 <USBH_OpenPipe>
 80026d0:	e798      	b.n	8002604 <USBH_Process+0x60>
 80026d2:	223c      	movs	r2, #60	; 0x3c
 80026d4:	2100      	movs	r1, #0
 80026d6:	f504 7060 	add.w	r0, r4, #896	; 0x380
 80026da:	f001 fb8d 	bl	8003df8 <memset>
 80026de:	f44f 7200 	mov.w	r2, #512	; 0x200
 80026e2:	2100      	movs	r1, #0
 80026e4:	f504 708e 	add.w	r0, r4, #284	; 0x11c
 80026e8:	f001 fb86 	bl	8003df8 <memset>
 80026ec:	f8d4 2378 	ldr.w	r2, [r4, #888]	; 0x378
 80026f0:	2500      	movs	r5, #0
 80026f2:	2301      	movs	r3, #1
 80026f4:	2040      	movs	r0, #64	; 0x40
 80026f6:	f44f 7180 	mov.w	r1, #256	; 0x100
 80026fa:	7025      	strb	r5, [r4, #0]
 80026fc:	7065      	strb	r5, [r4, #1]
 80026fe:	f8c4 53bc 	str.w	r5, [r4, #956]	; 0x3bc
 8002702:	7665      	strb	r5, [r4, #25]
 8002704:	70a3      	strb	r3, [r4, #2]
 8002706:	7623      	strb	r3, [r4, #24]
 8002708:	71a0      	strb	r0, [r4, #6]
 800270a:	f8a4 131c 	strh.w	r1, [r4, #796]	; 0x31c
 800270e:	2a00      	cmp	r2, #0
 8002710:	f43f af78 	beq.w	8002604 <USBH_Process+0x60>
 8002714:	68d3      	ldr	r3, [r2, #12]
 8002716:	4620      	mov	r0, r4
 8002718:	4798      	blx	r3
 800271a:	f8c4 5378 	str.w	r5, [r4, #888]	; 0x378
 800271e:	e771      	b.n	8002604 <USBH_Process+0x60>
 8002720:	7863      	ldrb	r3, [r4, #1]
 8002722:	2b07      	cmp	r3, #7
 8002724:	f63f af6e 	bhi.w	8002604 <USBH_Process+0x60>
 8002728:	a201      	add	r2, pc, #4	; (adr r2, 8002730 <USBH_Process+0x18c>)
 800272a:	f852 f023 	ldr.w	pc, [r2, r3, lsl #2]
 800272e:	bf00      	nop
 8002730:	0800283f 	.word	0x0800283f
 8002734:	08002807 	.word	0x08002807
 8002738:	0800287f 	.word	0x0800287f
 800273c:	0800286b 	.word	0x0800286b
 8002740:	08002829 	.word	0x08002829
 8002744:	0800281b 	.word	0x0800281b
 8002748:	080027f9 	.word	0x080027f9
 800274c:	080025e7 	.word	0x080025e7
 8002750:	f8d4 3378 	ldr.w	r3, [r4, #888]	; 0x378
 8002754:	2b00      	cmp	r3, #0
 8002756:	f000 80b2 	beq.w	80028be <USBH_Process+0x31a>
 800275a:	691b      	ldr	r3, [r3, #16]
 800275c:	4620      	mov	r0, r4
 800275e:	4798      	blx	r3
 8002760:	f88d 0017 	strb.w	r0, [sp, #23]
 8002764:	f89d 3017 	ldrb.w	r3, [sp, #23]
 8002768:	2b00      	cmp	r3, #0
 800276a:	f47f af4b 	bne.w	8002604 <USBH_Process+0x60>
 800276e:	230b      	movs	r3, #11
 8002770:	7023      	strb	r3, [r4, #0]
 8002772:	e747      	b.n	8002604 <USBH_Process+0x60>
 8002774:	f8d4 33c8 	ldr.w	r3, [r4, #968]	; 0x3c8
 8002778:	2b00      	cmp	r3, #0
 800277a:	f43f af43 	beq.w	8002604 <USBH_Process+0x60>
 800277e:	2101      	movs	r1, #1
 8002780:	4620      	mov	r0, r4
 8002782:	4798      	blx	r3
 8002784:	2308      	movs	r3, #8
 8002786:	7023      	strb	r3, [r4, #0]
 8002788:	e73c      	b.n	8002604 <USBH_Process+0x60>
 800278a:	f894 1339 	ldrb.w	r1, [r4, #825]	; 0x339
 800278e:	4620      	mov	r0, r4
 8002790:	f000 fd2c 	bl	80031ec <USBH_SetCfg>
 8002794:	2800      	cmp	r0, #0
 8002796:	f47f af35 	bne.w	8002604 <USBH_Process+0x60>
 800279a:	2309      	movs	r3, #9
 800279c:	7023      	strb	r3, [r4, #0]
 800279e:	e731      	b.n	8002604 <USBH_Process+0x60>
 80027a0:	f894 333b 	ldrb.w	r3, [r4, #827]	; 0x33b
 80027a4:	069b      	lsls	r3, r3, #26
 80027a6:	f100 8082 	bmi.w	80028ae <USBH_Process+0x30a>
 80027aa:	230a      	movs	r3, #10
 80027ac:	7023      	strb	r3, [r4, #0]
 80027ae:	e729      	b.n	8002604 <USBH_Process+0x60>
 80027b0:	f8d4 337c 	ldr.w	r3, [r4, #892]	; 0x37c
 80027b4:	2b00      	cmp	r3, #0
 80027b6:	f43f af25 	beq.w	8002604 <USBH_Process+0x60>
 80027ba:	2200      	movs	r2, #0
 80027bc:	f8d4 3374 	ldr.w	r3, [r4, #884]	; 0x374
 80027c0:	f8c4 2378 	str.w	r2, [r4, #888]	; 0x378
 80027c4:	7919      	ldrb	r1, [r3, #4]
 80027c6:	f894 2343 	ldrb.w	r2, [r4, #835]	; 0x343
 80027ca:	4291      	cmp	r1, r2
 80027cc:	d177      	bne.n	80028be <USBH_Process+0x31a>
 80027ce:	f8c4 3378 	str.w	r3, [r4, #888]	; 0x378
 80027d2:	4620      	mov	r0, r4
 80027d4:	689b      	ldr	r3, [r3, #8]
 80027d6:	4798      	blx	r3
 80027d8:	2800      	cmp	r0, #0
 80027da:	d170      	bne.n	80028be <USBH_Process+0x31a>
 80027dc:	2306      	movs	r3, #6
 80027de:	7023      	strb	r3, [r4, #0]
 80027e0:	4620      	mov	r0, r4
 80027e2:	f8d4 33c8 	ldr.w	r3, [r4, #968]	; 0x3c8
 80027e6:	2103      	movs	r1, #3
 80027e8:	4798      	blx	r3
 80027ea:	e70b      	b.n	8002604 <USBH_Process+0x60>
 80027ec:	2b01      	cmp	r3, #1
 80027ee:	f47f af09 	bne.w	8002604 <USBH_Process+0x60>
 80027f2:	2302      	movs	r3, #2
 80027f4:	7003      	strb	r3, [r0, #0]
 80027f6:	e705      	b.n	8002604 <USBH_Process+0x60>
 80027f8:	f894 1331 	ldrb.w	r1, [r4, #817]	; 0x331
 80027fc:	2900      	cmp	r1, #0
 80027fe:	d161      	bne.n	80028c4 <USBH_Process+0x320>
 8002800:	2307      	movs	r3, #7
 8002802:	7063      	strb	r3, [r4, #1]
 8002804:	e6fe      	b.n	8002604 <USBH_Process+0x60>
 8002806:	2112      	movs	r1, #18
 8002808:	4620      	mov	r0, r4
 800280a:	f000 f8c3 	bl	8002994 <USBH_Get_DevDesc>
 800280e:	2800      	cmp	r0, #0
 8002810:	f47f aef8 	bne.w	8002604 <USBH_Process+0x60>
 8002814:	2302      	movs	r3, #2
 8002816:	7063      	strb	r3, [r4, #1]
 8002818:	e6f4      	b.n	8002604 <USBH_Process+0x60>
 800281a:	f894 1330 	ldrb.w	r1, [r4, #816]	; 0x330
 800281e:	2900      	cmp	r1, #0
 8002820:	d164      	bne.n	80028ec <USBH_Process+0x348>
 8002822:	2306      	movs	r3, #6
 8002824:	7063      	strb	r3, [r4, #1]
 8002826:	e6ed      	b.n	8002604 <USBH_Process+0x60>
 8002828:	f8b4 1336 	ldrh.w	r1, [r4, #822]	; 0x336
 800282c:	4620      	mov	r0, r4
 800282e:	f000 f9af 	bl	8002b90 <USBH_Get_CfgDesc>
 8002832:	2800      	cmp	r0, #0
 8002834:	f47f aee6 	bne.w	8002604 <USBH_Process+0x60>
 8002838:	2305      	movs	r3, #5
 800283a:	7063      	strb	r3, [r4, #1]
 800283c:	e6e2      	b.n	8002604 <USBH_Process+0x60>
 800283e:	2108      	movs	r1, #8
 8002840:	4620      	mov	r0, r4
 8002842:	f000 f8a7 	bl	8002994 <USBH_Get_DevDesc>
 8002846:	4605      	mov	r5, r0
 8002848:	2800      	cmp	r0, #0
 800284a:	f47f aedb 	bne.w	8002604 <USBH_Process+0x60>
 800284e:	f894 2329 	ldrb.w	r2, [r4, #809]	; 0x329
 8002852:	f894 031d 	ldrb.w	r0, [r4, #797]	; 0x31d
 8002856:	f894 331c 	ldrb.w	r3, [r4, #796]	; 0x31c
 800285a:	7921      	ldrb	r1, [r4, #4]
 800285c:	9501      	str	r5, [sp, #4]
 800285e:	2601      	movs	r6, #1
 8002860:	71a2      	strb	r2, [r4, #6]
 8002862:	9202      	str	r2, [sp, #8]
 8002864:	7066      	strb	r6, [r4, #1]
 8002866:	9000      	str	r0, [sp, #0]
 8002868:	e721      	b.n	80026ae <USBH_Process+0x10a>
 800286a:	2109      	movs	r1, #9
 800286c:	4620      	mov	r0, r4
 800286e:	f000 f98f 	bl	8002b90 <USBH_Get_CfgDesc>
 8002872:	2800      	cmp	r0, #0
 8002874:	f47f aec6 	bne.w	8002604 <USBH_Process+0x60>
 8002878:	2304      	movs	r3, #4
 800287a:	7063      	strb	r3, [r4, #1]
 800287c:	e6c2      	b.n	8002604 <USBH_Process+0x60>
 800287e:	2101      	movs	r1, #1
 8002880:	4620      	mov	r0, r4
 8002882:	f000 fbdd 	bl	8003040 <USBH_SetAddress>
 8002886:	4605      	mov	r5, r0
 8002888:	2800      	cmp	r0, #0
 800288a:	f47f aebb 	bne.w	8002604 <USBH_Process+0x60>
 800288e:	2002      	movs	r0, #2
 8002890:	f001 fa62 	bl	8003d58 <USBH_Delay>
 8002894:	2603      	movs	r6, #3
 8002896:	79a0      	ldrb	r0, [r4, #6]
 8002898:	f894 231d 	ldrb.w	r2, [r4, #797]	; 0x31d
 800289c:	7921      	ldrb	r1, [r4, #4]
 800289e:	9501      	str	r5, [sp, #4]
 80028a0:	2301      	movs	r3, #1
 80028a2:	f884 331c 	strb.w	r3, [r4, #796]	; 0x31c
 80028a6:	7066      	strb	r6, [r4, #1]
 80028a8:	9002      	str	r0, [sp, #8]
 80028aa:	9200      	str	r2, [sp, #0]
 80028ac:	e6ff      	b.n	80026ae <USBH_Process+0x10a>
 80028ae:	2101      	movs	r1, #1
 80028b0:	4620      	mov	r0, r4
 80028b2:	f000 fd71 	bl	8003398 <USBH_SetFeature>
 80028b6:	2800      	cmp	r0, #0
 80028b8:	f47f aea4 	bne.w	8002604 <USBH_Process+0x60>
 80028bc:	e775      	b.n	80027aa <USBH_Process+0x206>
 80028be:	230d      	movs	r3, #13
 80028c0:	7023      	strb	r3, [r4, #0]
 80028c2:	e69f      	b.n	8002604 <USBH_Process+0x60>
 80028c4:	23ff      	movs	r3, #255	; 0xff
 80028c6:	f504 728e 	add.w	r2, r4, #284	; 0x11c
 80028ca:	4620      	mov	r0, r4
 80028cc:	f000 fab4 	bl	8002e38 <USBH_Get_StringDesc>
 80028d0:	2800      	cmp	r0, #0
 80028d2:	f47f ae97 	bne.w	8002604 <USBH_Process+0x60>
 80028d6:	e793      	b.n	8002800 <USBH_Process+0x25c>
 80028d8:	23ff      	movs	r3, #255	; 0xff
 80028da:	f504 728e 	add.w	r2, r4, #284	; 0x11c
 80028de:	4620      	mov	r0, r4
 80028e0:	f000 faaa 	bl	8002e38 <USBH_Get_StringDesc>
 80028e4:	2800      	cmp	r0, #0
 80028e6:	f43f ae83 	beq.w	80025f0 <USBH_Process+0x4c>
 80028ea:	e68b      	b.n	8002604 <USBH_Process+0x60>
 80028ec:	23ff      	movs	r3, #255	; 0xff
 80028ee:	f504 728e 	add.w	r2, r4, #284	; 0x11c
 80028f2:	4620      	mov	r0, r4
 80028f4:	f000 faa0 	bl	8002e38 <USBH_Get_StringDesc>
 80028f8:	2800      	cmp	r0, #0
 80028fa:	f47f ae83 	bne.w	8002604 <USBH_Process+0x60>
 80028fe:	e790      	b.n	8002822 <USBH_Process+0x27e>

08002900 <USBH_LL_IncTimer>:
 8002900:	f8d0 23bc 	ldr.w	r2, [r0, #956]	; 0x3bc
 8002904:	3201      	adds	r2, #1
 8002906:	f8c0 23bc 	str.w	r2, [r0, #956]	; 0x3bc
 800290a:	7802      	ldrb	r2, [r0, #0]
 800290c:	2a0b      	cmp	r2, #11
 800290e:	d000      	beq.n	8002912 <USBH_LL_IncTimer+0x12>
 8002910:	4770      	bx	lr
 8002912:	f8d0 3378 	ldr.w	r3, [r0, #888]	; 0x378
 8002916:	2b00      	cmp	r3, #0
 8002918:	d0fa      	beq.n	8002910 <USBH_LL_IncTimer+0x10>
 800291a:	699b      	ldr	r3, [r3, #24]
 800291c:	4718      	bx	r3
 800291e:	bf00      	nop

08002920 <USBH_LL_PortEnabled>:
 8002920:	2301      	movs	r3, #1
 8002922:	f880 331f 	strb.w	r3, [r0, #799]	; 0x31f
 8002926:	4770      	bx	lr

08002928 <USBH_LL_PortDisabled>:
 8002928:	2300      	movs	r3, #0
 800292a:	f880 331f 	strb.w	r3, [r0, #799]	; 0x31f
 800292e:	4770      	bx	lr

08002930 <USBH_LL_Connect>:
 8002930:	7802      	ldrb	r2, [r0, #0]
 8002932:	b508      	push	{r3, lr}
 8002934:	b94a      	cbnz	r2, 800294a <USBH_LL_Connect+0x1a>
 8002936:	f8d0 23c8 	ldr.w	r2, [r0, #968]	; 0x3c8
 800293a:	2101      	movs	r1, #1
 800293c:	f880 131e 	strb.w	r1, [r0, #798]	; 0x31e
 8002940:	b10a      	cbz	r2, 8002946 <USBH_LL_Connect+0x16>
 8002942:	2104      	movs	r1, #4
 8002944:	4790      	blx	r2
 8002946:	2000      	movs	r0, #0
 8002948:	bd08      	pop	{r3, pc}
 800294a:	f890 231f 	ldrb.w	r2, [r0, #799]	; 0x31f
 800294e:	2a01      	cmp	r2, #1
 8002950:	bf04      	itt	eq
 8002952:	2202      	moveq	r2, #2
 8002954:	7002      	strbeq	r2, [r0, #0]
 8002956:	2000      	movs	r0, #0
 8002958:	bd08      	pop	{r3, pc}
 800295a:	bf00      	nop

0800295c <USBH_LL_Disconnect>:
 800295c:	b510      	push	{r4, lr}
 800295e:	4604      	mov	r4, r0
 8002960:	f001 f99a 	bl	8003c98 <USBH_LL_Stop>
 8002964:	7921      	ldrb	r1, [r4, #4]
 8002966:	4620      	mov	r0, r4
 8002968:	f000 fe88 	bl	800367c <USBH_FreePipe>
 800296c:	7961      	ldrb	r1, [r4, #5]
 800296e:	4620      	mov	r0, r4
 8002970:	f000 fe84 	bl	800367c <USBH_FreePipe>
 8002974:	f8d4 33c8 	ldr.w	r3, [r4, #968]	; 0x3c8
 8002978:	2200      	movs	r2, #0
 800297a:	f884 231e 	strb.w	r2, [r4, #798]	; 0x31e
 800297e:	b113      	cbz	r3, 8002986 <USBH_LL_Disconnect+0x2a>
 8002980:	2105      	movs	r1, #5
 8002982:	4620      	mov	r0, r4
 8002984:	4798      	blx	r3
 8002986:	4620      	mov	r0, r4
 8002988:	f001 f978 	bl	8003c7c <USBH_LL_Start>
 800298c:	2303      	movs	r3, #3
 800298e:	7023      	strb	r3, [r4, #0]
 8002990:	2000      	movs	r0, #0
 8002992:	bd10      	pop	{r4, pc}

08002994 <USBH_Get_DevDesc>:
 8002994:	b570      	push	{r4, r5, r6, lr}
 8002996:	7883      	ldrb	r3, [r0, #2]
 8002998:	2b01      	cmp	r3, #1
 800299a:	b082      	sub	sp, #8
 800299c:	d013      	beq.n	80029c6 <USBH_Get_DevDesc+0x32>
 800299e:	2b02      	cmp	r3, #2
 80029a0:	d003      	beq.n	80029aa <USBH_Get_DevDesc+0x16>
 80029a2:	2301      	movs	r3, #1
 80029a4:	4618      	mov	r0, r3
 80029a6:	b002      	add	sp, #8
 80029a8:	bd70      	pop	{r4, r5, r6, pc}
 80029aa:	7e03      	ldrb	r3, [r0, #24]
 80029ac:	3b01      	subs	r3, #1
 80029ae:	460d      	mov	r5, r1
 80029b0:	4604      	mov	r4, r0
 80029b2:	2b0a      	cmp	r3, #10
 80029b4:	d8f5      	bhi.n	80029a2 <USBH_Get_DevDesc+0xe>
 80029b6:	e8df f003 	tbb	[pc, r3]
 80029ba:	2f26      	.short	0x2f26
 80029bc:	6153493d 	.word	0x6153493d
 80029c0:	998b7b6f 	.word	0x998b7b6f
 80029c4:	15          	.byte	0x15
 80029c5:	00          	.byte	0x00
 80029c6:	f500 748e 	add.w	r4, r0, #284	; 0x11c
 80029ca:	4e70      	ldr	r6, [pc, #448]	; (8002b8c <USBH_Get_DevDesc+0x1f8>)
 80029cc:	82c1      	strh	r1, [r0, #22]
 80029ce:	2500      	movs	r5, #0
 80029d0:	2202      	movs	r2, #2
 80029d2:	8181      	strh	r1, [r0, #12]
 80029d4:	7603      	strb	r3, [r0, #24]
 80029d6:	6106      	str	r6, [r0, #16]
 80029d8:	8285      	strh	r5, [r0, #20]
 80029da:	6084      	str	r4, [r0, #8]
 80029dc:	7082      	strb	r2, [r0, #2]
 80029de:	4618      	mov	r0, r3
 80029e0:	b002      	add	sp, #8
 80029e2:	bd70      	pop	{r4, r5, r6, pc}
 80029e4:	7e43      	ldrb	r3, [r0, #25]
 80029e6:	3301      	adds	r3, #1
 80029e8:	b2db      	uxtb	r3, r3
 80029ea:	2b02      	cmp	r3, #2
 80029ec:	7643      	strb	r3, [r0, #25]
 80029ee:	f240 80c3 	bls.w	8002b78 <USBH_Get_DevDesc+0x1e4>
 80029f2:	f8d0 33c8 	ldr.w	r3, [r0, #968]	; 0x3c8
 80029f6:	2106      	movs	r1, #6
 80029f8:	4798      	blx	r3
 80029fa:	2300      	movs	r3, #0
 80029fc:	7663      	strb	r3, [r4, #25]
 80029fe:	2301      	movs	r3, #1
 8002a00:	70a3      	strb	r3, [r4, #2]
 8002a02:	2302      	movs	r3, #2
 8002a04:	e7ce      	b.n	80029a4 <USBH_Get_DevDesc+0x10>
 8002a06:	7942      	ldrb	r2, [r0, #5]
 8002a08:	f100 0110 	add.w	r1, r0, #16
 8002a0c:	f000 fd9a 	bl	8003544 <USBH_CtlSendSetup>
 8002a10:	2302      	movs	r3, #2
 8002a12:	7623      	strb	r3, [r4, #24]
 8002a14:	2301      	movs	r3, #1
 8002a16:	e7c5      	b.n	80029a4 <USBH_Get_DevDesc+0x10>
 8002a18:	7941      	ldrb	r1, [r0, #5]
 8002a1a:	f001 f999 	bl	8003d50 <USBH_LL_GetURBState>
 8002a1e:	2801      	cmp	r0, #1
 8002a20:	f000 809f 	beq.w	8002b62 <USBH_Get_DevDesc+0x1ce>
 8002a24:	2804      	cmp	r0, #4
 8002a26:	d001      	beq.n	8002a2c <USBH_Get_DevDesc+0x98>
 8002a28:	2802      	cmp	r0, #2
 8002a2a:	d1ba      	bne.n	80029a2 <USBH_Get_DevDesc+0xe>
 8002a2c:	230b      	movs	r3, #11
 8002a2e:	7623      	strb	r3, [r4, #24]
 8002a30:	2301      	movs	r3, #1
 8002a32:	e7b7      	b.n	80029a4 <USBH_Get_DevDesc+0x10>
 8002a34:	f8d0 33bc 	ldr.w	r3, [r0, #956]	; 0x3bc
 8002a38:	81c3      	strh	r3, [r0, #14]
 8002a3a:	8982      	ldrh	r2, [r0, #12]
 8002a3c:	7903      	ldrb	r3, [r0, #4]
 8002a3e:	6881      	ldr	r1, [r0, #8]
 8002a40:	f000 fda8 	bl	8003594 <USBH_CtlReceiveData>
 8002a44:	2304      	movs	r3, #4
 8002a46:	7623      	strb	r3, [r4, #24]
 8002a48:	2301      	movs	r3, #1
 8002a4a:	e7ab      	b.n	80029a4 <USBH_Get_DevDesc+0x10>
 8002a4c:	7901      	ldrb	r1, [r0, #4]
 8002a4e:	f001 f97f 	bl	8003d50 <USBH_LL_GetURBState>
 8002a52:	2801      	cmp	r0, #1
 8002a54:	d051      	beq.n	8002afa <USBH_Get_DevDesc+0x166>
 8002a56:	2805      	cmp	r0, #5
 8002a58:	d034      	beq.n	8002ac4 <USBH_Get_DevDesc+0x130>
 8002a5a:	2804      	cmp	r0, #4
 8002a5c:	d1a1      	bne.n	80029a2 <USBH_Get_DevDesc+0xe>
 8002a5e:	e7e5      	b.n	8002a2c <USBH_Get_DevDesc+0x98>
 8002a60:	2501      	movs	r5, #1
 8002a62:	7943      	ldrb	r3, [r0, #5]
 8002a64:	8982      	ldrh	r2, [r0, #12]
 8002a66:	6881      	ldr	r1, [r0, #8]
 8002a68:	9500      	str	r5, [sp, #0]
 8002a6a:	f000 fd7b 	bl	8003564 <USBH_CtlSendData>
 8002a6e:	f8d4 33bc 	ldr.w	r3, [r4, #956]	; 0x3bc
 8002a72:	81e3      	strh	r3, [r4, #14]
 8002a74:	2206      	movs	r2, #6
 8002a76:	462b      	mov	r3, r5
 8002a78:	7622      	strb	r2, [r4, #24]
 8002a7a:	e793      	b.n	80029a4 <USBH_Get_DevDesc+0x10>
 8002a7c:	7941      	ldrb	r1, [r0, #5]
 8002a7e:	f001 f967 	bl	8003d50 <USBH_LL_GetURBState>
 8002a82:	2801      	cmp	r0, #1
 8002a84:	d069      	beq.n	8002b5a <USBH_Get_DevDesc+0x1c6>
 8002a86:	2805      	cmp	r0, #5
 8002a88:	d01c      	beq.n	8002ac4 <USBH_Get_DevDesc+0x130>
 8002a8a:	2802      	cmp	r0, #2
 8002a8c:	d070      	beq.n	8002b70 <USBH_Get_DevDesc+0x1dc>
 8002a8e:	2804      	cmp	r0, #4
 8002a90:	d187      	bne.n	80029a2 <USBH_Get_DevDesc+0xe>
 8002a92:	230b      	movs	r3, #11
 8002a94:	7623      	strb	r3, [r4, #24]
 8002a96:	e7b2      	b.n	80029fe <USBH_Get_DevDesc+0x6a>
 8002a98:	2200      	movs	r2, #0
 8002a9a:	7903      	ldrb	r3, [r0, #4]
 8002a9c:	4611      	mov	r1, r2
 8002a9e:	f000 fd79 	bl	8003594 <USBH_CtlReceiveData>
 8002aa2:	f8d4 33bc 	ldr.w	r3, [r4, #956]	; 0x3bc
 8002aa6:	81e3      	strh	r3, [r4, #14]
 8002aa8:	2308      	movs	r3, #8
 8002aaa:	7623      	strb	r3, [r4, #24]
 8002aac:	2301      	movs	r3, #1
 8002aae:	e779      	b.n	80029a4 <USBH_Get_DevDesc+0x10>
 8002ab0:	7901      	ldrb	r1, [r0, #4]
 8002ab2:	f001 f94d 	bl	8003d50 <USBH_LL_GetURBState>
 8002ab6:	2801      	cmp	r0, #1
 8002ab8:	d023      	beq.n	8002b02 <USBH_Get_DevDesc+0x16e>
 8002aba:	2804      	cmp	r0, #4
 8002abc:	d0b6      	beq.n	8002a2c <USBH_Get_DevDesc+0x98>
 8002abe:	2805      	cmp	r0, #5
 8002ac0:	f47f af6f 	bne.w	80029a2 <USBH_Get_DevDesc+0xe>
 8002ac4:	2300      	movs	r3, #0
 8002ac6:	2201      	movs	r2, #1
 8002ac8:	7623      	strb	r3, [r4, #24]
 8002aca:	70a2      	strb	r2, [r4, #2]
 8002acc:	2303      	movs	r3, #3
 8002ace:	e769      	b.n	80029a4 <USBH_Get_DevDesc+0x10>
 8002ad0:	2200      	movs	r2, #0
 8002ad2:	2501      	movs	r5, #1
 8002ad4:	7943      	ldrb	r3, [r0, #5]
 8002ad6:	9500      	str	r5, [sp, #0]
 8002ad8:	4611      	mov	r1, r2
 8002ada:	f000 fd43 	bl	8003564 <USBH_CtlSendData>
 8002ade:	f8d4 33bc 	ldr.w	r3, [r4, #956]	; 0x3bc
 8002ae2:	81e3      	strh	r3, [r4, #14]
 8002ae4:	220a      	movs	r2, #10
 8002ae6:	462b      	mov	r3, r5
 8002ae8:	7622      	strb	r2, [r4, #24]
 8002aea:	e75b      	b.n	80029a4 <USBH_Get_DevDesc+0x10>
 8002aec:	7941      	ldrb	r1, [r0, #5]
 8002aee:	f001 f92f 	bl	8003d50 <USBH_LL_GetURBState>
 8002af2:	2801      	cmp	r0, #1
 8002af4:	d005      	beq.n	8002b02 <USBH_Get_DevDesc+0x16e>
 8002af6:	2802      	cmp	r0, #2
 8002af8:	d1af      	bne.n	8002a5a <USBH_Get_DevDesc+0xc6>
 8002afa:	2309      	movs	r3, #9
 8002afc:	7623      	strb	r3, [r4, #24]
 8002afe:	2301      	movs	r3, #1
 8002b00:	e750      	b.n	80029a4 <USBH_Get_DevDesc+0x10>
 8002b02:	2101      	movs	r1, #1
 8002b04:	f894 211c 	ldrb.w	r2, [r4, #284]	; 0x11c
 8002b08:	f894 011d 	ldrb.w	r0, [r4, #285]	; 0x11d
 8002b0c:	70a1      	strb	r1, [r4, #2]
 8002b0e:	2300      	movs	r3, #0
 8002b10:	f8b4 111e 	ldrh.w	r1, [r4, #286]	; 0x11e
 8002b14:	f884 2322 	strb.w	r2, [r4, #802]	; 0x322
 8002b18:	2d08      	cmp	r5, #8
 8002b1a:	f8d4 2120 	ldr.w	r2, [r4, #288]	; 0x120
 8002b1e:	7623      	strb	r3, [r4, #24]
 8002b20:	f884 0323 	strb.w	r0, [r4, #803]	; 0x323
 8002b24:	f8a4 1324 	strh.w	r1, [r4, #804]	; 0x324
 8002b28:	f8c4 2326 	str.w	r2, [r4, #806]	; 0x326
 8002b2c:	f67f af3a 	bls.w	80029a4 <USBH_Get_DevDesc+0x10>
 8002b30:	f8b4 0126 	ldrh.w	r0, [r4, #294]	; 0x126
 8002b34:	f8b4 5124 	ldrh.w	r5, [r4, #292]	; 0x124
 8002b38:	f8b4 1128 	ldrh.w	r1, [r4, #296]	; 0x128
 8002b3c:	f8d4 212a 	ldr.w	r2, [r4, #298]	; 0x12a
 8002b40:	f8a4 032c 	strh.w	r0, [r4, #812]	; 0x32c
 8002b44:	4618      	mov	r0, r3
 8002b46:	f8a4 532a 	strh.w	r5, [r4, #810]	; 0x32a
 8002b4a:	f8a4 132e 	strh.w	r1, [r4, #814]	; 0x32e
 8002b4e:	f8c4 2330 	str.w	r2, [r4, #816]	; 0x330
 8002b52:	b002      	add	sp, #8
 8002b54:	bd70      	pop	{r4, r5, r6, pc}
 8002b56:	2a00      	cmp	r2, #0
 8002b58:	dbcf      	blt.n	8002afa <USBH_Get_DevDesc+0x166>
 8002b5a:	2307      	movs	r3, #7
 8002b5c:	7623      	strb	r3, [r4, #24]
 8002b5e:	2301      	movs	r3, #1
 8002b60:	e720      	b.n	80029a4 <USBH_Get_DevDesc+0x10>
 8002b62:	8ae3      	ldrh	r3, [r4, #22]
 8002b64:	f994 2010 	ldrsb.w	r2, [r4, #16]
 8002b68:	2b00      	cmp	r3, #0
 8002b6a:	d0f4      	beq.n	8002b56 <USBH_Get_DevDesc+0x1c2>
 8002b6c:	2a00      	cmp	r2, #0
 8002b6e:	db09      	blt.n	8002b84 <USBH_Get_DevDesc+0x1f0>
 8002b70:	2305      	movs	r3, #5
 8002b72:	7623      	strb	r3, [r4, #24]
 8002b74:	2301      	movs	r3, #1
 8002b76:	e715      	b.n	80029a4 <USBH_Get_DevDesc+0x10>
 8002b78:	f001 f88e 	bl	8003c98 <USBH_LL_Stop>
 8002b7c:	2301      	movs	r3, #1
 8002b7e:	7623      	strb	r3, [r4, #24]
 8002b80:	70a3      	strb	r3, [r4, #2]
 8002b82:	e70f      	b.n	80029a4 <USBH_Get_DevDesc+0x10>
 8002b84:	2203      	movs	r2, #3
 8002b86:	4603      	mov	r3, r0
 8002b88:	7622      	strb	r2, [r4, #24]
 8002b8a:	e70b      	b.n	80029a4 <USBH_Get_DevDesc+0x10>
 8002b8c:	01000680 	.word	0x01000680

08002b90 <USBH_Get_CfgDesc>:
 8002b90:	e92d 43f0 	stmdb	sp!, {r4, r5, r6, r7, r8, r9, lr}
 8002b94:	7883      	ldrb	r3, [r0, #2]
 8002b96:	2b01      	cmp	r3, #1
 8002b98:	b083      	sub	sp, #12
 8002b9a:	f100 051c 	add.w	r5, r0, #28
 8002b9e:	d014      	beq.n	8002bca <USBH_Get_CfgDesc+0x3a>
 8002ba0:	2b02      	cmp	r3, #2
 8002ba2:	d004      	beq.n	8002bae <USBH_Get_CfgDesc+0x1e>
 8002ba4:	2301      	movs	r3, #1
 8002ba6:	4618      	mov	r0, r3
 8002ba8:	b003      	add	sp, #12
 8002baa:	e8bd 83f0 	ldmia.w	sp!, {r4, r5, r6, r7, r8, r9, pc}
 8002bae:	7e03      	ldrb	r3, [r0, #24]
 8002bb0:	3b01      	subs	r3, #1
 8002bb2:	460e      	mov	r6, r1
 8002bb4:	4604      	mov	r4, r0
 8002bb6:	2b0a      	cmp	r3, #10
 8002bb8:	d8f4      	bhi.n	8002ba4 <USBH_Get_CfgDesc+0x14>
 8002bba:	e8df f003 	tbb	[pc, r3]
 8002bbe:	2e25      	.short	0x2e25
 8002bc0:	6052483c 	.word	0x6052483c
 8002bc4:	9a8c7c70 	.word	0x9a8c7c70
 8002bc8:	14          	.byte	0x14
 8002bc9:	00          	.byte	0x00
 8002bca:	4e9a      	ldr	r6, [pc, #616]	; (8002e34 <USBH_Get_CfgDesc+0x2a4>)
 8002bcc:	82c1      	strh	r1, [r0, #22]
 8002bce:	2400      	movs	r4, #0
 8002bd0:	2202      	movs	r2, #2
 8002bd2:	6085      	str	r5, [r0, #8]
 8002bd4:	8181      	strh	r1, [r0, #12]
 8002bd6:	7603      	strb	r3, [r0, #24]
 8002bd8:	6106      	str	r6, [r0, #16]
 8002bda:	8284      	strh	r4, [r0, #20]
 8002bdc:	7082      	strb	r2, [r0, #2]
 8002bde:	4618      	mov	r0, r3
 8002be0:	b003      	add	sp, #12
 8002be2:	e8bd 83f0 	ldmia.w	sp!, {r4, r5, r6, r7, r8, r9, pc}
 8002be6:	7e43      	ldrb	r3, [r0, #25]
 8002be8:	3301      	adds	r3, #1
 8002bea:	b2db      	uxtb	r3, r3
 8002bec:	2b02      	cmp	r3, #2
 8002bee:	7643      	strb	r3, [r0, #25]
 8002bf0:	f240 8116 	bls.w	8002e20 <USBH_Get_CfgDesc+0x290>
 8002bf4:	f8d0 33c8 	ldr.w	r3, [r0, #968]	; 0x3c8
 8002bf8:	2106      	movs	r1, #6
 8002bfa:	4798      	blx	r3
 8002bfc:	2300      	movs	r3, #0
 8002bfe:	7663      	strb	r3, [r4, #25]
 8002c00:	2301      	movs	r3, #1
 8002c02:	70a3      	strb	r3, [r4, #2]
 8002c04:	2302      	movs	r3, #2
 8002c06:	e7ce      	b.n	8002ba6 <USBH_Get_CfgDesc+0x16>
 8002c08:	7942      	ldrb	r2, [r0, #5]
 8002c0a:	f100 0110 	add.w	r1, r0, #16
 8002c0e:	f000 fc99 	bl	8003544 <USBH_CtlSendSetup>
 8002c12:	2302      	movs	r3, #2
 8002c14:	7623      	strb	r3, [r4, #24]
 8002c16:	2301      	movs	r3, #1
 8002c18:	e7c5      	b.n	8002ba6 <USBH_Get_CfgDesc+0x16>
 8002c1a:	7941      	ldrb	r1, [r0, #5]
 8002c1c:	f001 f898 	bl	8003d50 <USBH_LL_GetURBState>
 8002c20:	2801      	cmp	r0, #1
 8002c22:	f000 80f2 	beq.w	8002e0a <USBH_Get_CfgDesc+0x27a>
 8002c26:	2804      	cmp	r0, #4
 8002c28:	d001      	beq.n	8002c2e <USBH_Get_CfgDesc+0x9e>
 8002c2a:	2802      	cmp	r0, #2
 8002c2c:	d1ba      	bne.n	8002ba4 <USBH_Get_CfgDesc+0x14>
 8002c2e:	230b      	movs	r3, #11
 8002c30:	7623      	strb	r3, [r4, #24]
 8002c32:	2301      	movs	r3, #1
 8002c34:	e7b7      	b.n	8002ba6 <USBH_Get_CfgDesc+0x16>
 8002c36:	f8d0 33bc 	ldr.w	r3, [r0, #956]	; 0x3bc
 8002c3a:	81c3      	strh	r3, [r0, #14]
 8002c3c:	8982      	ldrh	r2, [r0, #12]
 8002c3e:	7903      	ldrb	r3, [r0, #4]
 8002c40:	6881      	ldr	r1, [r0, #8]
 8002c42:	f000 fca7 	bl	8003594 <USBH_CtlReceiveData>
 8002c46:	2304      	movs	r3, #4
 8002c48:	7623      	strb	r3, [r4, #24]
 8002c4a:	2301      	movs	r3, #1
 8002c4c:	e7ab      	b.n	8002ba6 <USBH_Get_CfgDesc+0x16>
 8002c4e:	7901      	ldrb	r1, [r0, #4]
 8002c50:	f001 f87e 	bl	8003d50 <USBH_LL_GetURBState>
 8002c54:	2801      	cmp	r0, #1
 8002c56:	d053      	beq.n	8002d00 <USBH_Get_CfgDesc+0x170>
 8002c58:	2805      	cmp	r0, #5
 8002c5a:	d036      	beq.n	8002cca <USBH_Get_CfgDesc+0x13a>
 8002c5c:	2804      	cmp	r0, #4
 8002c5e:	d1a1      	bne.n	8002ba4 <USBH_Get_CfgDesc+0x14>
 8002c60:	e7e5      	b.n	8002c2e <USBH_Get_CfgDesc+0x9e>
 8002c62:	2501      	movs	r5, #1
 8002c64:	7943      	ldrb	r3, [r0, #5]
 8002c66:	8982      	ldrh	r2, [r0, #12]
 8002c68:	6881      	ldr	r1, [r0, #8]
 8002c6a:	9500      	str	r5, [sp, #0]
 8002c6c:	f000 fc7a 	bl	8003564 <USBH_CtlSendData>
 8002c70:	f8d4 33bc 	ldr.w	r3, [r4, #956]	; 0x3bc
 8002c74:	81e3      	strh	r3, [r4, #14]
 8002c76:	2206      	movs	r2, #6
 8002c78:	462b      	mov	r3, r5
 8002c7a:	7622      	strb	r2, [r4, #24]
 8002c7c:	e793      	b.n	8002ba6 <USBH_Get_CfgDesc+0x16>
 8002c7e:	7941      	ldrb	r1, [r0, #5]
 8002c80:	f001 f866 	bl	8003d50 <USBH_LL_GetURBState>
 8002c84:	2801      	cmp	r0, #1
 8002c86:	f000 80bc 	beq.w	8002e02 <USBH_Get_CfgDesc+0x272>
 8002c8a:	2805      	cmp	r0, #5
 8002c8c:	d01d      	beq.n	8002cca <USBH_Get_CfgDesc+0x13a>
 8002c8e:	2802      	cmp	r0, #2
 8002c90:	f000 80c2 	beq.w	8002e18 <USBH_Get_CfgDesc+0x288>
 8002c94:	2804      	cmp	r0, #4
 8002c96:	d185      	bne.n	8002ba4 <USBH_Get_CfgDesc+0x14>
 8002c98:	230b      	movs	r3, #11
 8002c9a:	7623      	strb	r3, [r4, #24]
 8002c9c:	e7b0      	b.n	8002c00 <USBH_Get_CfgDesc+0x70>
 8002c9e:	2200      	movs	r2, #0
 8002ca0:	7903      	ldrb	r3, [r0, #4]
 8002ca2:	4611      	mov	r1, r2
 8002ca4:	f000 fc76 	bl	8003594 <USBH_CtlReceiveData>
 8002ca8:	f8d4 33bc 	ldr.w	r3, [r4, #956]	; 0x3bc
 8002cac:	81e3      	strh	r3, [r4, #14]
 8002cae:	2308      	movs	r3, #8
 8002cb0:	7623      	strb	r3, [r4, #24]
 8002cb2:	2301      	movs	r3, #1
 8002cb4:	e777      	b.n	8002ba6 <USBH_Get_CfgDesc+0x16>
 8002cb6:	7901      	ldrb	r1, [r0, #4]
 8002cb8:	f001 f84a 	bl	8003d50 <USBH_LL_GetURBState>
 8002cbc:	2801      	cmp	r0, #1
 8002cbe:	d023      	beq.n	8002d08 <USBH_Get_CfgDesc+0x178>
 8002cc0:	2804      	cmp	r0, #4
 8002cc2:	d0b4      	beq.n	8002c2e <USBH_Get_CfgDesc+0x9e>
 8002cc4:	2805      	cmp	r0, #5
 8002cc6:	f47f af6d 	bne.w	8002ba4 <USBH_Get_CfgDesc+0x14>
 8002cca:	2300      	movs	r3, #0
 8002ccc:	2201      	movs	r2, #1
 8002cce:	7623      	strb	r3, [r4, #24]
 8002cd0:	70a2      	strb	r2, [r4, #2]
 8002cd2:	2303      	movs	r3, #3
 8002cd4:	e767      	b.n	8002ba6 <USBH_Get_CfgDesc+0x16>
 8002cd6:	2200      	movs	r2, #0
 8002cd8:	2501      	movs	r5, #1
 8002cda:	7943      	ldrb	r3, [r0, #5]
 8002cdc:	9500      	str	r5, [sp, #0]
 8002cde:	4611      	mov	r1, r2
 8002ce0:	f000 fc40 	bl	8003564 <USBH_CtlSendData>
 8002ce4:	f8d4 33bc 	ldr.w	r3, [r4, #956]	; 0x3bc
 8002ce8:	81e3      	strh	r3, [r4, #14]
 8002cea:	220a      	movs	r2, #10
 8002cec:	462b      	mov	r3, r5
 8002cee:	7622      	strb	r2, [r4, #24]
 8002cf0:	e759      	b.n	8002ba6 <USBH_Get_CfgDesc+0x16>
 8002cf2:	7941      	ldrb	r1, [r0, #5]
 8002cf4:	f001 f82c 	bl	8003d50 <USBH_LL_GetURBState>
 8002cf8:	2801      	cmp	r0, #1
 8002cfa:	d005      	beq.n	8002d08 <USBH_Get_CfgDesc+0x178>
 8002cfc:	2802      	cmp	r0, #2
 8002cfe:	d1ad      	bne.n	8002c5c <USBH_Get_CfgDesc+0xcc>
 8002d00:	2309      	movs	r3, #9
 8002d02:	7623      	strb	r3, [r4, #24]
 8002d04:	2301      	movs	r3, #1
 8002d06:	e74e      	b.n	8002ba6 <USBH_Get_CfgDesc+0x16>
 8002d08:	7f22      	ldrb	r2, [r4, #28]
 8002d0a:	7f63      	ldrb	r3, [r4, #29]
 8002d0c:	8be0      	ldrh	r0, [r4, #30]
 8002d0e:	f884 2334 	strb.w	r2, [r4, #820]	; 0x334
 8002d12:	2101      	movs	r1, #1
 8002d14:	2700      	movs	r7, #0
 8002d16:	6a22      	ldr	r2, [r4, #32]
 8002d18:	f884 3335 	strb.w	r3, [r4, #821]	; 0x335
 8002d1c:	2e09      	cmp	r6, #9
 8002d1e:	f894 3024 	ldrb.w	r3, [r4, #36]	; 0x24
 8002d22:	70a1      	strb	r1, [r4, #2]
 8002d24:	7627      	strb	r7, [r4, #24]
 8002d26:	f8a4 0336 	strh.w	r0, [r4, #822]	; 0x336
 8002d2a:	f8c4 2338 	str.w	r2, [r4, #824]	; 0x338
 8002d2e:	f884 333c 	strb.w	r3, [r4, #828]	; 0x33c
 8002d32:	d90d      	bls.n	8002d50 <USBH_Get_CfgDesc+0x1c0>
 8002d34:	4626      	mov	r6, r4
 8002d36:	2209      	movs	r2, #9
 8002d38:	f04f 0c1a 	mov.w	ip, #26
 8002d3c:	e006      	b.n	8002d4c <USBH_Get_CfgDesc+0x1bc>
 8002d3e:	782b      	ldrb	r3, [r5, #0]
 8002d40:	441d      	add	r5, r3
 8002d42:	4413      	add	r3, r2
 8002d44:	7869      	ldrb	r1, [r5, #1]
 8002d46:	2904      	cmp	r1, #4
 8002d48:	b29a      	uxth	r2, r3
 8002d4a:	d006      	beq.n	8002d5a <USBH_Get_CfgDesc+0x1ca>
 8002d4c:	4290      	cmp	r0, r2
 8002d4e:	d8f6      	bhi.n	8002d3e <USBH_Get_CfgDesc+0x1ae>
 8002d50:	2300      	movs	r3, #0
 8002d52:	4618      	mov	r0, r3
 8002d54:	b003      	add	sp, #12
 8002d56:	e8bd 83f0 	ldmia.w	sp!, {r4, r5, r6, r7, r8, r9, pc}
 8002d5a:	782b      	ldrb	r3, [r5, #0]
 8002d5c:	f886 333e 	strb.w	r3, [r6, #830]	; 0x33e
 8002d60:	786b      	ldrb	r3, [r5, #1]
 8002d62:	f886 333f 	strb.w	r3, [r6, #831]	; 0x33f
 8002d66:	78ab      	ldrb	r3, [r5, #2]
 8002d68:	f886 3340 	strb.w	r3, [r6, #832]	; 0x340
 8002d6c:	78eb      	ldrb	r3, [r5, #3]
 8002d6e:	f886 3341 	strb.w	r3, [r6, #833]	; 0x341
 8002d72:	f895 9004 	ldrb.w	r9, [r5, #4]
 8002d76:	f886 9342 	strb.w	r9, [r6, #834]	; 0x342
 8002d7a:	796b      	ldrb	r3, [r5, #5]
 8002d7c:	f886 3343 	strb.w	r3, [r6, #835]	; 0x343
 8002d80:	79ab      	ldrb	r3, [r5, #6]
 8002d82:	f886 3344 	strb.w	r3, [r6, #836]	; 0x344
 8002d86:	79eb      	ldrb	r3, [r5, #7]
 8002d88:	f886 3345 	strb.w	r3, [r6, #837]	; 0x345
 8002d8c:	7a2b      	ldrb	r3, [r5, #8]
 8002d8e:	f886 3346 	strb.w	r3, [r6, #838]	; 0x346
 8002d92:	2100      	movs	r1, #0
 8002d94:	fb0c f807 	mul.w	r8, ip, r7
 8002d98:	4549      	cmp	r1, r9
 8002d9a:	d22a      	bcs.n	8002df2 <USBH_Get_CfgDesc+0x262>
 8002d9c:	4290      	cmp	r0, r2
 8002d9e:	d928      	bls.n	8002df2 <USBH_Get_CfgDesc+0x262>
 8002da0:	782b      	ldrb	r3, [r5, #0]
 8002da2:	441d      	add	r5, r3
 8002da4:	4413      	add	r3, r2
 8002da6:	f895 e001 	ldrb.w	lr, [r5, #1]
 8002daa:	f1be 0f05 	cmp.w	lr, #5
 8002dae:	b29a      	uxth	r2, r3
 8002db0:	d1f2      	bne.n	8002d98 <USBH_Get_CfgDesc+0x208>
 8002db2:	3101      	adds	r1, #1
 8002db4:	eb08 03c1 	add.w	r3, r8, r1, lsl #3
 8002db8:	4423      	add	r3, r4
 8002dba:	f895 e000 	ldrb.w	lr, [r5]
 8002dbe:	f883 e340 	strb.w	lr, [r3, #832]	; 0x340
 8002dc2:	f895 e001 	ldrb.w	lr, [r5, #1]
 8002dc6:	f883 e341 	strb.w	lr, [r3, #833]	; 0x341
 8002dca:	f895 e002 	ldrb.w	lr, [r5, #2]
 8002dce:	f883 e342 	strb.w	lr, [r3, #834]	; 0x342
 8002dd2:	f895 e003 	ldrb.w	lr, [r5, #3]
 8002dd6:	f883 e343 	strb.w	lr, [r3, #835]	; 0x343
 8002dda:	f8b5 e004 	ldrh.w	lr, [r5, #4]
 8002dde:	f8a3 e344 	strh.w	lr, [r3, #836]	; 0x344
 8002de2:	f895 e006 	ldrb.w	lr, [r5, #6]
 8002de6:	f883 e346 	strb.w	lr, [r3, #838]	; 0x346
 8002dea:	f896 9342 	ldrb.w	r9, [r6, #834]	; 0x342
 8002dee:	b2c9      	uxtb	r1, r1
 8002df0:	e7d2      	b.n	8002d98 <USBH_Get_CfgDesc+0x208>
 8002df2:	361a      	adds	r6, #26
 8002df4:	2f00      	cmp	r7, #0
 8002df6:	d1ab      	bne.n	8002d50 <USBH_Get_CfgDesc+0x1c0>
 8002df8:	2701      	movs	r7, #1
 8002dfa:	e7a7      	b.n	8002d4c <USBH_Get_CfgDesc+0x1bc>
 8002dfc:	2b00      	cmp	r3, #0
 8002dfe:	f6ff af7f 	blt.w	8002d00 <USBH_Get_CfgDesc+0x170>
 8002e02:	2307      	movs	r3, #7
 8002e04:	7623      	strb	r3, [r4, #24]
 8002e06:	2301      	movs	r3, #1
 8002e08:	e6cd      	b.n	8002ba6 <USBH_Get_CfgDesc+0x16>
 8002e0a:	8ae2      	ldrh	r2, [r4, #22]
 8002e0c:	f994 3010 	ldrsb.w	r3, [r4, #16]
 8002e10:	2a00      	cmp	r2, #0
 8002e12:	d0f3      	beq.n	8002dfc <USBH_Get_CfgDesc+0x26c>
 8002e14:	2b00      	cmp	r3, #0
 8002e16:	db09      	blt.n	8002e2c <USBH_Get_CfgDesc+0x29c>
 8002e18:	2305      	movs	r3, #5
 8002e1a:	7623      	strb	r3, [r4, #24]
 8002e1c:	2301      	movs	r3, #1
 8002e1e:	e6c2      	b.n	8002ba6 <USBH_Get_CfgDesc+0x16>
 8002e20:	f000 ff3a 	bl	8003c98 <USBH_LL_Stop>
 8002e24:	2301      	movs	r3, #1
 8002e26:	7623      	strb	r3, [r4, #24]
 8002e28:	70a3      	strb	r3, [r4, #2]
 8002e2a:	e6bc      	b.n	8002ba6 <USBH_Get_CfgDesc+0x16>
 8002e2c:	2203      	movs	r2, #3
 8002e2e:	4603      	mov	r3, r0
 8002e30:	7622      	strb	r2, [r4, #24]
 8002e32:	e6b8      	b.n	8002ba6 <USBH_Get_CfgDesc+0x16>
 8002e34:	02000680 	.word	0x02000680

08002e38 <USBH_Get_StringDesc>:
 8002e38:	b570      	push	{r4, r5, r6, lr}
 8002e3a:	4605      	mov	r5, r0
 8002e3c:	7880      	ldrb	r0, [r0, #2]
 8002e3e:	2801      	cmp	r0, #1
 8002e40:	b084      	sub	sp, #16
 8002e42:	f505 748e 	add.w	r4, r5, #284	; 0x11c
 8002e46:	d010      	beq.n	8002e6a <USBH_Get_StringDesc+0x32>
 8002e48:	2802      	cmp	r0, #2
 8002e4a:	d002      	beq.n	8002e52 <USBH_Get_StringDesc+0x1a>
 8002e4c:	2001      	movs	r0, #1
 8002e4e:	b004      	add	sp, #16
 8002e50:	bd70      	pop	{r4, r5, r6, pc}
 8002e52:	7e29      	ldrb	r1, [r5, #24]
 8002e54:	3901      	subs	r1, #1
 8002e56:	290a      	cmp	r1, #10
 8002e58:	d8f8      	bhi.n	8002e4c <USBH_Get_StringDesc+0x14>
 8002e5a:	e8df f001 	tbb	[pc, r1]
 8002e5e:	3329      	.short	0x3329
 8002e60:	695a4f42 	.word	0x695a4f42
 8002e64:	a99a8578 	.word	0xa99a8578
 8002e68:	17          	.byte	0x17
 8002e69:	00          	.byte	0x00
 8002e6a:	f441 7140 	orr.w	r1, r1, #768	; 0x300
 8002e6e:	f44f 66d0 	mov.w	r6, #1664	; 0x680
 8002e72:	8269      	strh	r1, [r5, #18]
 8002e74:	2202      	movs	r2, #2
 8002e76:	f240 4109 	movw	r1, #1033	; 0x409
 8002e7a:	82eb      	strh	r3, [r5, #22]
 8002e7c:	60ac      	str	r4, [r5, #8]
 8002e7e:	81ab      	strh	r3, [r5, #12]
 8002e80:	7628      	strb	r0, [r5, #24]
 8002e82:	822e      	strh	r6, [r5, #16]
 8002e84:	82a9      	strh	r1, [r5, #20]
 8002e86:	70aa      	strb	r2, [r5, #2]
 8002e88:	b004      	add	sp, #16
 8002e8a:	bd70      	pop	{r4, r5, r6, pc}
 8002e8c:	7e6b      	ldrb	r3, [r5, #25]
 8002e8e:	3301      	adds	r3, #1
 8002e90:	b2db      	uxtb	r3, r3
 8002e92:	2b02      	cmp	r3, #2
 8002e94:	766b      	strb	r3, [r5, #25]
 8002e96:	f240 80c9 	bls.w	800302c <USBH_Get_StringDesc+0x1f4>
 8002e9a:	f8d5 33c8 	ldr.w	r3, [r5, #968]	; 0x3c8
 8002e9e:	2106      	movs	r1, #6
 8002ea0:	4628      	mov	r0, r5
 8002ea2:	4798      	blx	r3
 8002ea4:	2300      	movs	r3, #0
 8002ea6:	766b      	strb	r3, [r5, #25]
 8002ea8:	2301      	movs	r3, #1
 8002eaa:	70ab      	strb	r3, [r5, #2]
 8002eac:	2002      	movs	r0, #2
 8002eae:	e7ce      	b.n	8002e4e <USBH_Get_StringDesc+0x16>
 8002eb0:	796a      	ldrb	r2, [r5, #5]
 8002eb2:	f105 0110 	add.w	r1, r5, #16
 8002eb6:	4628      	mov	r0, r5
 8002eb8:	f000 fb44 	bl	8003544 <USBH_CtlSendSetup>
 8002ebc:	2302      	movs	r3, #2
 8002ebe:	762b      	strb	r3, [r5, #24]
 8002ec0:	2001      	movs	r0, #1
 8002ec2:	e7c4      	b.n	8002e4e <USBH_Get_StringDesc+0x16>
 8002ec4:	7969      	ldrb	r1, [r5, #5]
 8002ec6:	4628      	mov	r0, r5
 8002ec8:	f000 ff42 	bl	8003d50 <USBH_LL_GetURBState>
 8002ecc:	2801      	cmp	r0, #1
 8002ece:	f000 80a2 	beq.w	8003016 <USBH_Get_StringDesc+0x1de>
 8002ed2:	2804      	cmp	r0, #4
 8002ed4:	d001      	beq.n	8002eda <USBH_Get_StringDesc+0xa2>
 8002ed6:	2802      	cmp	r0, #2
 8002ed8:	d1b8      	bne.n	8002e4c <USBH_Get_StringDesc+0x14>
 8002eda:	230b      	movs	r3, #11
 8002edc:	762b      	strb	r3, [r5, #24]
 8002ede:	2001      	movs	r0, #1
 8002ee0:	e7b5      	b.n	8002e4e <USBH_Get_StringDesc+0x16>
 8002ee2:	f8d5 33bc 	ldr.w	r3, [r5, #956]	; 0x3bc
 8002ee6:	81eb      	strh	r3, [r5, #14]
 8002ee8:	89aa      	ldrh	r2, [r5, #12]
 8002eea:	792b      	ldrb	r3, [r5, #4]
 8002eec:	68a9      	ldr	r1, [r5, #8]
 8002eee:	4628      	mov	r0, r5
 8002ef0:	f000 fb50 	bl	8003594 <USBH_CtlReceiveData>
 8002ef4:	2304      	movs	r3, #4
 8002ef6:	762b      	strb	r3, [r5, #24]
 8002ef8:	2001      	movs	r0, #1
 8002efa:	e7a8      	b.n	8002e4e <USBH_Get_StringDesc+0x16>
 8002efc:	7929      	ldrb	r1, [r5, #4]
 8002efe:	4628      	mov	r0, r5
 8002f00:	f000 ff26 	bl	8003d50 <USBH_LL_GetURBState>
 8002f04:	2801      	cmp	r0, #1
 8002f06:	d05f      	beq.n	8002fc8 <USBH_Get_StringDesc+0x190>
 8002f08:	2805      	cmp	r0, #5
 8002f0a:	d03c      	beq.n	8002f86 <USBH_Get_StringDesc+0x14e>
 8002f0c:	2804      	cmp	r0, #4
 8002f0e:	d19d      	bne.n	8002e4c <USBH_Get_StringDesc+0x14>
 8002f10:	e7e3      	b.n	8002eda <USBH_Get_StringDesc+0xa2>
 8002f12:	2401      	movs	r4, #1
 8002f14:	796b      	ldrb	r3, [r5, #5]
 8002f16:	89aa      	ldrh	r2, [r5, #12]
 8002f18:	68a9      	ldr	r1, [r5, #8]
 8002f1a:	9400      	str	r4, [sp, #0]
 8002f1c:	4628      	mov	r0, r5
 8002f1e:	f000 fb21 	bl	8003564 <USBH_CtlSendData>
 8002f22:	f8d5 33bc 	ldr.w	r3, [r5, #956]	; 0x3bc
 8002f26:	81eb      	strh	r3, [r5, #14]
 8002f28:	2306      	movs	r3, #6
 8002f2a:	4620      	mov	r0, r4
 8002f2c:	762b      	strb	r3, [r5, #24]
 8002f2e:	e78e      	b.n	8002e4e <USBH_Get_StringDesc+0x16>
 8002f30:	7969      	ldrb	r1, [r5, #5]
 8002f32:	4628      	mov	r0, r5
 8002f34:	f000 ff0c 	bl	8003d50 <USBH_LL_GetURBState>
 8002f38:	2801      	cmp	r0, #1
 8002f3a:	d068      	beq.n	800300e <USBH_Get_StringDesc+0x1d6>
 8002f3c:	2805      	cmp	r0, #5
 8002f3e:	d022      	beq.n	8002f86 <USBH_Get_StringDesc+0x14e>
 8002f40:	2802      	cmp	r0, #2
 8002f42:	d06f      	beq.n	8003024 <USBH_Get_StringDesc+0x1ec>
 8002f44:	2804      	cmp	r0, #4
 8002f46:	d181      	bne.n	8002e4c <USBH_Get_StringDesc+0x14>
 8002f48:	230b      	movs	r3, #11
 8002f4a:	762b      	strb	r3, [r5, #24]
 8002f4c:	e7ac      	b.n	8002ea8 <USBH_Get_StringDesc+0x70>
 8002f4e:	2200      	movs	r2, #0
 8002f50:	792b      	ldrb	r3, [r5, #4]
 8002f52:	4611      	mov	r1, r2
 8002f54:	4628      	mov	r0, r5
 8002f56:	f000 fb1d 	bl	8003594 <USBH_CtlReceiveData>
 8002f5a:	f8d5 33bc 	ldr.w	r3, [r5, #956]	; 0x3bc
 8002f5e:	81eb      	strh	r3, [r5, #14]
 8002f60:	2308      	movs	r3, #8
 8002f62:	762b      	strb	r3, [r5, #24]
 8002f64:	2001      	movs	r0, #1
 8002f66:	e772      	b.n	8002e4e <USBH_Get_StringDesc+0x16>
 8002f68:	7929      	ldrb	r1, [r5, #4]
 8002f6a:	4628      	mov	r0, r5
 8002f6c:	e9cd 2302 	strd	r2, r3, [sp, #8]
 8002f70:	f000 feee 	bl	8003d50 <USBH_LL_GetURBState>
 8002f74:	2801      	cmp	r0, #1
 8002f76:	e9dd 2302 	ldrd	r2, r3, [sp, #8]
 8002f7a:	d029      	beq.n	8002fd0 <USBH_Get_StringDesc+0x198>
 8002f7c:	2804      	cmp	r0, #4
 8002f7e:	d0ac      	beq.n	8002eda <USBH_Get_StringDesc+0xa2>
 8002f80:	2805      	cmp	r0, #5
 8002f82:	f47f af63 	bne.w	8002e4c <USBH_Get_StringDesc+0x14>
 8002f86:	2201      	movs	r2, #1
 8002f88:	2300      	movs	r3, #0
 8002f8a:	70aa      	strb	r2, [r5, #2]
 8002f8c:	762b      	strb	r3, [r5, #24]
 8002f8e:	2003      	movs	r0, #3
 8002f90:	e75d      	b.n	8002e4e <USBH_Get_StringDesc+0x16>
 8002f92:	2401      	movs	r4, #1
 8002f94:	2200      	movs	r2, #0
 8002f96:	796b      	ldrb	r3, [r5, #5]
 8002f98:	9400      	str	r4, [sp, #0]
 8002f9a:	4611      	mov	r1, r2
 8002f9c:	4628      	mov	r0, r5
 8002f9e:	f000 fae1 	bl	8003564 <USBH_CtlSendData>
 8002fa2:	f8d5 33bc 	ldr.w	r3, [r5, #956]	; 0x3bc
 8002fa6:	81eb      	strh	r3, [r5, #14]
 8002fa8:	230a      	movs	r3, #10
 8002faa:	4620      	mov	r0, r4
 8002fac:	762b      	strb	r3, [r5, #24]
 8002fae:	e74e      	b.n	8002e4e <USBH_Get_StringDesc+0x16>
 8002fb0:	7969      	ldrb	r1, [r5, #5]
 8002fb2:	4628      	mov	r0, r5
 8002fb4:	e9cd 2302 	strd	r2, r3, [sp, #8]
 8002fb8:	f000 feca 	bl	8003d50 <USBH_LL_GetURBState>
 8002fbc:	2801      	cmp	r0, #1
 8002fbe:	e9dd 2302 	ldrd	r2, r3, [sp, #8]
 8002fc2:	d005      	beq.n	8002fd0 <USBH_Get_StringDesc+0x198>
 8002fc4:	2802      	cmp	r0, #2
 8002fc6:	d1a1      	bne.n	8002f0c <USBH_Get_StringDesc+0xd4>
 8002fc8:	2309      	movs	r3, #9
 8002fca:	762b      	strb	r3, [r5, #24]
 8002fcc:	2001      	movs	r0, #1
 8002fce:	e73e      	b.n	8002e4e <USBH_Get_StringDesc+0x16>
 8002fd0:	f895 111d 	ldrb.w	r1, [r5, #285]	; 0x11d
 8002fd4:	2601      	movs	r6, #1
 8002fd6:	2000      	movs	r0, #0
 8002fd8:	2903      	cmp	r1, #3
 8002fda:	70ae      	strb	r6, [r5, #2]
 8002fdc:	7628      	strb	r0, [r5, #24]
 8002fde:	f47f af36 	bne.w	8002e4e <USBH_Get_StringDesc+0x16>
 8002fe2:	f895 111c 	ldrb.w	r1, [r5, #284]	; 0x11c
 8002fe6:	3902      	subs	r1, #2
 8002fe8:	428b      	cmp	r3, r1
 8002fea:	bf28      	it	cs
 8002fec:	460b      	movcs	r3, r1
 8002fee:	b299      	uxth	r1, r3
 8002ff0:	b13b      	cbz	r3, 8003002 <USBH_Get_StringDesc+0x1ca>
 8002ff2:	1823      	adds	r3, r4, r0
 8002ff4:	3002      	adds	r0, #2
 8002ff6:	b280      	uxth	r0, r0
 8002ff8:	789b      	ldrb	r3, [r3, #2]
 8002ffa:	f802 3b01 	strb.w	r3, [r2], #1
 8002ffe:	4281      	cmp	r1, r0
 8003000:	d8f7      	bhi.n	8002ff2 <USBH_Get_StringDesc+0x1ba>
 8003002:	2000      	movs	r0, #0
 8003004:	7010      	strb	r0, [r2, #0]
 8003006:	b004      	add	sp, #16
 8003008:	bd70      	pop	{r4, r5, r6, pc}
 800300a:	2a00      	cmp	r2, #0
 800300c:	dbdc      	blt.n	8002fc8 <USBH_Get_StringDesc+0x190>
 800300e:	2307      	movs	r3, #7
 8003010:	762b      	strb	r3, [r5, #24]
 8003012:	2001      	movs	r0, #1
 8003014:	e71b      	b.n	8002e4e <USBH_Get_StringDesc+0x16>
 8003016:	8aeb      	ldrh	r3, [r5, #22]
 8003018:	f995 2010 	ldrsb.w	r2, [r5, #16]
 800301c:	2b00      	cmp	r3, #0
 800301e:	d0f4      	beq.n	800300a <USBH_Get_StringDesc+0x1d2>
 8003020:	2a00      	cmp	r2, #0
 8003022:	db0a      	blt.n	800303a <USBH_Get_StringDesc+0x202>
 8003024:	2305      	movs	r3, #5
 8003026:	762b      	strb	r3, [r5, #24]
 8003028:	2001      	movs	r0, #1
 800302a:	e710      	b.n	8002e4e <USBH_Get_StringDesc+0x16>
 800302c:	4628      	mov	r0, r5
 800302e:	f000 fe33 	bl	8003c98 <USBH_LL_Stop>
 8003032:	2001      	movs	r0, #1
 8003034:	7628      	strb	r0, [r5, #24]
 8003036:	70a8      	strb	r0, [r5, #2]
 8003038:	e709      	b.n	8002e4e <USBH_Get_StringDesc+0x16>
 800303a:	2303      	movs	r3, #3
 800303c:	762b      	strb	r3, [r5, #24]
 800303e:	e706      	b.n	8002e4e <USBH_Get_StringDesc+0x16>

08003040 <USBH_SetAddress>:
 8003040:	b530      	push	{r4, r5, lr}
 8003042:	7883      	ldrb	r3, [r0, #2]
 8003044:	2b01      	cmp	r3, #1
 8003046:	b083      	sub	sp, #12
 8003048:	d012      	beq.n	8003070 <USBH_SetAddress+0x30>
 800304a:	2b02      	cmp	r3, #2
 800304c:	d003      	beq.n	8003056 <USBH_SetAddress+0x16>
 800304e:	2301      	movs	r3, #1
 8003050:	4618      	mov	r0, r3
 8003052:	b003      	add	sp, #12
 8003054:	bd30      	pop	{r4, r5, pc}
 8003056:	7e03      	ldrb	r3, [r0, #24]
 8003058:	3b01      	subs	r3, #1
 800305a:	4605      	mov	r5, r0
 800305c:	2b0a      	cmp	r3, #10
 800305e:	d8f6      	bhi.n	800304e <USBH_SetAddress+0xe>
 8003060:	e8df f003 	tbb	[pc, r3]
 8003064:	473b2e25 	.word	0x473b2e25
 8003068:	796d5f51 	.word	0x796d5f51
 800306c:	9789      	.short	0x9789
 800306e:	14          	.byte	0x14
 800306f:	00          	.byte	0x00
 8003070:	2200      	movs	r2, #0
 8003072:	f44f 65a0 	mov.w	r5, #1280	; 0x500
 8003076:	2402      	movs	r4, #2
 8003078:	8241      	strh	r1, [r0, #18]
 800307a:	7603      	strb	r3, [r0, #24]
 800307c:	8205      	strh	r5, [r0, #16]
 800307e:	6142      	str	r2, [r0, #20]
 8003080:	6082      	str	r2, [r0, #8]
 8003082:	8182      	strh	r2, [r0, #12]
 8003084:	7084      	strb	r4, [r0, #2]
 8003086:	4618      	mov	r0, r3
 8003088:	b003      	add	sp, #12
 800308a:	bd30      	pop	{r4, r5, pc}
 800308c:	7e43      	ldrb	r3, [r0, #25]
 800308e:	3301      	adds	r3, #1
 8003090:	b2db      	uxtb	r3, r3
 8003092:	2b02      	cmp	r3, #2
 8003094:	7643      	strb	r3, [r0, #25]
 8003096:	f240 809f 	bls.w	80031d8 <USBH_SetAddress+0x198>
 800309a:	f8d0 33c8 	ldr.w	r3, [r0, #968]	; 0x3c8
 800309e:	2106      	movs	r1, #6
 80030a0:	4798      	blx	r3
 80030a2:	2300      	movs	r3, #0
 80030a4:	766b      	strb	r3, [r5, #25]
 80030a6:	2301      	movs	r3, #1
 80030a8:	70ab      	strb	r3, [r5, #2]
 80030aa:	2302      	movs	r3, #2
 80030ac:	e7d0      	b.n	8003050 <USBH_SetAddress+0x10>
 80030ae:	7942      	ldrb	r2, [r0, #5]
 80030b0:	f100 0110 	add.w	r1, r0, #16
 80030b4:	f000 fa46 	bl	8003544 <USBH_CtlSendSetup>
 80030b8:	2302      	movs	r3, #2
 80030ba:	762b      	strb	r3, [r5, #24]
